{
  "contractName": "Healthblock",
  "abi": [
    {
      "inputs": [],
      "payable": false,
      "stateMutability": "nonpayable",
      "type": "constructor"
    },
    {
      "constant": true,
      "inputs": [
        {
          "internalType": "uint256",
          "name": "",
          "type": "uint256"
        }
      ],
      "name": "Reports",
      "outputs": [
        {
          "internalType": "uint256",
          "name": "id",
          "type": "uint256"
        },
        {
          "internalType": "string",
          "name": "name",
          "type": "string"
        },
        {
          "internalType": "string",
          "name": "report_hash",
          "type": "string"
        },
        {
          "internalType": "address",
          "name": "owner",
          "type": "address"
        }
      ],
      "payable": false,
      "stateMutability": "view",
      "type": "function"
    },
    {
      "constant": true,
      "inputs": [
        {
          "internalType": "uint256",
          "name": "",
          "type": "uint256"
        }
      ],
      "name": "covid_report_list",
      "outputs": [
        {
          "internalType": "uint256",
          "name": "id",
          "type": "uint256"
        },
        {
          "internalType": "string",
          "name": "name",
          "type": "string"
        },
        {
          "internalType": "string",
          "name": "report_hash",
          "type": "string"
        },
        {
          "internalType": "address",
          "name": "owner",
          "type": "address"
        }
      ],
      "payable": false,
      "stateMutability": "view",
      "type": "function"
    },
    {
      "constant": true,
      "inputs": [
        {
          "internalType": "string",
          "name": "",
          "type": "string"
        }
      ],
      "name": "covid_reports",
      "outputs": [
        {
          "internalType": "uint256",
          "name": "id",
          "type": "uint256"
        },
        {
          "internalType": "string",
          "name": "name",
          "type": "string"
        },
        {
          "internalType": "string",
          "name": "report_hash",
          "type": "string"
        },
        {
          "internalType": "address",
          "name": "owner",
          "type": "address"
        }
      ],
      "payable": false,
      "stateMutability": "view",
      "type": "function"
    },
    {
      "constant": true,
      "inputs": [
        {
          "internalType": "address",
          "name": "",
          "type": "address"
        }
      ],
      "name": "doctoReport",
      "outputs": [
        {
          "internalType": "uint256",
          "name": "id",
          "type": "uint256"
        },
        {
          "internalType": "string",
          "name": "name",
          "type": "string"
        },
        {
          "internalType": "string",
          "name": "report_hash",
          "type": "string"
        },
        {
          "internalType": "address",
          "name": "owner",
          "type": "address"
        }
      ],
      "payable": false,
      "stateMutability": "view",
      "type": "function"
    },
    {
      "constant": true,
      "inputs": [
        {
          "internalType": "address",
          "name": "",
          "type": "address"
        }
      ],
      "name": "doctors",
      "outputs": [
        {
          "internalType": "string",
          "name": "name",
          "type": "string"
        },
        {
          "internalType": "address",
          "name": "id",
          "type": "address"
        }
      ],
      "payable": false,
      "stateMutability": "view",
      "type": "function"
    },
    {
      "constant": true,
      "inputs": [],
      "name": "name",
      "outputs": [
        {
          "internalType": "string",
          "name": "",
          "type": "string"
        }
      ],
      "payable": false,
      "stateMutability": "view",
      "type": "function"
    },
    {
      "constant": true,
      "inputs": [],
      "name": "number",
      "outputs": [
        {
          "internalType": "uint256",
          "name": "",
          "type": "uint256"
        }
      ],
      "payable": false,
      "stateMutability": "view",
      "type": "function"
    },
    {
      "constant": true,
      "inputs": [],
      "name": "owner",
      "outputs": [
        {
          "internalType": "address",
          "name": "",
          "type": "address"
        }
      ],
      "payable": false,
      "stateMutability": "view",
      "type": "function"
    },
    {
      "constant": true,
      "inputs": [
        {
          "internalType": "address",
          "name": "",
          "type": "address"
        }
      ],
      "name": "patients",
      "outputs": [
        {
          "internalType": "string",
          "name": "name",
          "type": "string"
        },
        {
          "internalType": "address",
          "name": "id",
          "type": "address"
        }
      ],
      "payable": false,
      "stateMutability": "view",
      "type": "function"
    },
    {
      "constant": true,
      "inputs": [],
      "name": "presCount",
      "outputs": [
        {
          "internalType": "uint256",
          "name": "",
          "type": "uint256"
        }
      ],
      "payable": false,
      "stateMutability": "view",
      "type": "function"
    },
    {
      "constant": true,
      "inputs": [
        {
          "internalType": "uint256",
          "name": "",
          "type": "uint256"
        }
      ],
      "name": "presList",
      "outputs": [
        {
          "internalType": "string",
          "name": "pres_hash",
          "type": "string"
        },
        {
          "internalType": "address",
          "name": "owner",
          "type": "address"
        },
        {
          "internalType": "address",
          "name": "patient_to",
          "type": "address"
        }
      ],
      "payable": false,
      "stateMutability": "view",
      "type": "function"
    },
    {
      "constant": true,
      "inputs": [
        {
          "internalType": "string",
          "name": "",
          "type": "string"
        }
      ],
      "name": "presmap",
      "outputs": [
        {
          "internalType": "string",
          "name": "pres_hash",
          "type": "string"
        },
        {
          "internalType": "address",
          "name": "owner",
          "type": "address"
        },
        {
          "internalType": "address",
          "name": "patient_to",
          "type": "address"
        }
      ],
      "payable": false,
      "stateMutability": "view",
      "type": "function"
    },
    {
      "constant": true,
      "inputs": [],
      "name": "provider_report",
      "outputs": [
        {
          "internalType": "uint256",
          "name": "",
          "type": "uint256"
        }
      ],
      "payable": false,
      "stateMutability": "view",
      "type": "function"
    },
    {
      "constant": true,
      "inputs": [
        {
          "internalType": "address",
          "name": "",
          "type": "address"
        }
      ],
      "name": "providers",
      "outputs": [
        {
          "internalType": "string",
          "name": "name",
          "type": "string"
        },
        {
          "internalType": "address",
          "name": "id",
          "type": "address"
        }
      ],
      "payable": false,
      "stateMutability": "view",
      "type": "function"
    },
    {
      "constant": true,
      "inputs": [],
      "name": "report_count",
      "outputs": [
        {
          "internalType": "uint256",
          "name": "",
          "type": "uint256"
        }
      ],
      "payable": false,
      "stateMutability": "view",
      "type": "function"
    },
    {
      "constant": true,
      "inputs": [
        {
          "internalType": "uint256",
          "name": "",
          "type": "uint256"
        }
      ],
      "name": "reportlist",
      "outputs": [
        {
          "internalType": "uint256",
          "name": "id",
          "type": "uint256"
        },
        {
          "internalType": "string",
          "name": "name",
          "type": "string"
        },
        {
          "internalType": "string",
          "name": "report_hash",
          "type": "string"
        },
        {
          "internalType": "address",
          "name": "owner",
          "type": "address"
        }
      ],
      "payable": false,
      "stateMutability": "view",
      "type": "function"
    },
    {
      "constant": true,
      "inputs": [
        {
          "internalType": "string",
          "name": "",
          "type": "string"
        }
      ],
      "name": "reports",
      "outputs": [
        {
          "internalType": "uint256",
          "name": "id",
          "type": "uint256"
        },
        {
          "internalType": "string",
          "name": "name",
          "type": "string"
        },
        {
          "internalType": "string",
          "name": "report_hash",
          "type": "string"
        },
        {
          "internalType": "address",
          "name": "owner",
          "type": "address"
        }
      ],
      "payable": false,
      "stateMutability": "view",
      "type": "function"
    },
    {
      "constant": false,
      "inputs": [
        {
          "internalType": "string",
          "name": "_name",
          "type": "string"
        },
        {
          "internalType": "uint8",
          "name": "member",
          "type": "uint8"
        }
      ],
      "name": "register",
      "outputs": [
        {
          "internalType": "string",
          "name": "",
          "type": "string"
        },
        {
          "internalType": "string",
          "name": "",
          "type": "string"
        }
      ],
      "payable": false,
      "stateMutability": "nonpayable",
      "type": "function"
    },
    {
      "constant": true,
      "inputs": [
        {
          "internalType": "address",
          "name": "_user",
          "type": "address"
        }
      ],
      "name": "getProfile",
      "outputs": [
        {
          "internalType": "string",
          "name": "",
          "type": "string"
        },
        {
          "internalType": "string",
          "name": "",
          "type": "string"
        }
      ],
      "payable": false,
      "stateMutability": "view",
      "type": "function"
    },
    {
      "constant": false,
      "inputs": [
        {
          "internalType": "string",
          "name": "_name",
          "type": "string"
        },
        {
          "internalType": "string",
          "name": "_reporthash",
          "type": "string"
        }
      ],
      "name": "uploadCovidReport",
      "outputs": [],
      "payable": false,
      "stateMutability": "nonpayable",
      "type": "function"
    },
    {
      "constant": false,
      "inputs": [
        {
          "internalType": "string",
          "name": "_name",
          "type": "string"
        },
        {
          "internalType": "string",
          "name": "_reporthash",
          "type": "string"
        }
      ],
      "name": "uploadReport",
      "outputs": [],
      "payable": false,
      "stateMutability": "nonpayable",
      "type": "function"
    },
    {
      "constant": true,
      "inputs": [],
      "name": "getReps",
      "outputs": [
        {
          "components": [
            {
              "internalType": "uint256",
              "name": "id",
              "type": "uint256"
            },
            {
              "internalType": "string",
              "name": "name",
              "type": "string"
            },
            {
              "internalType": "string",
              "name": "report_hash",
              "type": "string"
            },
            {
              "internalType": "address",
              "name": "owner",
              "type": "address"
            },
            {
              "internalType": "address[]",
              "name": "doctors_assigned",
              "type": "address[]"
            }
          ],
          "internalType": "struct Healthblock.report[]",
          "name": "",
          "type": "tuple[]"
        }
      ],
      "payable": false,
      "stateMutability": "view",
      "type": "function"
    },
    {
      "constant": true,
      "inputs": [
        {
          "internalType": "address",
          "name": "_user",
          "type": "address"
        }
      ],
      "name": "getPatData",
      "outputs": [
        {
          "components": [
            {
              "internalType": "string",
              "name": "name",
              "type": "string"
            },
            {
              "internalType": "address",
              "name": "id",
              "type": "address"
            },
            {
              "internalType": "string[]",
              "name": "reports",
              "type": "string[]"
            },
            {
              "internalType": "string[]",
              "name": "pres_hashes",
              "type": "string[]"
            }
          ],
          "internalType": "struct Healthblock.patient",
          "name": "",
          "type": "tuple"
        }
      ],
      "payable": false,
      "stateMutability": "view",
      "type": "function"
    },
    {
      "constant": true,
      "inputs": [
        {
          "internalType": "address",
          "name": "_user",
          "type": "address"
        }
      ],
      "name": "getDocData",
      "outputs": [
        {
          "components": [
            {
              "internalType": "string",
              "name": "name",
              "type": "string"
            },
            {
              "internalType": "address",
              "name": "id",
              "type": "address"
            },
            {
              "internalType": "string[]",
              "name": "reports_hash",
              "type": "string[]"
            },
            {
              "internalType": "string[]",
              "name": "prescriptions",
              "type": "string[]"
            }
          ],
          "internalType": "struct Healthblock.doctor",
          "name": "",
          "type": "tuple"
        }
      ],
      "payable": false,
      "stateMutability": "view",
      "type": "function"
    },
    {
      "constant": true,
      "inputs": [],
      "name": "getReports",
      "outputs": [
        {
          "internalType": "string[]",
          "name": "",
          "type": "string[]"
        }
      ],
      "payable": false,
      "stateMutability": "view",
      "type": "function"
    },
    {
      "constant": false,
      "inputs": [
        {
          "internalType": "string",
          "name": "_hash",
          "type": "string"
        },
        {
          "internalType": "address",
          "name": "_docAddress",
          "type": "address"
        }
      ],
      "name": "grantAccess",
      "outputs": [
        {
          "internalType": "uint256",
          "name": "",
          "type": "uint256"
        }
      ],
      "payable": false,
      "stateMutability": "nonpayable",
      "type": "function"
    },
    {
      "constant": true,
      "inputs": [
        {
          "internalType": "address",
          "name": "_user",
          "type": "address"
        }
      ],
      "name": "getReportDoctor",
      "outputs": [
        {
          "internalType": "string[]",
          "name": "",
          "type": "string[]"
        }
      ],
      "payable": false,
      "stateMutability": "view",
      "type": "function"
    },
    {
      "constant": false,
      "inputs": [
        {
          "internalType": "string",
          "name": "_hash",
          "type": "string"
        },
        {
          "internalType": "address",
          "name": "_patient_address",
          "type": "address"
        },
        {
          "internalType": "address",
          "name": "_user",
          "type": "address"
        }
      ],
      "name": "uploadPres",
      "outputs": [],
      "payable": false,
      "stateMutability": "nonpayable",
      "type": "function"
    },
    {
      "constant": true,
      "inputs": [
        {
          "internalType": "address",
          "name": "_user",
          "type": "address"
        }
      ],
      "name": "getpres",
      "outputs": [
        {
          "internalType": "string[]",
          "name": "",
          "type": "string[]"
        }
      ],
      "payable": false,
      "stateMutability": "view",
      "type": "function"
    },
    {
      "constant": true,
      "inputs": [
        {
          "internalType": "address",
          "name": "_user",
          "type": "address"
        }
      ],
      "name": "getAllPres",
      "outputs": [
        {
          "internalType": "string[]",
          "name": "",
          "type": "string[]"
        }
      ],
      "payable": false,
      "stateMutability": "view",
      "type": "function"
    }
  ],
  "bytecode": "0x608060405260006001556000600255600060035560006004556040518060400160405280600b81526020017f4865616c7468626c6f636b000000000000000000000000000000000000000000815250600f908051906020019062000065929190620000ba565b503480156200007357600080fd5b50336000806101000a81548173ffffffffffffffffffffffffffffffffffffffff021916908373ffffffffffffffffffffffffffffffffffffffff16021790555062000169565b828054600181600116156101000203166002900490600052602060002090601f016020900481019282601f10620000fd57805160ff19168380011785556200012e565b828001600101855582156200012e579182015b828111156200012d57825182559160200191906001019062000110565b5b5090506200013d919062000141565b5090565b6200016691905b808211156200016257600081600090555060010162000148565b5090565b90565b61556680620001796000396000f3fe608060405234801561001057600080fd5b50600436106101da5760003560e01c80638cbe62d511610104578063ac576544116100a2578063c6f4461e11610071578063c6f4461e14610632578063eb3881b514610650578063ece2182a14610680578063f37c215e1461069e576101da565b8063ac57654414610595578063ba8fc9c9146105b3578063bacb5dbd146105e6578063c38f2f3014610616576101da565b8063998db271116100de578063998db271146104f8578063a3c86daf14610514578063a8fd0c7d14610532578063a9583c2214610564576101da565b80638cbe62d51461048e5780638cf397f1146104aa5780638da5cb5b146104da576101da565b806329aff5201161017c57806364cceaef1161014b57806364cceaef146103d957806374f6c0d21461040c578063767b79ed1461043f5780638381f58a14610470576101da565b806329aff520146103235780633c1686a9146103415780634129b1b014610374578063467f2cd8146103a6576101da565b80630c6f659f116101b85780630c6f659f1461025f5780630f53a4701461028f578063152d4f31146102c057806325995280146102f0576101da565b806306fdde03146101df5780630787bc27146101fd5780630869cfbc1461022e575b600080fd5b6101e76106ce565b6040516101f4919061511d565b60405180910390f35b61021760048036036102129190810190614a1e565b61076c565b604051610225929190615176565b60405180910390f35b61024860048036036102439190810190614a1e565b610848565b604051610256929190615176565b60405180910390f35b61027960048036036102749190810190614a1e565b610924565b6040516102869190615206565b60405180910390f35b6102a960048036036102a49190810190614a1e565b610c47565b6040516102b792919061513f565b60405180910390f35b6102da60048036036102d59190810190614a1e565b611697565b6040516102e791906151e4565b60405180910390f35b61030a60048036036103059190810190614c03565b6119ba565b60405161031a9493929190615243565b60405180910390f35b61032b611b3a565b6040516103389190615228565b60405180910390f35b61035b60048036036103569190810190614a47565b611b40565b60405161036b9493929190615243565b60405180910390f35b61038e60048036036103899190810190614a47565b611cd6565b60405161039d939291906151a6565b60405180910390f35b6103c060048036036103bb9190810190614c03565b611dee565b6040516103d09493929190615243565b60405180910390f35b6103f360048036036103ee9190810190614a47565b611f7b565b6040516104039493929190615243565b60405180910390f35b61042660048036036104219190810190614a1e565b612111565b6040516104369493929190615243565b60405180910390f35b61045960048036036104549190810190614baf565b612291565b60405161046792919061513f565b60405180910390f35b610478612a41565b6040516104859190615228565b60405180910390f35b6104a860048036036104a39190810190614b43565b612a47565b005b6104c460048036036104bf9190810190614a1e565b612dec565b6040516104d191906150d9565b60405180910390f35b6104e2612f17565b6040516104ef91906150be565b60405180910390f35b610512600480360361050d9190810190614b43565b612f3c565b005b61051c6131ad565b60405161052991906150d9565b60405180910390f35b61054c60048036036105479190810190614c03565b6132d6565b60405161055b939291906151a6565b60405180910390f35b61057e60048036036105799190810190614a1e565b6133d8565b60405161058c929190615176565b60405180910390f35b61059d6134b4565b6040516105aa9190615228565b60405180910390f35b6105cd60048036036105c89190810190614c03565b6134ba565b6040516105dd9493929190615243565b60405180910390f35b61060060048036036105fb9190810190614a1e565b61363a565b60405161060d91906150d9565b60405180910390f35b610630600480360361062b9190810190614adc565b613765565b005b61063a6139b7565b60405161064791906150fb565b60405180910390f35b61066a60048036036106659190810190614a1e565b613c48565b60405161067791906150d9565b60405180910390f35b610688613d73565b6040516106959190615228565b60405180910390f35b6106b860048036036106b39190810190614a88565b613d79565b6040516106c59190615228565b60405180910390f35b600f8054600181600116156101000203166002900480601f0160208091040260200160405190810160405280929190818152602001828054600181600116156101000203166002900480156107645780601f1061073957610100808354040283529160200191610764565b820191906000526020600020905b81548152906001019060200180831161074757829003601f168201915b505050505081565b6007602052806000526040600020600091509050806000018054600181600116156101000203166002900480601f0160208091040260200160405190810160405280929190818152602001828054600181600116156101000203166002900480156108185780601f106107ed57610100808354040283529160200191610818565b820191906000526020600020905b8154815290600101906020018083116107fb57829003601f168201915b5050505050908060010160009054906101000a900473ffffffffffffffffffffffffffffffffffffffff16905082565b6006602052806000526040600020600091509050806000018054600181600116156101000203166002900480601f0160208091040260200160405190810160405280929190818152602001828054600181600116156101000203166002900480156108f45780601f106108c9576101008083540402835291602001916108f4565b820191906000526020600020905b8154815290600101906020018083116108d757829003601f168201915b5050505050908060010160009054906101000a900473ffffffffffffffffffffffffffffffffffffffff16905082565b61092c614453565b600660008373ffffffffffffffffffffffffffffffffffffffff1673ffffffffffffffffffffffffffffffffffffffff168152602001908152602001600020604051806080016040529081600082018054600181600116156101000203166002900480601f016020809104026020016040519081016040528092919081815260200182805460018160011615610100020316600290048015610a0f5780601f106109e457610100808354040283529160200191610a0f565b820191906000526020600020905b8154815290600101906020018083116109f257829003601f168201915b505050505081526020016001820160009054906101000a900473ffffffffffffffffffffffffffffffffffffffff1673ffffffffffffffffffffffffffffffffffffffff1673ffffffffffffffffffffffffffffffffffffffff16815260200160028201805480602002602001604051908101604052809291908181526020016000905b82821015610b4f578382906000526020600020018054600181600116156101000203166002900480601f016020809104026020016040519081016040528092919081815260200182805460018160011615610100020316600290048015610b3b5780601f10610b1057610100808354040283529160200191610b3b565b820191906000526020600020905b815481529060010190602001808311610b1e57829003601f168201915b505050505081526020019060010190610a93565b50505050815260200160038201805480602002602001604051908101604052809291908181526020016000905b82821015610c38578382906000526020600020018054600181600116156101000203166002900480601f016020809104026020016040519081016040528092919081815260200182805460018160011615610100020316600290048015610c245780601f10610bf957610100808354040283529160200191610c24565b820191906000526020600020905b815481529060010190602001808311610c0757829003601f168201915b505050505081526020019060010190610b7c565b50505050815250509050919050565b606080610c52614453565b600660008573ffffffffffffffffffffffffffffffffffffffff1673ffffffffffffffffffffffffffffffffffffffff168152602001908152602001600020604051806080016040529081600082018054600181600116156101000203166002900480601f016020809104026020016040519081016040528092919081815260200182805460018160011615610100020316600290048015610d355780601f10610d0a57610100808354040283529160200191610d35565b820191906000526020600020905b815481529060010190602001808311610d1857829003601f168201915b505050505081526020016001820160009054906101000a900473ffffffffffffffffffffffffffffffffffffffff1673ffffffffffffffffffffffffffffffffffffffff1673ffffffffffffffffffffffffffffffffffffffff16815260200160028201805480602002602001604051908101604052809291908181526020016000905b82821015610e75578382906000526020600020018054600181600116156101000203166002900480601f016020809104026020016040519081016040528092919081815260200182805460018160011615610100020316600290048015610e615780601f10610e3657610100808354040283529160200191610e61565b820191906000526020600020905b815481529060010190602001808311610e4457829003601f168201915b505050505081526020019060010190610db9565b50505050815260200160038201805480602002602001604051908101604052809291908181526020016000905b82821015610f5e578382906000526020600020018054600181600116156101000203166002900480601f016020809104026020016040519081016040528092919081815260200182805460018160011615610100020316600290048015610f4a5780601f10610f1f57610100808354040283529160200191610f4a565b820191906000526020600020905b815481529060010190602001808311610f2d57829003601f168201915b505050505081526020019060010190610ea2565b50505050815250509050610f70614491565b600560008673ffffffffffffffffffffffffffffffffffffffff1673ffffffffffffffffffffffffffffffffffffffff168152602001908152602001600020604051806080016040529081600082018054600181600116156101000203166002900480601f0160208091040260200160405190810160405280929190818152602001828054600181600116156101000203166002900480156110535780601f1061102857610100808354040283529160200191611053565b820191906000526020600020905b81548152906001019060200180831161103657829003601f168201915b505050505081526020016001820160009054906101000a900473ffffffffffffffffffffffffffffffffffffffff1673ffffffffffffffffffffffffffffffffffffffff1673ffffffffffffffffffffffffffffffffffffffff16815260200160028201805480602002602001604051908101604052809291908181526020016000905b82821015611193578382906000526020600020018054600181600116156101000203166002900480601f01602080910402602001604051908101604052809291908181526020018280546001816001161561010002031660029004801561117f5780601f106111545761010080835404028352916020019161117f565b820191906000526020600020905b81548152906001019060200180831161116257829003601f168201915b5050505050815260200190600101906110d7565b50505050815260200160038201805480602002602001604051908101604052809291908181526020016000905b8282101561127c578382906000526020600020018054600181600116156101000203166002900480601f0160208091040260200160405190810160405280929190818152602001828054600181600116156101000203166002900480156112685780601f1061123d57610100808354040283529160200191611268565b820191906000526020600020905b81548152906001019060200180831161124b57829003601f168201915b5050505050815260200190600101906111c0565b5050505081525050905061128e6144cf565b600760008773ffffffffffffffffffffffffffffffffffffffff1673ffffffffffffffffffffffffffffffffffffffff168152602001908152602001600020604051806060016040529081600082018054600181600116156101000203166002900480601f0160208091040260200160405190810160405280929190818152602001828054600181600116156101000203166002900480156113715780601f1061134657610100808354040283529160200191611371565b820191906000526020600020905b81548152906001019060200180831161135457829003601f168201915b505050505081526020016001820160009054906101000a900473ffffffffffffffffffffffffffffffffffffffff1673ffffffffffffffffffffffffffffffffffffffff1673ffffffffffffffffffffffffffffffffffffffff16815260200160028201805480602002602001604051908101604052809291908181526020016000905b828210156114b1578382906000526020600020018054600181600116156101000203166002900480601f01602080910402602001604051908101604052809291908181526020018280546001816001161561010002031660029004801561149d5780601f106114725761010080835404028352916020019161149d565b820191906000526020600020905b81548152906001019060200180831161148057829003601f168201915b5050505050815260200190600101906113f5565b50505050815250509050600073ffffffffffffffffffffffffffffffffffffffff16836020015173ffffffffffffffffffffffffffffffffffffffff16111561153e5782600001518090506040518060400160405280600781526020017f70617469656e740000000000000000000000000000000000000000000000000081525094509450505050611692565b600073ffffffffffffffffffffffffffffffffffffffff16826020015173ffffffffffffffffffffffffffffffffffffffff1611156115c15781600001518090506040518060400160405280600681526020017f646f63746f72000000000000000000000000000000000000000000000000000081525094509450505050611692565b600073ffffffffffffffffffffffffffffffffffffffff16816020015173ffffffffffffffffffffffffffffffffffffffff1611156116445780600001518090506040518060400160405280600881526020017f70726f766964657200000000000000000000000000000000000000000000000081525094509450505050611692565b6040518060400160405280600181526020017f200000000000000000000000000000000000000000000000000000000000000081525060405180602001604052806000815250945094505050505b915091565b61169f614491565b600560008373ffffffffffffffffffffffffffffffffffffffff1673ffffffffffffffffffffffffffffffffffffffff168152602001908152602001600020604051806080016040529081600082018054600181600116156101000203166002900480601f0160208091040260200160405190810160405280929190818152602001828054600181600116156101000203166002900480156117825780601f1061175757610100808354040283529160200191611782565b820191906000526020600020905b81548152906001019060200180831161176557829003601f168201915b505050505081526020016001820160009054906101000a900473ffffffffffffffffffffffffffffffffffffffff1673ffffffffffffffffffffffffffffffffffffffff1673ffffffffffffffffffffffffffffffffffffffff16815260200160028201805480602002602001604051908101604052809291908181526020016000905b828210156118c2578382906000526020600020018054600181600116156101000203166002900480601f0160208091040260200160405190810160405280929190818152602001828054600181600116156101000203166002900480156118ae5780601f10611883576101008083540402835291602001916118ae565b820191906000526020600020905b81548152906001019060200180831161189157829003601f168201915b505050505081526020019060010190611806565b50505050815260200160038201805480602002602001604051908101604052809291908181526020016000905b828210156119ab578382906000526020600020018054600181600116156101000203166002900480601f0160208091040260200160405190810160405280929190818152602001828054600181600116156101000203166002900480156119975780601f1061196c57610100808354040283529160200191611997565b820191906000526020600020905b81548152906001019060200180831161197a57829003601f168201915b5050505050815260200190600101906118ef565b50505050815250509050919050565b600c602052806000526040600020600091509050806000015490806001018054600181600116156101000203166002900480601f016020809104026020016040519081016040528092919081815260200182805460018160011615610100020316600290048015611a6c5780601f10611a4157610100808354040283529160200191611a6c565b820191906000526020600020905b815481529060010190602001808311611a4f57829003601f168201915b505050505090806002018054600181600116156101000203166002900480601f016020809104026020016040519081016040528092919081815260200182805460018160011615610100020316600290048015611b0a5780601f10611adf57610100808354040283529160200191611b0a565b820191906000526020600020905b815481529060010190602001808311611aed57829003601f168201915b5050505050908060030160009054906101000a900473ffffffffffffffffffffffffffffffffffffffff16905084565b60025481565b600a81805160208101820180518482526020830160208501208183528095505050505050600091509050806000015490806001018054600181600116156101000203166002900480601f016020809104026020016040519081016040528092919081815260200182805460018160011615610100020316600290048015611c085780601f10611bdd57610100808354040283529160200191611c08565b820191906000526020600020905b815481529060010190602001808311611beb57829003601f168201915b505050505090806002018054600181600116156101000203166002900480601f016020809104026020016040519081016040528092919081815260200182805460018160011615610100020316600290048015611ca65780601f10611c7b57610100808354040283529160200191611ca6565b820191906000526020600020905b815481529060010190602001808311611c8957829003601f168201915b5050505050908060030160009054906101000a900473ffffffffffffffffffffffffffffffffffffffff16905084565b600881805160208101820180518482526020830160208501208183528095505050505050600091509050806000018054600181600116156101000203166002900480601f016020809104026020016040519081016040528092919081815260200182805460018160011615610100020316600290048015611d985780601f10611d6d57610100808354040283529160200191611d98565b820191906000526020600020905b815481529060010190602001808311611d7b57829003601f168201915b5050505050908060010160009054906101000a900473ffffffffffffffffffffffffffffffffffffffff16908060020160009054906101000a900473ffffffffffffffffffffffffffffffffffffffff16905083565b60108181548110611dfb57fe5b9060005260206000209060050201600091509050806000015490806001018054600181600116156101000203166002900480601f016020809104026020016040519081016040528092919081815260200182805460018160011615610100020316600290048015611ead5780601f10611e8257610100808354040283529160200191611ead565b820191906000526020600020905b815481529060010190602001808311611e9057829003601f168201915b505050505090806002018054600181600116156101000203166002900480601f016020809104026020016040519081016040528092919081815260200182805460018160011615610100020316600290048015611f4b5780601f10611f2057610100808354040283529160200191611f4b565b820191906000526020600020905b815481529060010190602001808311611f2e57829003601f168201915b5050505050908060030160009054906101000a900473ffffffffffffffffffffffffffffffffffffffff16905084565b600981805160208101820180518482526020830160208501208183528095505050505050600091509050806000015490806001018054600181600116156101000203166002900480601f0160208091040260200160405190810160405280929190818152602001828054600181600116156101000203166002900480156120435780601f1061201857610100808354040283529160200191612043565b820191906000526020600020905b81548152906001019060200180831161202657829003601f168201915b505050505090806002018054600181600116156101000203166002900480601f0160208091040260200160405190810160405280929190818152602001828054600181600116156101000203166002900480156120e15780601f106120b6576101008083540402835291602001916120e1565b820191906000526020600020905b8154815290600101906020018083116120c457829003601f168201915b5050505050908060030160009054906101000a900473ffffffffffffffffffffffffffffffffffffffff16905084565b600d602052806000526040600020600091509050806000015490806001018054600181600116156101000203166002900480601f0160208091040260200160405190810160405280929190818152602001828054600181600116156101000203166002900480156121c35780601f10612198576101008083540402835291602001916121c3565b820191906000526020600020905b8154815290600101906020018083116121a657829003601f168201915b505050505090806002018054600181600116156101000203166002900480601f0160208091040260200160405190810160405280929190818152602001828054600181600116156101000203166002900480156122615780601f1061223657610100808354040283529160200191612261565b820191906000526020600020905b81548152906001019060200180831161224457829003601f168201915b5050505050908060030160009054906101000a900473ffffffffffffffffffffffffffffffffffffffff16905084565b60608060008360ff161415612768576122a8614453565b600660003373ffffffffffffffffffffffffffffffffffffffff1673ffffffffffffffffffffffffffffffffffffffff168152602001908152602001600020604051806080016040529081600082018054600181600116156101000203166002900480601f01602080910402602001604051908101604052809291908181526020018280546001816001161561010002031660029004801561238b5780601f106123605761010080835404028352916020019161238b565b820191906000526020600020905b81548152906001019060200180831161236e57829003601f168201915b505050505081526020016001820160009054906101000a900473ffffffffffffffffffffffffffffffffffffffff1673ffffffffffffffffffffffffffffffffffffffff1673ffffffffffffffffffffffffffffffffffffffff16815260200160028201805480602002602001604051908101604052809291908181526020016000905b828210156124cb578382906000526020600020018054600181600116156101000203166002900480601f0160208091040260200160405190810160405280929190818152602001828054600181600116156101000203166002900480156124b75780601f1061248c576101008083540402835291602001916124b7565b820191906000526020600020905b81548152906001019060200180831161249a57829003601f168201915b50505050508152602001906001019061240f565b50505050815260200160038201805480602002602001604051908101604052809291908181526020016000905b828210156125b4578382906000526020600020018054600181600116156101000203166002900480601f0160208091040260200160405190810160405280929190818152602001828054600181600116156101000203166002900480156125a05780601f10612575576101008083540402835291602001916125a0565b820191906000526020600020905b81548152906001019060200180831161258357829003601f168201915b5050505050815260200190600101906124f8565b50505050815250509050600073ffffffffffffffffffffffffffffffffffffffff16816020015173ffffffffffffffffffffffffffffffffffffffff1611156125fc57600080fd5b612604614453565b85816000018190525033816020019073ffffffffffffffffffffffffffffffffffffffff16908173ffffffffffffffffffffffffffffffffffffffff168152505080600660003373ffffffffffffffffffffffffffffffffffffffff1673ffffffffffffffffffffffffffffffffffffffff16815260200190815260200160002060008201518160000190805190602001906126a1929190614506565b5060208201518160010160006101000a81548173ffffffffffffffffffffffffffffffffffffffff021916908373ffffffffffffffffffffffffffffffffffffffff1602179055506040820151816002019080519060200190612705929190614586565b506060820151816003019080519060200190612722929190614586565b50905050856040518060400160405280600781526020017f70617469656e7400000000000000000000000000000000000000000000000000815250935093505050612a3a565b60018360ff1614156128df5761277c614491565b84816000018190525033816020019073ffffffffffffffffffffffffffffffffffffffff16908173ffffffffffffffffffffffffffffffffffffffff168152505080600560003373ffffffffffffffffffffffffffffffffffffffff1673ffffffffffffffffffffffffffffffffffffffff1681526020019081526020016000206000820151816000019080519060200190612819929190614506565b5060208201518160010160006101000a81548173ffffffffffffffffffffffffffffffffffffffff021916908373ffffffffffffffffffffffffffffffffffffffff160217905550604082015181600201908051906020019061287d929190614586565b50606082015181600301908051906020019061289a929190614586565b50905050846040518060400160405280600681526020017f646f63746f7200000000000000000000000000000000000000000000000000008152509250925050612a3a565b60028360ff161415612a39576128f36144cf565b84816000018190525033816020019073ffffffffffffffffffffffffffffffffffffffff16908173ffffffffffffffffffffffffffffffffffffffff168152505080600760003373ffffffffffffffffffffffffffffffffffffffff1673ffffffffffffffffffffffffffffffffffffffff1681526020019081526020016000206000820151816000019080519060200190612990929190614506565b5060208201518160010160006101000a81548173ffffffffffffffffffffffffffffffffffffffff021916908373ffffffffffffffffffffffffffffffffffffffff16021790555060408201518160020190805190602001906129f4929190614586565b50905050846040518060400160405280600881526020017f70726f76696465720000000000000000000000000000000000000000000000008152509250925050612a3a565b5b9250929050565b60015481565b612a4f6145e6565b60025481600001818152505082816020018190525033816060019073ffffffffffffffffffffffffffffffffffffffff16908173ffffffffffffffffffffffffffffffffffffffff168152505081816040018190525080600983604051612ab691906150a7565b9081526020016040518091039020600082015181600001556020820151816001019080519060200190612aea929190614506565b506040820151816002019080519060200190612b07929190614506565b5060608201518160030160006101000a81548173ffffffffffffffffffffffffffffffffffffffff021916908373ffffffffffffffffffffffffffffffffffffffff1602179055506080820151816004019080519060200190612b6b92919061462b565b5090505060108190806001815401808255809150509060018203906000526020600020906005020160009091929091909150600082015181600001556020820151816001019080519060200190612bc3929190614506565b506040820151816002019080519060200190612be0929190614506565b5060608201518160030160006101000a81548173ffffffffffffffffffffffffffffffffffffffff021916908373ffffffffffffffffffffffffffffffffffffffff1602179055506080820151816004019080519060200190612c4492919061462b565b50505050600660003373ffffffffffffffffffffffffffffffffffffffff1673ffffffffffffffffffffffffffffffffffffffff168152602001908152602001600020600201829080600181540180825580915050906001820390600052602060002001600090919290919091509080519060200190612cc59291906146b5565b5050600982604051612cd791906150a7565b9081526020016040518091039020600c600060025481526020019081526020016000206000820154816000015560018201816001019080546001816001161561010002031660029004612d2b929190614735565b5060028201816002019080546001816001161561010002031660029004612d53929190614735565b506003820160009054906101000a900473ffffffffffffffffffffffffffffffffffffffff168160030160006101000a81548173ffffffffffffffffffffffffffffffffffffffff021916908373ffffffffffffffffffffffffffffffffffffffff1602179055506004820181600401908054612dd19291906147bc565b50905050600260008154809291906001019190505550505050565b6060600560008373ffffffffffffffffffffffffffffffffffffffff1673ffffffffffffffffffffffffffffffffffffffff168152602001908152602001600020600201805480602002602001604051908101604052809291908181526020016000905b82821015612f0c578382906000526020600020018054600181600116156101000203166002900480601f016020809104026020016040519081016040528092919081815260200182805460018160011615610100020316600290048015612ef85780601f10612ecd57610100808354040283529160200191612ef8565b820191906000526020600020905b815481529060010190602001808311612edb57829003601f168201915b505050505081526020019060010190612e50565b505050509050919050565b6000809054906101000a900473ffffffffffffffffffffffffffffffffffffffff1681565b604051806080016040528060035481526020018381526020018281526020013373ffffffffffffffffffffffffffffffffffffffff16815250600a82604051612f8591906150a7565b9081526020016040518091039020600082015181600001556020820151816001019080519060200190612fb9929190614506565b506040820151816002019080519060200190612fd6929190614506565b5060608201518160030160006101000a81548173ffffffffffffffffffffffffffffffffffffffff021916908373ffffffffffffffffffffffffffffffffffffffff160217905550905050600760003373ffffffffffffffffffffffffffffffffffffffff1673ffffffffffffffffffffffffffffffffffffffff16815260200190815260200160002060020181908060018154018082558091505090600182039060005260206000200160009091929091909150908051906020019061309e9291906146b5565b5050600a816040516130b091906150a7565b9081526020016040518091039020600b600060035481526020019081526020016000206000820154816000015560018201816001019080546001816001161561010002031660029004613104929190614735565b506002820181600201908054600181600116156101000203166002900461312c929190614735565b506003820160009054906101000a900473ffffffffffffffffffffffffffffffffffffffff168160030160006101000a81548173ffffffffffffffffffffffffffffffffffffffff021916908373ffffffffffffffffffffffffffffffffffffffff1602179055509050506003600081548092919060010191905055505050565b6060600660003373ffffffffffffffffffffffffffffffffffffffff1673ffffffffffffffffffffffffffffffffffffffff168152602001908152602001600020600201805480602002602001604051908101604052809291908181526020016000905b828210156132cd578382906000526020600020018054600181600116156101000203166002900480601f0160208091040260200160405190810160405280929190818152602001828054600181600116156101000203166002900480156132b95780601f1061328e576101008083540402835291602001916132b9565b820191906000526020600020905b81548152906001019060200180831161329c57829003601f168201915b505050505081526020019060010190613211565b50505050905090565b600e602052806000526040600020600091509050806000018054600181600116156101000203166002900480601f0160208091040260200160405190810160405280929190818152602001828054600181600116156101000203166002900480156133825780601f1061335757610100808354040283529160200191613382565b820191906000526020600020905b81548152906001019060200180831161336557829003601f168201915b5050505050908060010160009054906101000a900473ffffffffffffffffffffffffffffffffffffffff16908060020160009054906101000a900473ffffffffffffffffffffffffffffffffffffffff16905083565b6005602052806000526040600020600091509050806000018054600181600116156101000203166002900480601f0160208091040260200160405190810160405280929190818152602001828054600181600116156101000203166002900480156134845780601f1061345957610100808354040283529160200191613484565b820191906000526020600020905b81548152906001019060200180831161346757829003601f168201915b5050505050908060010160009054906101000a900473ffffffffffffffffffffffffffffffffffffffff16905082565b60035481565b600b602052806000526040600020600091509050806000015490806001018054600181600116156101000203166002900480601f01602080910402602001604051908101604052809291908181526020018280546001816001161561010002031660029004801561356c5780601f106135415761010080835404028352916020019161356c565b820191906000526020600020905b81548152906001019060200180831161354f57829003601f168201915b505050505090806002018054600181600116156101000203166002900480601f01602080910402602001604051908101604052809291908181526020018280546001816001161561010002031660029004801561360a5780601f106135df5761010080835404028352916020019161360a565b820191906000526020600020905b8154815290600101906020018083116135ed57829003601f168201915b5050505050908060030160009054906101000a900473ffffffffffffffffffffffffffffffffffffffff16905084565b6060600560008373ffffffffffffffffffffffffffffffffffffffff1673ffffffffffffffffffffffffffffffffffffffff168152602001908152602001600020600301805480602002602001604051908101604052809291908181526020016000905b8282101561375a578382906000526020600020018054600181600116156101000203166002900480601f0160208091040260200160405190810160405280929190818152602001828054600181600116156101000203166002900480156137465780601f1061371b57610100808354040283529160200191613746565b820191906000526020600020905b81548152906001019060200180831161372957829003601f168201915b50505050508152602001906001019061369e565b505050509050919050565b61376d61480e565b81816020019073ffffffffffffffffffffffffffffffffffffffff16908173ffffffffffffffffffffffffffffffffffffffff168152505082816040019073ffffffffffffffffffffffffffffffffffffffff16908173ffffffffffffffffffffffffffffffffffffffff1681525050838160000181905250806008856040516137f791906150a7565b90815260200160405180910390206000820151816000019080519060200190613821929190614506565b5060208201518160010160006101000a81548173ffffffffffffffffffffffffffffffffffffffff021916908373ffffffffffffffffffffffffffffffffffffffff16021790555060408201518160020160006101000a81548173ffffffffffffffffffffffffffffffffffffffff021916908373ffffffffffffffffffffffffffffffffffffffff160217905550905050600560008373ffffffffffffffffffffffffffffffffffffffff1673ffffffffffffffffffffffffffffffffffffffff1681526020019081526020016000206003018490806001815401808255809150509060018203906000526020600020016000909192909190915090805190602001906139309291906146b5565b5050600660008473ffffffffffffffffffffffffffffffffffffffff1673ffffffffffffffffffffffffffffffffffffffff1681526020019081526020016000206003018490806001815401808255809150509060018203906000526020600020016000909192909190915090805190602001906139af9291906146b5565b505050505050565b60606010805480602002602001604051908101604052809291908181526020016000905b82821015613c3f57838290600052602060002090600502016040518060a001604052908160008201548152602001600182018054600181600116156101000203166002900480601f016020809104026020016040519081016040528092919081815260200182805460018160011615610100020316600290048015613aa15780601f10613a7657610100808354040283529160200191613aa1565b820191906000526020600020905b815481529060010190602001808311613a8457829003601f168201915b50505050508152602001600282018054600181600116156101000203166002900480601f016020809104026020016040519081016040528092919081815260200182805460018160011615610100020316600290048015613b435780601f10613b1857610100808354040283529160200191613b43565b820191906000526020600020905b815481529060010190602001808311613b2657829003601f168201915b505050505081526020016003820160009054906101000a900473ffffffffffffffffffffffffffffffffffffffff1673ffffffffffffffffffffffffffffffffffffffff1673ffffffffffffffffffffffffffffffffffffffff16815260200160048201805480602002602001604051908101604052809291908181526020018280548015613c2757602002820191906000526020600020905b8160009054906101000a900473ffffffffffffffffffffffffffffffffffffffff1673ffffffffffffffffffffffffffffffffffffffff1681526020019060010190808311613bdd575b505050505081525050815260200190600101906139db565b50505050905090565b6060600660008373ffffffffffffffffffffffffffffffffffffffff1673ffffffffffffffffffffffffffffffffffffffff168152602001908152602001600020600301805480602002602001604051908101604052809291908181526020016000905b82821015613d68578382906000526020600020018054600181600116156101000203166002900480601f016020809104026020016040519081016040528092919081815260200182805460018160011615610100020316600290048015613d545780601f10613d2957610100808354040283529160200191613d54565b820191906000526020600020905b815481529060010190602001808311613d3757829003601f168201915b505050505081526020019060010190613cac565b505050509050919050565b60045481565b6000613d83614491565b600560008473ffffffffffffffffffffffffffffffffffffffff1673ffffffffffffffffffffffffffffffffffffffff168152602001908152602001600020604051806080016040529081600082018054600181600116156101000203166002900480601f016020809104026020016040519081016040528092919081815260200182805460018160011615610100020316600290048015613e665780601f10613e3b57610100808354040283529160200191613e66565b820191906000526020600020905b815481529060010190602001808311613e4957829003601f168201915b505050505081526020016001820160009054906101000a900473ffffffffffffffffffffffffffffffffffffffff1673ffffffffffffffffffffffffffffffffffffffff1673ffffffffffffffffffffffffffffffffffffffff16815260200160028201805480602002602001604051908101604052809291908181526020016000905b82821015613fa6578382906000526020600020018054600181600116156101000203166002900480601f016020809104026020016040519081016040528092919081815260200182805460018160011615610100020316600290048015613f925780601f10613f6757610100808354040283529160200191613f92565b820191906000526020600020905b815481529060010190602001808311613f7557829003601f168201915b505050505081526020019060010190613eea565b50505050815260200160038201805480602002602001604051908101604052809291908181526020016000905b8282101561408f578382906000526020600020018054600181600116156101000203166002900480601f01602080910402602001604051908101604052809291908181526020018280546001816001161561010002031660029004801561407b5780601f106140505761010080835404028352916020019161407b565b820191906000526020600020905b81548152906001019060200180831161405e57829003601f168201915b505050505081526020019060010190613fd3565b505050508152505090506140a16145e6565b6009856040516140b191906150a7565b90815260200160405180910390206040518060a001604052908160008201548152602001600182018054600181600116156101000203166002900480601f01602080910402602001604051908101604052809291908181526020018280546001816001161561010002031660029004801561416d5780601f106141425761010080835404028352916020019161416d565b820191906000526020600020905b81548152906001019060200180831161415057829003601f168201915b50505050508152602001600282018054600181600116156101000203166002900480601f01602080910402602001604051908101604052809291908181526020018280546001816001161561010002031660029004801561420f5780601f106141e45761010080835404028352916020019161420f565b820191906000526020600020905b8154815290600101906020018083116141f257829003601f168201915b505050505081526020016003820160009054906101000a900473ffffffffffffffffffffffffffffffffffffffff1673ffffffffffffffffffffffffffffffffffffffff1673ffffffffffffffffffffffffffffffffffffffff168152602001600482018054806020026020016040519081016040528092919081815260200182805480156142f357602002820191906000526020600020905b8160009054906101000a900473ffffffffffffffffffffffffffffffffffffffff1673ffffffffffffffffffffffffffffffffffffffff16815260200190600101908083116142a9575b5050505050815250509050600073ffffffffffffffffffffffffffffffffffffffff16826020015173ffffffffffffffffffffffffffffffffffffffff1611156144465760098560405161434791906150a7565b90815260200160405180910390206004018490806001815401808255809150509060018203906000526020600020016000909192909190916101000a81548173ffffffffffffffffffffffffffffffffffffffff021916908373ffffffffffffffffffffffffffffffffffffffff16021790555050600560008573ffffffffffffffffffffffffffffffffffffffff1673ffffffffffffffffffffffffffffffffffffffff1681526020019081526020016000206002018590806001815401808255809150509060018203906000526020600020016000909192909190915090805190602001906144399291906146b5565b505060019250505061444d565b6000925050505b92915050565b604051806080016040528060608152602001600073ffffffffffffffffffffffffffffffffffffffff16815260200160608152602001606081525090565b604051806080016040528060608152602001600073ffffffffffffffffffffffffffffffffffffffff16815260200160608152602001606081525090565b604051806060016040528060608152602001600073ffffffffffffffffffffffffffffffffffffffff168152602001606081525090565b828054600181600116156101000203166002900490600052602060002090601f016020900481019282601f1061454757805160ff1916838001178555614575565b82800160010185558215614575579182015b82811115614574578251825591602001919060010190614559565b5b509050614582919061485b565b5090565b8280548282559060005260206000209081019282156145d5579160200282015b828111156145d45782518290805190602001906145c4929190614506565b50916020019190600101906145a6565b5b5090506145e29190614880565b5090565b6040518060a00160405280600081526020016060815260200160608152602001600073ffffffffffffffffffffffffffffffffffffffff168152602001606081525090565b8280548282559060005260206000209081019282156146a4579160200282015b828111156146a35782518260006101000a81548173ffffffffffffffffffffffffffffffffffffffff021916908373ffffffffffffffffffffffffffffffffffffffff1602179055509160200191906001019061464b565b5b5090506146b191906148ac565b5090565b828054600181600116156101000203166002900490600052602060002090601f016020900481019282601f106146f657805160ff1916838001178555614724565b82800160010185558215614724579182015b82811115614723578251825591602001919060010190614708565b5b509050614731919061485b565b5090565b828054600181600116156101000203166002900490600052602060002090601f016020900481019282601f1061476e57805485556147ab565b828001600101855582156147ab57600052602060002091601f016020900482015b828111156147aa57825482559160010191906001019061478f565b5b5090506147b8919061485b565b5090565b8280548282559060005260206000209081019282156147fd5760005260206000209182015b828111156147fc5782548255916001019190600101906147e1565b5b50905061480a91906148ac565b5090565b604051806060016040528060608152602001600073ffffffffffffffffffffffffffffffffffffffff168152602001600073ffffffffffffffffffffffffffffffffffffffff1681525090565b61487d91905b80821115614879576000816000905550600101614861565b5090565b90565b6148a991905b808211156148a5576000818161489c91906148ef565b50600101614886565b5090565b90565b6148ec91905b808211156148e857600081816101000a81549073ffffffffffffffffffffffffffffffffffffffff0219169055506001016148b2565b5090565b90565b50805460018160011615610100020316600290046000825580601f106149155750614934565b601f016020900490600052602060002090810190614933919061485b565b5b50565b600081359050614946816154de565b92915050565b600082601f83011261495d57600080fd5b813561497061496b826152c3565b615296565b9150808252602083016020830185838301111561498c57600080fd5b61499783828461548b565b50505092915050565b600082601f8301126149b157600080fd5b81356149c46149bf826152ef565b615296565b915080825260208301602083018583830111156149e057600080fd5b6149eb83828461548b565b50505092915050565b600081359050614a03816154f5565b92915050565b600081359050614a188161550c565b92915050565b600060208284031215614a3057600080fd5b6000614a3e84828501614937565b91505092915050565b600060208284031215614a5957600080fd5b600082013567ffffffffffffffff811115614a7357600080fd5b614a7f8482850161494c565b91505092915050565b60008060408385031215614a9b57600080fd5b600083013567ffffffffffffffff811115614ab557600080fd5b614ac1858286016149a0565b9250506020614ad285828601614937565b9150509250929050565b600080600060608486031215614af157600080fd5b600084013567ffffffffffffffff811115614b0b57600080fd5b614b17868287016149a0565b9350506020614b2886828701614937565b9250506040614b3986828701614937565b9150509250925092565b60008060408385031215614b5657600080fd5b600083013567ffffffffffffffff811115614b7057600080fd5b614b7c858286016149a0565b925050602083013567ffffffffffffffff811115614b9957600080fd5b614ba5858286016149a0565b9150509250929050565b60008060408385031215614bc257600080fd5b600083013567ffffffffffffffff811115614bdc57600080fd5b614be8858286016149a0565b9250506020614bf985828601614a09565b9150509250929050565b600060208284031215614c1557600080fd5b6000614c23848285016149f4565b91505092915050565b6000614c388383614c6c565b60208301905092915050565b6000614c508383614eb1565b905092915050565b6000614c648383615005565b905092915050565b614c7581615442565b82525050565b614c8481615442565b82525050565b6000614c958261535b565b614c9f81856153d1565b9350614caa8361531b565b8060005b83811015614cdb578151614cc28882614c2c565b9750614ccd8361539d565b925050600181019050614cae565b5085935050505092915050565b6000614cf382615371565b614cfd81856153f3565b935083602082028501614d0f8561533b565b8060005b85811015614d4b5784840389528151614d2c8582614c44565b9450614d37836153b7565b925060208a01995050600181019050614d13565b50829750879550505050505092915050565b6000614d6882615366565b614d7281856153e2565b935083602082028501614d848561532b565b8060005b85811015614dc05784840389528151614da18582614c44565b9450614dac836153aa565b925060208a01995050600181019050614d88565b50829750879550505050505092915050565b6000614ddd8261537c565b614de78185615404565b935083602082028501614df98561534b565b8060005b85811015614e355784840389528151614e168582614c58565b9450614e21836153c4565b925060208a01995050600181019050614dfd565b50829750879550505050505092915050565b6000614e5282615392565b614e5c8185615426565b9350614e6c81856020860161549a565b614e75816154cd565b840191505092915050565b6000614e8b82615392565b614e958185615437565b9350614ea581856020860161549a565b80840191505092915050565b6000614ebc82615387565b614ec68185615415565b9350614ed681856020860161549a565b614edf816154cd565b840191505092915050565b6000614ef582615387565b614eff8185615426565b9350614f0f81856020860161549a565b614f18816154cd565b840191505092915050565b60006080830160008301518482036000860152614f408282614eb1565b9150506020830151614f556020860182614c6c565b5060408301518482036040860152614f6d8282614d5d565b91505060608301518482036060860152614f878282614d5d565b9150508091505092915050565b60006080830160008301518482036000860152614fb18282614eb1565b9150506020830151614fc66020860182614c6c565b5060408301518482036040860152614fde8282614d5d565b91505060608301518482036060860152614ff88282614d5d565b9150508091505092915050565b600060a08301600083015161501d6000860182615089565b50602083015184820360208601526150358282614eb1565b9150506040830151848203604086015261504f8282614eb1565b91505060608301516150646060860182614c6c565b506080830151848203608086015261507c8282614c8a565b9150508091505092915050565b61509281615474565b82525050565b6150a181615474565b82525050565b60006150b38284614e80565b915081905092915050565b60006020820190506150d36000830184614c7b565b92915050565b600060208201905081810360008301526150f38184614ce8565b905092915050565b600060208201905081810360008301526151158184614dd2565b905092915050565b600060208201905081810360008301526151378184614eea565b905092915050565b600060408201905081810360008301526151598185614e47565b9050818103602083015261516d8184614e47565b90509392505050565b600060408201905081810360008301526151908185614eea565b905061519f6020830184614c7b565b9392505050565b600060608201905081810360008301526151c08186614eea565b90506151cf6020830185614c7b565b6151dc6040830184614c7b565b949350505050565b600060208201905081810360008301526151fe8184614f23565b905092915050565b600060208201905081810360008301526152208184614f94565b905092915050565b600060208201905061523d6000830184615098565b92915050565b60006080820190506152586000830187615098565b818103602083015261526a8186614eea565b9050818103604083015261527e8185614eea565b905061528d6060830184614c7b565b95945050505050565b6000604051905081810181811067ffffffffffffffff821117156152b957600080fd5b8060405250919050565b600067ffffffffffffffff8211156152da57600080fd5b601f19601f8301169050602081019050919050565b600067ffffffffffffffff82111561530657600080fd5b601f19601f8301169050602081019050919050565b6000819050602082019050919050565b6000819050602082019050919050565b6000819050602082019050919050565b6000819050602082019050919050565b600081519050919050565b600081519050919050565b600081519050919050565b600081519050919050565b600081519050919050565b600081519050919050565b6000602082019050919050565b6000602082019050919050565b6000602082019050919050565b6000602082019050919050565b600082825260208201905092915050565b600082825260208201905092915050565b600082825260208201905092915050565b600082825260208201905092915050565b600082825260208201905092915050565b600082825260208201905092915050565b600081905092915050565b600061544d82615454565b9050919050565b600073ffffffffffffffffffffffffffffffffffffffff82169050919050565b6000819050919050565b600060ff82169050919050565b82818337600083830152505050565b60005b838110156154b857808201518184015260208101905061549d565b838111156154c7576000848401525b50505050565b6000601f19601f8301169050919050565b6154e781615442565b81146154f257600080fd5b50565b6154fe81615474565b811461550957600080fd5b50565b6155158161547e565b811461552057600080fd5b5056fea365627a7a72315820c2053396f5de1b327b34f243775afda75fe9b4ff0c6d583938c84170bcc9f1486c6578706572696d656e74616cf564736f6c63430005100040",
  "source": "pragma solidity ^0.5.16;\r\npragma experimental ABIEncoderV2;\r\n\r\ncontract Healthblock {\r\n  address public owner;\r\n  uint public number=0;\r\n  uint public report_count=0;\r\n  uint public provider_report=0;\r\n  uint public presCount=0;\r\n  mapping (address => doctor)  public doctors;\r\n  mapping (address => patient) public patients;\r\n  mapping (address =>provider) public providers;\r\n  mapping (string => prescription) public presmap;\r\n  mapping (string => report) public reports; \r\n  mapping (string => covid_report) public covid_reports;\r\n  mapping (uint => covid_report) public covid_report_list;\r\n  mapping (uint=>report) public reportlist;\r\n  mapping (address =>report) public doctoReport;\r\n  mapping (uint=>prescription) public presList;\r\n  string public name = \"Healthblock\";\r\n  struct report {\r\n      uint id;\r\n      string name;  \r\n      string report_hash;\r\n      address owner;\r\n      address[] doctors_assigned;\r\n    }\r\n    struct covid_report{\r\n      uint id;\r\n      string name;\r\n      string report_hash;\r\n      address owner;\r\n    }\r\n  struct patient {\r\n      string name;\r\n      address id; \r\n      string[] reports;\r\n      string [] pres_hashes;\r\n  }\r\n  struct provider{\r\n    string name;\r\n    address id;\r\n    string[] reports;\r\n  }\r\n  struct doctor {\r\n      string name;\r\n      address id;\r\n      string[] reports_hash;\r\n      string [] prescriptions;\r\n  }\r\n  struct prescription{\r\n    string pres_hash;\r\n    address owner;\r\n    address patient_to; \r\n  }\r\n  constructor() public {\r\n    owner = msg.sender;\r\n  }\r\n  report[] public Reports;  \r\n  function register(string memory _name, uint8 member) public returns(string memory,string memory){\r\n    if (member==0){\r\n        patient memory p = patients[msg.sender];\r\n        require(!(p.id > address(0x0)));\r\n        patient memory pat;\r\n        pat.name=_name;\r\n        pat.id=msg.sender;\r\n        patients[msg.sender] = pat;  \r\n        return (_name,\"patient\");\r\n        }\r\n    else if (member==1){\r\n      doctor memory doc;\r\n      doc.name=_name;\r\n      doc.id=msg.sender;\r\n      doctors[msg.sender] = doc;\r\n      return (_name,\"doctor\");\r\n      }\r\n    else if (member==2){\r\n      provider memory pro;\r\n      pro.name=_name;\r\n      pro.id=msg.sender;\r\n      providers[msg.sender]=pro;\r\n      return (_name,\"provider\");\r\n      }\r\n    }   \r\n  function getProfile(address _user) public view  returns(string memory, string memory){\r\n      patient memory p = patients[_user];\r\n      doctor memory d = doctors[_user];\r\n      provider memory pro =providers[_user];\r\n      if(p.id > address(0x0))\r\n          return (p.name, 'patient');\r\n      else if(d.id > address(0x0))\r\n          return (d.name, 'doctor');\r\n      else if (pro.id> address(0x0))\r\n          return (pro.name,'provider');\r\n      else\r\n          return (' ', '');\r\n  }\r\n  function uploadCovidReport(string memory _name,string memory _reporthash)public{\r\n    covid_reports[_reporthash]=covid_report({id:provider_report,name:_name,report_hash:_reporthash,owner:msg.sender});\r\n    providers[msg.sender].reports.push(_reporthash);\r\n    covid_report_list[provider_report]=covid_reports[_reporthash];\r\n    provider_report++;\r\n  }\r\n  function uploadReport(string memory _name,string memory _reporthash) public {\r\n    report memory rep;\r\n    rep.id=report_count;\r\n    rep.name=_name;\r\n    rep.owner=msg.sender;\r\n    rep.report_hash=_reporthash;\r\n    reports[_reporthash ]=rep;\r\n    Reports.push(rep);\r\n    patients[msg.sender].reports.push(_reporthash);\r\n    reportlist[report_count]=reports[_reporthash];\r\n    report_count++;\r\n  }\r\n  function getReps() public view returns (report[] memory){\r\n    return(Reports);\r\n  }\r\n  function getPatData(address _user) public view returns(patient memory){\r\n    return(patients[_user]);\r\n  }\r\n  function getDocData(address _user) public view returns(doctor memory){\r\n    return(doctors[_user]);\r\n  }\r\n  function getReports()  public view   returns (string[] memory){\r\n    return patients[msg.sender].reports;\r\n  }\r\n  function grantAccess(string memory _hash,address  _docAddress) public returns(uint){\r\n    doctor memory d = doctors[_docAddress];\r\n    report memory rep= reports[_hash];\r\n    if (d.id > address(0x0)){\r\n      reports[_hash].doctors_assigned.push(_docAddress);\r\n      doctors[_docAddress].reports_hash.push(_hash);\r\n      return(1);\r\n    }\r\n    else{\r\n      return(0);\r\n    }\r\n  }\r\n  function getReportDoctor(address _user) public view returns(string[] memory){\r\n    return doctors[_user].reports_hash;\r\n  }\r\n  function uploadPres(string memory _hash,address _patient_address,address _user) public{\r\n    prescription memory pres;\r\n    pres.owner=_user;\r\n    pres.patient_to=_patient_address;\r\n    pres.pres_hash=_hash;\r\n    presmap[_hash]=pres;\r\n    doctors[_user].prescriptions.push(_hash);\r\n    patients[_patient_address].pres_hashes.push(_hash);\r\n  }\r\n  function getpres(address _user)public view returns (string[] memory){\r\n    return (patients[_user].pres_hashes);\r\n  }\r\n  function getAllPres(address _user) public view returns(string[] memory){\r\n    return(doctors[_user].prescriptions);\r\n  }\r\n}",
  "sourcePath": "C:/Users/Aniket/healthblock/healthblock/src/contracts/Healthblock.sol",
  "compiler": {
    "name": "solc",
    "version": "0.5.16+commit.9c3226ce.Emscripten.clang"
  },
  "schemaVersion": "3.3.4",
  "updatedAt": "2021-04-05T06:25:35.715Z",
  "networkType": "ethereum",
  "devdoc": {
    "methods": {}
  },
  "userdoc": {
    "methods": {}
  }
}