{
  "contractName": "Healthblock",
  "abi": [
    {
      "inputs": [],
      "payable": false,
      "stateMutability": "nonpayable",
      "type": "constructor"
    },
    {
      "constant": true,
      "inputs": [
        {
          "internalType": "uint256",
          "name": "",
          "type": "uint256"
        }
      ],
      "name": "covid_report_list",
      "outputs": [
        {
          "internalType": "uint256",
          "name": "id",
          "type": "uint256"
        },
        {
          "internalType": "string",
          "name": "name",
          "type": "string"
        },
        {
          "internalType": "string",
          "name": "report_hash",
          "type": "string"
        },
        {
          "internalType": "address",
          "name": "owner",
          "type": "address"
        }
      ],
      "payable": false,
      "stateMutability": "view",
      "type": "function"
    },
    {
      "constant": true,
      "inputs": [
        {
          "internalType": "string",
          "name": "",
          "type": "string"
        }
      ],
      "name": "covid_reports",
      "outputs": [
        {
          "internalType": "uint256",
          "name": "id",
          "type": "uint256"
        },
        {
          "internalType": "string",
          "name": "name",
          "type": "string"
        },
        {
          "internalType": "string",
          "name": "report_hash",
          "type": "string"
        },
        {
          "internalType": "address",
          "name": "owner",
          "type": "address"
        }
      ],
      "payable": false,
      "stateMutability": "view",
      "type": "function"
    },
    {
      "constant": true,
      "inputs": [
        {
          "internalType": "address",
          "name": "",
          "type": "address"
        }
      ],
      "name": "doctoReport",
      "outputs": [
        {
          "internalType": "uint256",
          "name": "id",
          "type": "uint256"
        },
        {
          "internalType": "string",
          "name": "name",
          "type": "string"
        },
        {
          "internalType": "string",
          "name": "report_hash",
          "type": "string"
        },
        {
          "internalType": "address",
          "name": "owner",
          "type": "address"
        }
      ],
      "payable": false,
      "stateMutability": "view",
      "type": "function"
    },
    {
      "constant": true,
      "inputs": [
        {
          "internalType": "address",
          "name": "",
          "type": "address"
        }
      ],
      "name": "doctors",
      "outputs": [
        {
          "internalType": "string",
          "name": "name",
          "type": "string"
        },
        {
          "internalType": "address",
          "name": "id",
          "type": "address"
        }
      ],
      "payable": false,
      "stateMutability": "view",
      "type": "function"
    },
    {
      "constant": true,
      "inputs": [],
      "name": "name",
      "outputs": [
        {
          "internalType": "string",
          "name": "",
          "type": "string"
        }
      ],
      "payable": false,
      "stateMutability": "view",
      "type": "function"
    },
    {
      "constant": true,
      "inputs": [],
      "name": "number",
      "outputs": [
        {
          "internalType": "uint256",
          "name": "",
          "type": "uint256"
        }
      ],
      "payable": false,
      "stateMutability": "view",
      "type": "function"
    },
    {
      "constant": true,
      "inputs": [],
      "name": "owner",
      "outputs": [
        {
          "internalType": "address",
          "name": "",
          "type": "address"
        }
      ],
      "payable": false,
      "stateMutability": "view",
      "type": "function"
    },
    {
      "constant": true,
      "inputs": [
        {
          "internalType": "address",
          "name": "",
          "type": "address"
        }
      ],
      "name": "patients",
      "outputs": [
        {
          "internalType": "string",
          "name": "name",
          "type": "string"
        },
        {
          "internalType": "address",
          "name": "id",
          "type": "address"
        }
      ],
      "payable": false,
      "stateMutability": "view",
      "type": "function"
    },
    {
      "constant": true,
      "inputs": [],
      "name": "provider_report",
      "outputs": [
        {
          "internalType": "uint256",
          "name": "",
          "type": "uint256"
        }
      ],
      "payable": false,
      "stateMutability": "view",
      "type": "function"
    },
    {
      "constant": true,
      "inputs": [
        {
          "internalType": "address",
          "name": "",
          "type": "address"
        }
      ],
      "name": "providers",
      "outputs": [
        {
          "internalType": "string",
          "name": "name",
          "type": "string"
        },
        {
          "internalType": "address",
          "name": "id",
          "type": "address"
        }
      ],
      "payable": false,
      "stateMutability": "view",
      "type": "function"
    },
    {
      "constant": true,
      "inputs": [],
      "name": "report_count",
      "outputs": [
        {
          "internalType": "uint256",
          "name": "",
          "type": "uint256"
        }
      ],
      "payable": false,
      "stateMutability": "view",
      "type": "function"
    },
    {
      "constant": true,
      "inputs": [
        {
          "internalType": "uint256",
          "name": "",
          "type": "uint256"
        }
      ],
      "name": "reportlist",
      "outputs": [
        {
          "internalType": "uint256",
          "name": "id",
          "type": "uint256"
        },
        {
          "internalType": "string",
          "name": "name",
          "type": "string"
        },
        {
          "internalType": "string",
          "name": "report_hash",
          "type": "string"
        },
        {
          "internalType": "address",
          "name": "owner",
          "type": "address"
        }
      ],
      "payable": false,
      "stateMutability": "view",
      "type": "function"
    },
    {
      "constant": true,
      "inputs": [
        {
          "internalType": "string",
          "name": "",
          "type": "string"
        }
      ],
      "name": "reports",
      "outputs": [
        {
          "internalType": "uint256",
          "name": "id",
          "type": "uint256"
        },
        {
          "internalType": "string",
          "name": "name",
          "type": "string"
        },
        {
          "internalType": "string",
          "name": "report_hash",
          "type": "string"
        },
        {
          "internalType": "address",
          "name": "owner",
          "type": "address"
        }
      ],
      "payable": false,
      "stateMutability": "view",
      "type": "function"
    },
    {
      "constant": false,
      "inputs": [
        {
          "internalType": "string",
          "name": "_name",
          "type": "string"
        },
        {
          "internalType": "uint8",
          "name": "member",
          "type": "uint8"
        }
      ],
      "name": "register",
      "outputs": [
        {
          "internalType": "string",
          "name": "",
          "type": "string"
        },
        {
          "internalType": "string",
          "name": "",
          "type": "string"
        }
      ],
      "payable": false,
      "stateMutability": "nonpayable",
      "type": "function"
    },
    {
      "constant": true,
      "inputs": [
        {
          "internalType": "address",
          "name": "_user",
          "type": "address"
        }
      ],
      "name": "getProfile",
      "outputs": [
        {
          "internalType": "string",
          "name": "",
          "type": "string"
        },
        {
          "internalType": "string",
          "name": "",
          "type": "string"
        }
      ],
      "payable": false,
      "stateMutability": "view",
      "type": "function"
    },
    {
      "constant": false,
      "inputs": [
        {
          "internalType": "string",
          "name": "_name",
          "type": "string"
        },
        {
          "internalType": "string",
          "name": "_reporthash",
          "type": "string"
        }
      ],
      "name": "uploadCovidReport",
      "outputs": [],
      "payable": false,
      "stateMutability": "nonpayable",
      "type": "function"
    },
    {
      "constant": false,
      "inputs": [
        {
          "internalType": "string",
          "name": "_name",
          "type": "string"
        },
        {
          "internalType": "string",
          "name": "_reporthash",
          "type": "string"
        }
      ],
      "name": "uploadReport",
      "outputs": [],
      "payable": false,
      "stateMutability": "nonpayable",
      "type": "function"
    },
    {
      "constant": false,
      "inputs": [],
      "name": "getReports",
      "outputs": [
        {
          "internalType": "string[]",
          "name": "",
          "type": "string[]"
        }
      ],
      "payable": false,
      "stateMutability": "nonpayable",
      "type": "function"
    },
    {
      "constant": false,
      "inputs": [
        {
          "internalType": "uint256",
          "name": "_id",
          "type": "uint256"
        },
        {
          "internalType": "address",
          "name": "_docAddress",
          "type": "address"
        }
      ],
      "name": "grantAccess",
      "outputs": [
        {
          "internalType": "uint256",
          "name": "",
          "type": "uint256"
        }
      ],
      "payable": false,
      "stateMutability": "nonpayable",
      "type": "function"
    },
    {
      "constant": false,
      "inputs": [],
      "name": "getReportDoctor",
      "outputs": [
        {
          "internalType": "string[]",
          "name": "",
          "type": "string[]"
        }
      ],
      "payable": false,
      "stateMutability": "nonpayable",
      "type": "function"
    }
  ],
  "bytecode": "0x60806040526000600155600060025560006003556040518060400160405280600b81526020017f4865616c7468626c6f636b000000000000000000000000000000000000000000815250600c908051906020019062000060929190620000b5565b503480156200006e57600080fd5b50336000806101000a81548173ffffffffffffffffffffffffffffffffffffffff021916908373ffffffffffffffffffffffffffffffffffffffff16021790555062000164565b828054600181600116156101000203166002900490600052602060002090601f016020900481019282601f10620000f857805160ff191683800117855562000129565b8280016001018555821562000129579182015b82811115620001285782518255916020019190600101906200010b565b5b5090506200013891906200013c565b5090565b6200016191905b808211156200015d57600081600090555060010162000143565b5090565b90565b61364280620001746000396000f3fe608060405234801561001057600080fd5b506004361061012c5760003560e01c8063767b79ed116100ad578063a3c86daf11610071578063a3c86daf146103a1578063a9583c22146103bf578063ac576544146103f0578063ba8fc9c91461040e578063e4f05e7a146104415761012c565b8063767b79ed146102fc5780638381f58a1461032d5780638cbe62d51461034b5780638da5cb5b14610367578063998db271146103855761012c565b806329aff520116100f457806329aff520146102155780633c1686a91461023357806364cceaef1461026657806365dd152c1461029957806374f6c0d2146102c95761012c565b806306fdde03146101315780630787bc271461014f5780630869cfbc146101805780630f53a470146101b157806325995280146101e2575b600080fd5b61013961045f565b6040516101469190613326565b60405180910390f35b61016960048036036101649190810190612fc0565b6104fd565b60405161017792919061337f565b60405180910390f35b61019a60048036036101959190810190612fc0565b6105d9565b6040516101a892919061337f565b60405180910390f35b6101cb60048036036101c69190810190612fc0565b6106b5565b6040516101d9929190613348565b60405180910390f35b6101fc60048036036101f791908101906130ea565b610f33565b60405161020c94939291906133ca565b60405180910390f35b61021d6110b3565b60405161022a91906133af565b60405180910390f35b61024d60048036036102489190810190612fe9565b6110b9565b60405161025d94939291906133ca565b60405180910390f35b610280600480360361027b9190810190612fe9565b61124f565b60405161029094939291906133ca565b60405180910390f35b6102b360048036036102ae9190810190613113565b6113e5565b6040516102c091906133af565b60405180910390f35b6102e360048036036102de9190810190612fc0565b611785565b6040516102f394939291906133ca565b60405180910390f35b61031660048036036103119190810190613096565b611905565b604051610324929190613348565b60405180910390f35b610335611fe3565b60405161034291906133af565b60405180910390f35b6103656004803603610360919081019061302a565b611fe9565b005b61036f6122c4565b60405161037c91906132e9565b60405180910390f35b61039f600480360361039a919081019061302a565b6122e9565b005b6103a961255a565b6040516103b69190613304565b60405180910390f35b6103d960048036036103d49190810190612fc0565b612683565b6040516103e792919061337f565b60405180910390f35b6103f861275f565b60405161040591906133af565b60405180910390f35b610428600480360361042391908101906130ea565b612765565b60405161043894939291906133ca565b60405180910390f35b6104496128e5565b6040516104569190613304565b60405180910390f35b600c8054600181600116156101000203166002900480601f0160208091040260200160405190810160405280929190818152602001828054600181600116156101000203166002900480156104f55780601f106104ca576101008083540402835291602001916104f5565b820191906000526020600020905b8154815290600101906020018083116104d857829003601f168201915b505050505081565b6006602052806000526040600020600091509050806000018054600181600116156101000203166002900480601f0160208091040260200160405190810160405280929190818152602001828054600181600116156101000203166002900480156105a95780601f1061057e576101008083540402835291602001916105a9565b820191906000526020600020905b81548152906001019060200180831161058c57829003601f168201915b5050505050908060010160009054906101000a900473ffffffffffffffffffffffffffffffffffffffff16905082565b6005602052806000526040600020600091509050806000018054600181600116156101000203166002900480601f0160208091040260200160405190810160405280929190818152602001828054600181600116156101000203166002900480156106855780601f1061065a57610100808354040283529160200191610685565b820191906000526020600020905b81548152906001019060200180831161066857829003601f168201915b5050505050908060010160009054906101000a900473ffffffffffffffffffffffffffffffffffffffff16905082565b6060806106c0612a0e565b600560008573ffffffffffffffffffffffffffffffffffffffff1673ffffffffffffffffffffffffffffffffffffffff168152602001908152602001600020604051806060016040529081600082018054600181600116156101000203166002900480601f0160208091040260200160405190810160405280929190818152602001828054600181600116156101000203166002900480156107a35780601f10610778576101008083540402835291602001916107a3565b820191906000526020600020905b81548152906001019060200180831161078657829003601f168201915b505050505081526020016001820160009054906101000a900473ffffffffffffffffffffffffffffffffffffffff1673ffffffffffffffffffffffffffffffffffffffff1673ffffffffffffffffffffffffffffffffffffffff16815260200160028201805480602002602001604051908101604052809291908181526020016000905b828210156108e3578382906000526020600020018054600181600116156101000203166002900480601f0160208091040260200160405190810160405280929190818152602001828054600181600116156101000203166002900480156108cf5780601f106108a4576101008083540402835291602001916108cf565b820191906000526020600020905b8154815290600101906020018083116108b257829003601f168201915b505050505081526020019060010190610827565b505050508152505090506108f5612a45565b600460008673ffffffffffffffffffffffffffffffffffffffff1673ffffffffffffffffffffffffffffffffffffffff168152602001908152602001600020604051806060016040529081600082018054600181600116156101000203166002900480601f0160208091040260200160405190810160405280929190818152602001828054600181600116156101000203166002900480156109d85780601f106109ad576101008083540402835291602001916109d8565b820191906000526020600020905b8154815290600101906020018083116109bb57829003601f168201915b505050505081526020016001820160009054906101000a900473ffffffffffffffffffffffffffffffffffffffff1673ffffffffffffffffffffffffffffffffffffffff1673ffffffffffffffffffffffffffffffffffffffff16815260200160028201805480602002602001604051908101604052809291908181526020016000905b82821015610b18578382906000526020600020018054600181600116156101000203166002900480601f016020809104026020016040519081016040528092919081815260200182805460018160011615610100020316600290048015610b045780601f10610ad957610100808354040283529160200191610b04565b820191906000526020600020905b815481529060010190602001808311610ae757829003601f168201915b505050505081526020019060010190610a5c565b50505050815250509050610b2a612a7c565b600660008773ffffffffffffffffffffffffffffffffffffffff1673ffffffffffffffffffffffffffffffffffffffff168152602001908152602001600020604051806060016040529081600082018054600181600116156101000203166002900480601f016020809104026020016040519081016040528092919081815260200182805460018160011615610100020316600290048015610c0d5780601f10610be257610100808354040283529160200191610c0d565b820191906000526020600020905b815481529060010190602001808311610bf057829003601f168201915b505050505081526020016001820160009054906101000a900473ffffffffffffffffffffffffffffffffffffffff1673ffffffffffffffffffffffffffffffffffffffff1673ffffffffffffffffffffffffffffffffffffffff16815260200160028201805480602002602001604051908101604052809291908181526020016000905b82821015610d4d578382906000526020600020018054600181600116156101000203166002900480601f016020809104026020016040519081016040528092919081815260200182805460018160011615610100020316600290048015610d395780601f10610d0e57610100808354040283529160200191610d39565b820191906000526020600020905b815481529060010190602001808311610d1c57829003601f168201915b505050505081526020019060010190610c91565b50505050815250509050600073ffffffffffffffffffffffffffffffffffffffff16836020015173ffffffffffffffffffffffffffffffffffffffff161115610dda5782600001518090506040518060400160405280600781526020017f70617469656e740000000000000000000000000000000000000000000000000081525094509450505050610f2e565b600073ffffffffffffffffffffffffffffffffffffffff16826020015173ffffffffffffffffffffffffffffffffffffffff161115610e5d5781600001518090506040518060400160405280600681526020017f646f63746f72000000000000000000000000000000000000000000000000000081525094509450505050610f2e565b600073ffffffffffffffffffffffffffffffffffffffff16816020015173ffffffffffffffffffffffffffffffffffffffff161115610ee05780600001518090506040518060400160405280600881526020017f70726f766964657200000000000000000000000000000000000000000000000081525094509450505050610f2e565b6040518060400160405280600181526020017f200000000000000000000000000000000000000000000000000000000000000081525060405180602001604052806000815250945094505050505b915091565b600a602052806000526040600020600091509050806000015490806001018054600181600116156101000203166002900480601f016020809104026020016040519081016040528092919081815260200182805460018160011615610100020316600290048015610fe55780601f10610fba57610100808354040283529160200191610fe5565b820191906000526020600020905b815481529060010190602001808311610fc857829003601f168201915b505050505090806002018054600181600116156101000203166002900480601f0160208091040260200160405190810160405280929190818152602001828054600181600116156101000203166002900480156110835780601f1061105857610100808354040283529160200191611083565b820191906000526020600020905b81548152906001019060200180831161106657829003601f168201915b5050505050908060030160009054906101000a900473ffffffffffffffffffffffffffffffffffffffff16905084565b60025481565b600881805160208101820180518482526020830160208501208183528095505050505050600091509050806000015490806001018054600181600116156101000203166002900480601f0160208091040260200160405190810160405280929190818152602001828054600181600116156101000203166002900480156111815780601f1061115657610100808354040283529160200191611181565b820191906000526020600020905b81548152906001019060200180831161116457829003601f168201915b505050505090806002018054600181600116156101000203166002900480601f01602080910402602001604051908101604052809291908181526020018280546001816001161561010002031660029004801561121f5780601f106111f45761010080835404028352916020019161121f565b820191906000526020600020905b81548152906001019060200180831161120257829003601f168201915b5050505050908060030160009054906101000a900473ffffffffffffffffffffffffffffffffffffffff16905084565b600781805160208101820180518482526020830160208501208183528095505050505050600091509050806000015490806001018054600181600116156101000203166002900480601f0160208091040260200160405190810160405280929190818152602001828054600181600116156101000203166002900480156113175780601f106112ec57610100808354040283529160200191611317565b820191906000526020600020905b8154815290600101906020018083116112fa57829003601f168201915b505050505090806002018054600181600116156101000203166002900480601f0160208091040260200160405190810160405280929190818152602001828054600181600116156101000203166002900480156113b55780601f1061138a576101008083540402835291602001916113b5565b820191906000526020600020905b81548152906001019060200180831161139857829003601f168201915b5050505050908060030160009054906101000a900473ffffffffffffffffffffffffffffffffffffffff16905084565b60006113ef612a45565b600460008473ffffffffffffffffffffffffffffffffffffffff1673ffffffffffffffffffffffffffffffffffffffff168152602001908152602001600020604051806060016040529081600082018054600181600116156101000203166002900480601f0160208091040260200160405190810160405280929190818152602001828054600181600116156101000203166002900480156114d25780601f106114a7576101008083540402835291602001916114d2565b820191906000526020600020905b8154815290600101906020018083116114b557829003601f168201915b505050505081526020016001820160009054906101000a900473ffffffffffffffffffffffffffffffffffffffff1673ffffffffffffffffffffffffffffffffffffffff1673ffffffffffffffffffffffffffffffffffffffff16815260200160028201805480602002602001604051908101604052809291908181526020016000905b82821015611612578382906000526020600020018054600181600116156101000203166002900480601f0160208091040260200160405190810160405280929190818152602001828054600181600116156101000203166002900480156115fe5780601f106115d3576101008083540402835291602001916115fe565b820191906000526020600020905b8154815290600101906020018083116115e157829003601f168201915b505050505081526020019060010190611556565b50505050815250509050600073ffffffffffffffffffffffffffffffffffffffff16816020015173ffffffffffffffffffffffffffffffffffffffff16111561177957600a60008581526020019081526020016000206004018390806001815401808255809150509060018203906000526020600020016000909192909190916101000a81548173ffffffffffffffffffffffffffffffffffffffff021916908373ffffffffffffffffffffffffffffffffffffffff16021790555050600460008473ffffffffffffffffffffffffffffffffffffffff1673ffffffffffffffffffffffffffffffffffffffff168152602001908152602001600020600201600a6000868152602001908152602001600020600201908060018154018082558091505090600182039060005260206000200160009091929091909150908054600181600116156101000203166002900461176d929190612ab3565b5050600191505061177f565b60009150505b92915050565b600b602052806000526040600020600091509050806000015490806001018054600181600116156101000203166002900480601f0160208091040260200160405190810160405280929190818152602001828054600181600116156101000203166002900480156118375780601f1061180c57610100808354040283529160200191611837565b820191906000526020600020905b81548152906001019060200180831161181a57829003601f168201915b505050505090806002018054600181600116156101000203166002900480601f0160208091040260200160405190810160405280929190818152602001828054600181600116156101000203166002900480156118d55780601f106118aa576101008083540402835291602001916118d5565b820191906000526020600020905b8154815290600101906020018083116118b857829003601f168201915b5050505050908060030160009054906101000a900473ffffffffffffffffffffffffffffffffffffffff16905084565b60608060008360ff161415611cf15761191c612a0e565b600560003373ffffffffffffffffffffffffffffffffffffffff1673ffffffffffffffffffffffffffffffffffffffff168152602001908152602001600020604051806060016040529081600082018054600181600116156101000203166002900480601f0160208091040260200160405190810160405280929190818152602001828054600181600116156101000203166002900480156119ff5780601f106119d4576101008083540402835291602001916119ff565b820191906000526020600020905b8154815290600101906020018083116119e257829003601f168201915b505050505081526020016001820160009054906101000a900473ffffffffffffffffffffffffffffffffffffffff1673ffffffffffffffffffffffffffffffffffffffff1673ffffffffffffffffffffffffffffffffffffffff16815260200160028201805480602002602001604051908101604052809291908181526020016000905b82821015611b3f578382906000526020600020018054600181600116156101000203166002900480601f016020809104026020016040519081016040528092919081815260200182805460018160011615610100020316600290048015611b2b5780601f10611b0057610100808354040283529160200191611b2b565b820191906000526020600020905b815481529060010190602001808311611b0e57829003601f168201915b505050505081526020019060010190611a83565b50505050815250509050600073ffffffffffffffffffffffffffffffffffffffff16816020015173ffffffffffffffffffffffffffffffffffffffff161115611b8757600080fd5b60405180606001604052808681526020013373ffffffffffffffffffffffffffffffffffffffff1681526020016064604051908082528060200260200182016040528015611be957816020015b6060815260200190600190039081611bd45790505b50815250600560003373ffffffffffffffffffffffffffffffffffffffff1673ffffffffffffffffffffffffffffffffffffffff1681526020019081526020016000206000820151816000019080519060200190611c48929190612b3a565b5060208201518160010160006101000a81548173ffffffffffffffffffffffffffffffffffffffff021916908373ffffffffffffffffffffffffffffffffffffffff1602179055506040820151816002019080519060200190611cac929190612bba565b50905050846040518060400160405280600781526020017f70617469656e74000000000000000000000000000000000000000000000000008152509250925050611fdc565b60018360ff161415611e665760405180606001604052808581526020013373ffffffffffffffffffffffffffffffffffffffff1681526020016064604051908082528060200260200182016040528015611d5f57816020015b6060815260200190600190039081611d4a5790505b50815250600460003373ffffffffffffffffffffffffffffffffffffffff1673ffffffffffffffffffffffffffffffffffffffff1681526020019081526020016000206000820151816000019080519060200190611dbe929190612b3a565b5060208201518160010160006101000a81548173ffffffffffffffffffffffffffffffffffffffff021916908373ffffffffffffffffffffffffffffffffffffffff1602179055506040820151816002019080519060200190611e22929190612bba565b50905050836040518060400160405280600681526020017f646f63746f72000000000000000000000000000000000000000000000000000081525091509150611fdc565b60028360ff161415611fdb5760405180606001604052808581526020013373ffffffffffffffffffffffffffffffffffffffff1681526020016000604051908082528060200260200182016040528015611ed457816020015b6060815260200190600190039081611ebf5790505b50815250600660003373ffffffffffffffffffffffffffffffffffffffff1673ffffffffffffffffffffffffffffffffffffffff1681526020019081526020016000206000820151816000019080519060200190611f33929190612b3a565b5060208201518160010160006101000a81548173ffffffffffffffffffffffffffffffffffffffff021916908373ffffffffffffffffffffffffffffffffffffffff1602179055506040820151816002019080519060200190611f97929190612bba565b50905050836040518060400160405280600881526020017f70726f766964657200000000000000000000000000000000000000000000000081525091509150611fdc565b5b9250929050565b60015481565b6040518060a0016040528060025481526020018381526020018281526020013373ffffffffffffffffffffffffffffffffffffffff16815260200160006040519080825280602002602001820160405280156120545781602001602082028038833980820191505090505b5081525060078260405161206891906132d2565b908152602001604051809103902060008201518160000155602082015181600101908051906020019061209c929190612b3a565b5060408201518160020190805190602001906120b9929190612b3a565b5060608201518160030160006101000a81548173ffffffffffffffffffffffffffffffffffffffff021916908373ffffffffffffffffffffffffffffffffffffffff160217905550608082015181600401908051906020019061211d929190612c1a565b50905050600560003373ffffffffffffffffffffffffffffffffffffffff1673ffffffffffffffffffffffffffffffffffffffff16815260200190815260200160002060020181908060018154018082558091505090600182039060005260206000200160009091929091909150908051906020019061219e929190612ca4565b50506007816040516121b091906132d2565b9081526020016040518091039020600a600060025481526020019081526020016000206000820154816000015560018201816001019080546001816001161561010002031660029004612204929190612d24565b506002820181600201908054600181600116156101000203166002900461222c929190612d24565b506003820160009054906101000a900473ffffffffffffffffffffffffffffffffffffffff168160030160006101000a81548173ffffffffffffffffffffffffffffffffffffffff021916908373ffffffffffffffffffffffffffffffffffffffff16021790555060048201816004019080546122aa929190612dab565b509050506002600081548092919060010191905055505050565b6000809054906101000a900473ffffffffffffffffffffffffffffffffffffffff1681565b604051806080016040528060035481526020018381526020018281526020013373ffffffffffffffffffffffffffffffffffffffff1681525060088260405161233291906132d2565b9081526020016040518091039020600082015181600001556020820151816001019080519060200190612366929190612b3a565b506040820151816002019080519060200190612383929190612b3a565b5060608201518160030160006101000a81548173ffffffffffffffffffffffffffffffffffffffff021916908373ffffffffffffffffffffffffffffffffffffffff160217905550905050600660003373ffffffffffffffffffffffffffffffffffffffff1673ffffffffffffffffffffffffffffffffffffffff16815260200190815260200160002060020181908060018154018082558091505090600182039060005260206000200160009091929091909150908051906020019061244b929190612ca4565b505060088160405161245d91906132d2565b908152602001604051809103902060096000600354815260200190815260200160002060008201548160000155600182018160010190805460018160011615610100020316600290046124b1929190612d24565b50600282018160020190805460018160011615610100020316600290046124d9929190612d24565b506003820160009054906101000a900473ffffffffffffffffffffffffffffffffffffffff168160030160006101000a81548173ffffffffffffffffffffffffffffffffffffffff021916908373ffffffffffffffffffffffffffffffffffffffff1602179055509050506003600081548092919060010191905055505050565b6060600560003373ffffffffffffffffffffffffffffffffffffffff1673ffffffffffffffffffffffffffffffffffffffff168152602001908152602001600020600201805480602002602001604051908101604052809291908181526020016000905b8282101561267a578382906000526020600020018054600181600116156101000203166002900480601f0160208091040260200160405190810160405280929190818152602001828054600181600116156101000203166002900480156126665780601f1061263b57610100808354040283529160200191612666565b820191906000526020600020905b81548152906001019060200180831161264957829003601f168201915b5050505050815260200190600101906125be565b50505050905090565b6004602052806000526040600020600091509050806000018054600181600116156101000203166002900480601f01602080910402602001604051908101604052809291908181526020018280546001816001161561010002031660029004801561272f5780601f106127045761010080835404028352916020019161272f565b820191906000526020600020905b81548152906001019060200180831161271257829003601f168201915b5050505050908060010160009054906101000a900473ffffffffffffffffffffffffffffffffffffffff16905082565b60035481565b6009602052806000526040600020600091509050806000015490806001018054600181600116156101000203166002900480601f0160208091040260200160405190810160405280929190818152602001828054600181600116156101000203166002900480156128175780601f106127ec57610100808354040283529160200191612817565b820191906000526020600020905b8154815290600101906020018083116127fa57829003601f168201915b505050505090806002018054600181600116156101000203166002900480601f0160208091040260200160405190810160405280929190818152602001828054600181600116156101000203166002900480156128b55780601f1061288a576101008083540402835291602001916128b5565b820191906000526020600020905b81548152906001019060200180831161289857829003601f168201915b5050505050908060030160009054906101000a900473ffffffffffffffffffffffffffffffffffffffff16905084565b6060600460003373ffffffffffffffffffffffffffffffffffffffff1673ffffffffffffffffffffffffffffffffffffffff168152602001908152602001600020600201805480602002602001604051908101604052809291908181526020016000905b82821015612a05578382906000526020600020018054600181600116156101000203166002900480601f0160208091040260200160405190810160405280929190818152602001828054600181600116156101000203166002900480156129f15780601f106129c6576101008083540402835291602001916129f1565b820191906000526020600020905b8154815290600101906020018083116129d457829003601f168201915b505050505081526020019060010190612949565b50505050905090565b604051806060016040528060608152602001600073ffffffffffffffffffffffffffffffffffffffff168152602001606081525090565b604051806060016040528060608152602001600073ffffffffffffffffffffffffffffffffffffffff168152602001606081525090565b604051806060016040528060608152602001600073ffffffffffffffffffffffffffffffffffffffff168152602001606081525090565b828054600181600116156101000203166002900490600052602060002090601f016020900481019282601f10612aec5780548555612b29565b82800160010185558215612b2957600052602060002091601f016020900482015b82811115612b28578254825591600101919060010190612b0d565b5b509050612b369190612dfd565b5090565b828054600181600116156101000203166002900490600052602060002090601f016020900481019282601f10612b7b57805160ff1916838001178555612ba9565b82800160010185558215612ba9579182015b82811115612ba8578251825591602001919060010190612b8d565b5b509050612bb69190612dfd565b5090565b828054828255906000526020600020908101928215612c09579160200282015b82811115612c08578251829080519060200190612bf8929190612b3a565b5091602001919060010190612bda565b5b509050612c169190612e22565b5090565b828054828255906000526020600020908101928215612c93579160200282015b82811115612c925782518260006101000a81548173ffffffffffffffffffffffffffffffffffffffff021916908373ffffffffffffffffffffffffffffffffffffffff16021790555091602001919060010190612c3a565b5b509050612ca09190612e4e565b5090565b828054600181600116156101000203166002900490600052602060002090601f016020900481019282601f10612ce557805160ff1916838001178555612d13565b82800160010185558215612d13579182015b82811115612d12578251825591602001919060010190612cf7565b5b509050612d209190612dfd565b5090565b828054600181600116156101000203166002900490600052602060002090601f016020900481019282601f10612d5d5780548555612d9a565b82800160010185558215612d9a57600052602060002091601f016020900482015b82811115612d99578254825591600101919060010190612d7e565b5b509050612da79190612dfd565b5090565b828054828255906000526020600020908101928215612dec5760005260206000209182015b82811115612deb578254825591600101919060010190612dd0565b5b509050612df99190612e4e565b5090565b612e1f91905b80821115612e1b576000816000905550600101612e03565b5090565b90565b612e4b91905b80821115612e475760008181612e3e9190612e91565b50600101612e28565b5090565b90565b612e8e91905b80821115612e8a57600081816101000a81549073ffffffffffffffffffffffffffffffffffffffff021916905550600101612e54565b5090565b90565b50805460018160011615610100020316600290046000825580601f10612eb75750612ed6565b601f016020900490600052602060002090810190612ed59190612dfd565b5b50565b600081359050612ee8816135ba565b92915050565b600082601f830112612eff57600080fd5b8135612f12612f0d8261344a565b61341d565b91508082526020830160208301858383011115612f2e57600080fd5b612f39838284613567565b50505092915050565b600082601f830112612f5357600080fd5b8135612f66612f6182613476565b61341d565b91508082526020830160208301858383011115612f8257600080fd5b612f8d838284613567565b50505092915050565b600081359050612fa5816135d1565b92915050565b600081359050612fba816135e8565b92915050565b600060208284031215612fd257600080fd5b6000612fe084828501612ed9565b91505092915050565b600060208284031215612ffb57600080fd5b600082013567ffffffffffffffff81111561301557600080fd5b61302184828501612eee565b91505092915050565b6000806040838503121561303d57600080fd5b600083013567ffffffffffffffff81111561305757600080fd5b61306385828601612f42565b925050602083013567ffffffffffffffff81111561308057600080fd5b61308c85828601612f42565b9150509250929050565b600080604083850312156130a957600080fd5b600083013567ffffffffffffffff8111156130c357600080fd5b6130cf85828601612f42565b92505060206130e085828601612fab565b9150509250929050565b6000602082840312156130fc57600080fd5b600061310a84828501612f96565b91505092915050565b6000806040838503121561312657600080fd5b600061313485828601612f96565b925050602061314585828601612ed9565b9150509250929050565b600061315b8383613251565b905092915050565b61316c8161351e565b82525050565b600061317d826134b2565b61318781856134e0565b935083602082028501613199856134a2565b8060005b858110156131d557848403895281516131b6858261314f565b94506131c1836134d3565b925060208a0199505060018101905061319d565b50829750879550505050505092915050565b60006131f2826134c8565b6131fc8185613502565b935061320c818560208601613576565b613215816135a9565b840191505092915050565b600061322b826134c8565b6132358185613513565b9350613245818560208601613576565b80840191505092915050565b600061325c826134bd565b61326681856134f1565b9350613276818560208601613576565b61327f816135a9565b840191505092915050565b6000613295826134bd565b61329f8185613502565b93506132af818560208601613576565b6132b8816135a9565b840191505092915050565b6132cc81613550565b82525050565b60006132de8284613220565b915081905092915050565b60006020820190506132fe6000830184613163565b92915050565b6000602082019050818103600083015261331e8184613172565b905092915050565b60006020820190508181036000830152613340818461328a565b905092915050565b6000604082019050818103600083015261336281856131e7565b9050818103602083015261337681846131e7565b90509392505050565b60006040820190508181036000830152613399818561328a565b90506133a86020830184613163565b9392505050565b60006020820190506133c460008301846132c3565b92915050565b60006080820190506133df60008301876132c3565b81810360208301526133f1818661328a565b90508181036040830152613405818561328a565b90506134146060830184613163565b95945050505050565b6000604051905081810181811067ffffffffffffffff8211171561344057600080fd5b8060405250919050565b600067ffffffffffffffff82111561346157600080fd5b601f19601f8301169050602081019050919050565b600067ffffffffffffffff82111561348d57600080fd5b601f19601f8301169050602081019050919050565b6000819050602082019050919050565b600081519050919050565b600081519050919050565b600081519050919050565b6000602082019050919050565b600082825260208201905092915050565b600082825260208201905092915050565b600082825260208201905092915050565b600081905092915050565b600061352982613530565b9050919050565b600073ffffffffffffffffffffffffffffffffffffffff82169050919050565b6000819050919050565b600060ff82169050919050565b82818337600083830152505050565b60005b83811015613594578082015181840152602081019050613579565b838111156135a3576000848401525b50505050565b6000601f19601f8301169050919050565b6135c38161351e565b81146135ce57600080fd5b50565b6135da81613550565b81146135e557600080fd5b50565b6135f18161355a565b81146135fc57600080fd5b5056fea365627a7a723158205fbe975361d92923ae2e2500843e15b10c2d2083f86871b365150b73eb2a74fc6c6578706572696d656e74616cf564736f6c63430005100040",
  "source": "pragma solidity ^0.5.16;\r\npragma experimental ABIEncoderV2;\r\n\r\ncontract Healthblock {\r\n  address public owner;\r\n  uint public number=0;\r\n  uint public report_count=0;\r\n  uint public provider_report=0;\r\n  mapping (address => doctor)  public doctors;\r\n  mapping (address => patient) public patients;\r\n  mapping (address =>provider) public providers;\r\n  mapping (string => report) public reports; \r\n  mapping (string => covid_report) public covid_reports;\r\n  mapping (uint => covid_report) public covid_report_list;\r\n  mapping (uint=>report) public reportlist;\r\n  mapping (address =>report) public doctoReport;\r\n  \r\n  string public name = \"Healthblock\";\r\n  struct report {\r\n      uint id;\r\n      string name;  \r\n      string report_hash;\r\n      address owner;\r\n      address[] doctors_assigned;\r\n    }\r\n    struct covid_report{\r\n      uint id;\r\n      string name;\r\n      string report_hash;\r\n      address owner;\r\n    }\r\n  struct patient {\r\n      string name;\r\n      address id; \r\n      string[] reports;\r\n  }\r\n  struct provider{\r\n    string name;\r\n    address id;\r\n    string[] reports;\r\n  }\r\n  struct doctor {\r\n      string name;\r\n      address id;\r\n      string[] reports_hash;\r\n  }\r\n  constructor() public {\r\n    owner = msg.sender;\r\n  }\r\n  function register(string memory _name, uint8 member) public returns(string memory,string memory){\r\n    if (member==0){\r\n        patient memory p = patients[msg.sender];\r\n        require(!(p.id > address(0x0)));\r\n        patients[msg.sender] = patient({name:_name,id:msg.sender,reports:new string[](100)});   \r\n        return (_name,\"patient\");\r\n        }\r\n    else if (member==1){\r\n      doctors[msg.sender] = doctor({name:_name,id:msg.sender,reports_hash:new string[](100)});\r\n      return (_name,\"doctor\");\r\n      }\r\n    else if (member==2){\r\n      providers[msg.sender]=provider({name:_name,id:msg.sender,reports:new string[](0)});\r\n      return (_name,\"provider\");\r\n    }\r\n    }   \r\n  function getProfile(address _user) public view  returns(string memory, string memory){\r\n      patient memory p = patients[_user];\r\n      doctor memory d = doctors[_user];\r\n      provider memory pro =providers[_user];\r\n      if(p.id > address(0x0))\r\n          return (p.name, 'patient');\r\n      else if(d.id > address(0x0))\r\n          return (d.name, 'doctor');\r\n      else if (pro.id> address(0x0))\r\n          return (pro.name,'provider');\r\n      else\r\n          return (' ', '');\r\n  }\r\n  function uploadCovidReport(string memory _name,string memory _reporthash)public{\r\n    covid_reports[_reporthash]=covid_report({id:provider_report,name:_name,report_hash:_reporthash,owner:msg.sender});\r\n    providers[msg.sender].reports.push(_reporthash);\r\n    covid_report_list[provider_report]=covid_reports[_reporthash];\r\n    provider_report++;\r\n\r\n  }\r\n  function uploadReport(string memory _name,string memory _reporthash) public {\r\n    reports[_reporthash ]=report({id:report_count,name:_name,report_hash:_reporthash,owner:msg.sender,doctors_assigned:new address[](0)});\r\n    patients[msg.sender].reports.push(_reporthash);\r\n    reportlist[report_count]=reports[_reporthash];\r\n    report_count++;\r\n  }\r\n  function getReports() external  returns (string[] memory){\r\n    return patients[msg.sender].reports;\r\n  }\r\n  function grantAccess(uint _id,address  _docAddress) public returns(uint){\r\n    doctor memory d = doctors[_docAddress];\r\n    \r\n    if (d.id > address(0x0)){\r\n      reportlist[_id].doctors_assigned.push(_docAddress);\r\n      doctors[_docAddress].reports_hash.push(reportlist[_id].report_hash);\r\n      //d.reports_hash.push(reportlist[_id]);\r\n      return(1);\r\n    }\r\n    else{\r\n      return(0);\r\n    }\r\n  }\r\n  function getReportDoctor() external returns(string[] memory){\r\n    return doctors[msg.sender].reports_hash;\r\n  }\r\n  /*function getReportDoctor() external returns(string[] memory,address[] memory){\r\n    string[] memory hashes;\r\n    address[]  memory patient_address;\r\n    for (uint i=0;i<report_count;i++){\r\n      report memory rep = reportlist[i];\r\n      string[] memory doctorsAssigned =rep.doctors_assigned;\r\n      for (uint j=0;j<doctorsAssigned.length;j++){\r\n        if (doctorsAssigned[j]==msg.sender){\r\n          hashes.push(rep.report_hash);\r\n          patient_address.push(rep.owner);\r\n          break;\r\n        }\r\n      }\r\n    }\r\n    return (hashes,patient_address);\r\n  } */\r\n}",
  "sourcePath": "C:/Users/kumar/major-project/healthblock/src/contracts/Healthblock.sol",
  "compiler": {
    "name": "solc",
    "version": "0.5.16+commit.9c3226ce.Emscripten.clang"
  },
  "schemaVersion": "3.3.3",
  "updatedAt": "2021-01-20T16:56:00.027Z",
  "networkType": "ethereum",
  "devdoc": {
    "methods": {}
  },
  "userdoc": {
    "methods": {}
  }
}