{
  "contractName": "Healthblock",
  "abi": [
    {
      "inputs": [],
      "payable": false,
      "stateMutability": "nonpayable",
      "type": "constructor"
    },
    {
      "constant": true,
      "inputs": [
        {
          "internalType": "address",
          "name": "",
          "type": "address"
        }
      ],
      "name": "doctors",
      "outputs": [
        {
          "internalType": "string",
          "name": "name",
          "type": "string"
        },
        {
          "internalType": "address",
          "name": "id",
          "type": "address"
        }
      ],
      "payable": false,
      "stateMutability": "view",
      "type": "function"
    },
    {
      "constant": true,
      "inputs": [],
      "name": "name",
      "outputs": [
        {
          "internalType": "string",
          "name": "",
          "type": "string"
        }
      ],
      "payable": false,
      "stateMutability": "view",
      "type": "function"
    },
    {
      "constant": true,
      "inputs": [],
      "name": "number",
      "outputs": [
        {
          "internalType": "uint256",
          "name": "",
          "type": "uint256"
        }
      ],
      "payable": false,
      "stateMutability": "view",
      "type": "function"
    },
    {
      "constant": true,
      "inputs": [],
      "name": "owner",
      "outputs": [
        {
          "internalType": "address",
          "name": "",
          "type": "address"
        }
      ],
      "payable": false,
      "stateMutability": "view",
      "type": "function"
    },
    {
      "constant": true,
      "inputs": [
        {
          "internalType": "address",
          "name": "",
          "type": "address"
        }
      ],
      "name": "patients",
      "outputs": [
        {
          "internalType": "string",
          "name": "name",
          "type": "string"
        },
        {
          "internalType": "address",
          "name": "id",
          "type": "address"
        }
      ],
      "payable": false,
      "stateMutability": "view",
      "type": "function"
    },
    {
      "constant": true,
      "inputs": [
        {
          "internalType": "string",
          "name": "",
          "type": "string"
        }
      ],
      "name": "reports",
      "outputs": [
        {
          "internalType": "uint256",
          "name": "id",
          "type": "uint256"
        },
        {
          "internalType": "string",
          "name": "name",
          "type": "string"
        },
        {
          "internalType": "string",
          "name": "report_hash",
          "type": "string"
        },
        {
          "internalType": "address",
          "name": "owner",
          "type": "address"
        }
      ],
      "payable": false,
      "stateMutability": "view",
      "type": "function"
    },
    {
      "constant": false,
      "inputs": [],
      "name": "add",
      "outputs": [
        {
          "internalType": "uint256",
          "name": "",
          "type": "uint256"
        }
      ],
      "payable": false,
      "stateMutability": "nonpayable",
      "type": "function"
    },
    {
      "constant": false,
      "inputs": [
        {
          "internalType": "string",
          "name": "_test",
          "type": "string"
        }
      ],
      "name": "hello",
      "outputs": [
        {
          "internalType": "string",
          "name": "",
          "type": "string"
        }
      ],
      "payable": false,
      "stateMutability": "nonpayable",
      "type": "function"
    },
    {
      "constant": false,
      "inputs": [
        {
          "internalType": "string",
          "name": "_name",
          "type": "string"
        },
        {
          "internalType": "uint8",
          "name": "member",
          "type": "uint8"
        }
      ],
      "name": "register",
      "outputs": [
        {
          "internalType": "string",
          "name": "",
          "type": "string"
        },
        {
          "internalType": "string",
          "name": "",
          "type": "string"
        }
      ],
      "payable": false,
      "stateMutability": "nonpayable",
      "type": "function"
    },
    {
      "constant": false,
      "inputs": [
        {
          "internalType": "address",
          "name": "_user",
          "type": "address"
        }
      ],
      "name": "getProfile",
      "outputs": [
        {
          "internalType": "string",
          "name": "",
          "type": "string"
        },
        {
          "internalType": "string",
          "name": "",
          "type": "string"
        }
      ],
      "payable": false,
      "stateMutability": "nonpayable",
      "type": "function"
    },
    {
      "constant": false,
      "inputs": [
        {
          "internalType": "string",
          "name": "_name",
          "type": "string"
        },
        {
          "internalType": "string",
          "name": "_reporthash",
          "type": "string"
        }
      ],
      "name": "uploadReport",
      "outputs": [],
      "payable": false,
      "stateMutability": "nonpayable",
      "type": "function"
    }
  ],
  "bytecode": "0x6080604052600060015560006002556040518060400160405280600b81526020017f4865616c7468626c6f636b000000000000000000000000000000000000000000815250600790805190602001906200005b929190620000b0565b503480156200006957600080fd5b50336000806101000a81548173ffffffffffffffffffffffffffffffffffffffff021916908373ffffffffffffffffffffffffffffffffffffffff1602179055506200015f565b828054600181600116156101000203166002900490600052602060002090601f016020900481019282601f10620000f357805160ff191683800117855562000124565b8280016001018555821562000124579182015b828111156200012357825182559160200191906001019062000106565b5b50905062000133919062000137565b5090565b6200015c91905b80821115620001585760008160009055506001016200013e565b5090565b90565b611e6f806200016f6000396000f3fe608060405234801561001057600080fd5b50600436106100a95760003560e01c8063767b79ed11610071578063767b79ed146105425780638381f58a146106ef5780638cbe62d51461070d5780638da5cb5b1461085f578063a777d0dc146108a9578063a9583c22146109dd576100a9565b806306fdde03146100ae5780630869cfbc146101315780630f53a470146102215780634f2be91f1461034a57806364cceaef14610368575b600080fd5b6100b6610acd565b6040518080602001828103825283818151815260200191508051906020019080838360005b838110156100f65780820151818401526020810190506100db565b50505050905090810190601f1680156101235780820380516001836020036101000a031916815260200191505b509250505060405180910390f35b6101736004803603602081101561014757600080fd5b81019080803573ffffffffffffffffffffffffffffffffffffffff169060200190929190505050610b6b565b60405180806020018373ffffffffffffffffffffffffffffffffffffffff1673ffffffffffffffffffffffffffffffffffffffff168152602001828103825284818151815260200191508051906020019080838360005b838110156101e55780820151818401526020810190506101ca565b50505050905090810190601f1680156102125780820380516001836020036101000a031916815260200191505b50935050505060405180910390f35b6102636004803603602081101561023757600080fd5b81019080803573ffffffffffffffffffffffffffffffffffffffff169060200190929190505050610c47565b604051808060200180602001838103835285818151815260200191508051906020019080838360005b838110156102a757808201518184015260208101905061028c565b50505050905090810190601f1680156102d45780820380516001836020036101000a031916815260200191505b50838103825284818151815260200191508051906020019080838360005b8381101561030d5780820151818401526020810190506102f2565b50505050905090810190601f16801561033a5780820380516001836020036101000a031916815260200191505b5094505050505060405180910390f35b610352611121565b6040518082815260200191505060405180910390f35b6104216004803603602081101561037e57600080fd5b810190808035906020019064010000000081111561039b57600080fd5b8201836020820111156103ad57600080fd5b803590602001918460018302840111640100000000831117156103cf57600080fd5b91908080601f016020809104026020016040519081016040528093929190818152602001838380828437600081840152601f19601f82011690508083019250505050505050919291929050505061113d565b6040518085815260200180602001806020018473ffffffffffffffffffffffffffffffffffffffff1673ffffffffffffffffffffffffffffffffffffffff168152602001838103835286818151815260200191508051906020019080838360005b8381101561049d578082015181840152602081019050610482565b50505050905090810190601f1680156104ca5780820380516001836020036101000a031916815260200191505b50838103825285818151815260200191508051906020019080838360005b838110156105035780820151818401526020810190506104e8565b50505050905090810190601f1680156105305780820380516001836020036101000a031916815260200191505b50965050505050505060405180910390f35b6106086004803603604081101561055857600080fd5b810190808035906020019064010000000081111561057557600080fd5b82018360208201111561058757600080fd5b803590602001918460018302840111640100000000831117156105a957600080fd5b91908080601f016020809104026020016040519081016040528093929190818152602001838380828437600081840152601f19601f820116905080830192505050505050509192919290803560ff1690602001909291905050506112d3565b604051808060200180602001838103835285818151815260200191508051906020019080838360005b8381101561064c578082015181840152602081019050610631565b50505050905090810190601f1680156106795780820380516001836020036101000a031916815260200191505b50838103825284818151815260200191508051906020019080838360005b838110156106b2578082015181840152602081019050610697565b50505050905090810190601f1680156106df5780820380516001836020036101000a031916815260200191505b5094505050505060405180910390f35b6106f76117e4565b6040518082815260200191505060405180910390f35b61085d6004803603604081101561072357600080fd5b810190808035906020019064010000000081111561074057600080fd5b82018360208201111561075257600080fd5b8035906020019184600183028401116401000000008311171561077457600080fd5b91908080601f016020809104026020016040519081016040528093929190818152602001838380828437600081840152601f19601f820116905080830192505050505050509192919290803590602001906401000000008111156107d757600080fd5b8201836020820111156107e957600080fd5b8035906020019184600183028401116401000000008311171561080b57600080fd5b91908080601f016020809104026020016040519081016040528093929190818152602001838380828437600081840152601f19601f8201169050808301925050505050505091929192905050506117ea565b005b610867611a02565b604051808273ffffffffffffffffffffffffffffffffffffffff1673ffffffffffffffffffffffffffffffffffffffff16815260200191505060405180910390f35b610962600480360360208110156108bf57600080fd5b81019080803590602001906401000000008111156108dc57600080fd5b8201836020820111156108ee57600080fd5b8035906020019184600183028401116401000000008311171561091057600080fd5b91908080601f016020809104026020016040519081016040528093929190818152602001838380828437600081840152601f19601f820116905080830192505050505050509192919290505050611a27565b6040518080602001828103825283818151815260200191508051906020019080838360005b838110156109a2578082015181840152602081019050610987565b50505050905090810190601f1680156109cf5780820380516001836020036101000a031916815260200191505b509250505060405180910390f35b610a1f600480360360208110156109f357600080fd5b81019080803573ffffffffffffffffffffffffffffffffffffffff169060200190929190505050611a31565b60405180806020018373ffffffffffffffffffffffffffffffffffffffff1673ffffffffffffffffffffffffffffffffffffffff168152602001828103825284818151815260200191508051906020019080838360005b83811015610a91578082015181840152602081019050610a76565b50505050905090810190601f168015610abe5780820380516001836020036101000a031916815260200191505b50935050505060405180910390f35b60078054600181600116156101000203166002900480601f016020809104026020016040519081016040528092919081815260200182805460018160011615610100020316600290048015610b635780601f10610b3857610100808354040283529160200191610b63565b820191906000526020600020905b815481529060010190602001808311610b4657829003601f168201915b505050505081565b6004602052806000526040600020600091509050806000018054600181600116156101000203166002900480601f016020809104026020016040519081016040528092919081815260200182805460018160011615610100020316600290048015610c175780601f10610bec57610100808354040283529160200191610c17565b820191906000526020600020905b815481529060010190602001808311610bfa57829003601f168201915b5050505050908060010160009054906101000a900473ffffffffffffffffffffffffffffffffffffffff16905082565b606080610c52611b0d565b600460008573ffffffffffffffffffffffffffffffffffffffff1673ffffffffffffffffffffffffffffffffffffffff168152602001908152602001600020604051806060016040529081600082018054600181600116156101000203166002900480601f016020809104026020016040519081016040528092919081815260200182805460018160011615610100020316600290048015610d355780601f10610d0a57610100808354040283529160200191610d35565b820191906000526020600020905b815481529060010190602001808311610d1857829003601f168201915b505050505081526020016001820160009054906101000a900473ffffffffffffffffffffffffffffffffffffffff1673ffffffffffffffffffffffffffffffffffffffff1673ffffffffffffffffffffffffffffffffffffffff16815260200160028201805480602002602001604051908101604052809291908181526020016000905b82821015610e75578382906000526020600020018054600181600116156101000203166002900480601f016020809104026020016040519081016040528092919081815260200182805460018160011615610100020316600290048015610e615780601f10610e3657610100808354040283529160200191610e61565b820191906000526020600020905b815481529060010190602001808311610e4457829003601f168201915b505050505081526020019060010190610db9565b50505050815250509050610e87611b44565b600360008673ffffffffffffffffffffffffffffffffffffffff1673ffffffffffffffffffffffffffffffffffffffff168152602001908152602001600020604051806040016040529081600082018054600181600116156101000203166002900480601f016020809104026020016040519081016040528092919081815260200182805460018160011615610100020316600290048015610f6a5780601f10610f3f57610100808354040283529160200191610f6a565b820191906000526020600020905b815481529060010190602001808311610f4d57829003601f168201915b505050505081526020016001820160009054906101000a900473ffffffffffffffffffffffffffffffffffffffff1673ffffffffffffffffffffffffffffffffffffffff1673ffffffffffffffffffffffffffffffffffffffff16815250509050600073ffffffffffffffffffffffffffffffffffffffff16826020015173ffffffffffffffffffffffffffffffffffffffff16111561104d5781600001518090506040518060400160405280600781526020017f70617469656e740000000000000000000000000000000000000000000000000081525093509350505061111c565b600073ffffffffffffffffffffffffffffffffffffffff16816020015173ffffffffffffffffffffffffffffffffffffffff1611156110cf5780600001518090506040518060400160405280600681526020017f646f63746f72000000000000000000000000000000000000000000000000000081525093509350505061111c565b6040518060400160405280600181526020017f2000000000000000000000000000000000000000000000000000000000000000815250604051806020016040528060008152509350935050505b915091565b6000600160008154809291906001019190505550600154905090565b600581805160208101820180518482526020830160208501208183528095505050505050600091509050806000015490806001018054600181600116156101000203166002900480601f0160208091040260200160405190810160405280929190818152602001828054600181600116156101000203166002900480156112055780601f106111da57610100808354040283529160200191611205565b820191906000526020600020905b8154815290600101906020018083116111e857829003601f168201915b505050505090806002018054600181600116156101000203166002900480601f0160208091040260200160405190810160405280929190818152602001828054600181600116156101000203166002900480156112a35780601f10611278576101008083540402835291602001916112a3565b820191906000526020600020905b81548152906001019060200180831161128657829003601f168201915b5050505050908060030160009054906101000a900473ffffffffffffffffffffffffffffffffffffffff16905084565b60608060008360ff1614156116bf576112ea611b0d565b600460003373ffffffffffffffffffffffffffffffffffffffff1673ffffffffffffffffffffffffffffffffffffffff168152602001908152602001600020604051806060016040529081600082018054600181600116156101000203166002900480601f0160208091040260200160405190810160405280929190818152602001828054600181600116156101000203166002900480156113cd5780601f106113a2576101008083540402835291602001916113cd565b820191906000526020600020905b8154815290600101906020018083116113b057829003601f168201915b505050505081526020016001820160009054906101000a900473ffffffffffffffffffffffffffffffffffffffff1673ffffffffffffffffffffffffffffffffffffffff1673ffffffffffffffffffffffffffffffffffffffff16815260200160028201805480602002602001604051908101604052809291908181526020016000905b8282101561150d578382906000526020600020018054600181600116156101000203166002900480601f0160208091040260200160405190810160405280929190818152602001828054600181600116156101000203166002900480156114f95780601f106114ce576101008083540402835291602001916114f9565b820191906000526020600020905b8154815290600101906020018083116114dc57829003601f168201915b505050505081526020019060010190611451565b50505050815250509050600073ffffffffffffffffffffffffffffffffffffffff16816020015173ffffffffffffffffffffffffffffffffffffffff16111561155557600080fd5b60405180606001604052808681526020013373ffffffffffffffffffffffffffffffffffffffff16815260200160006040519080825280602002602001820160405280156115b757816020015b60608152602001906001900390816115a25790505b50815250600460003373ffffffffffffffffffffffffffffffffffffffff1673ffffffffffffffffffffffffffffffffffffffff1681526020019081526020016000206000820151816000019080519060200190611616929190611b74565b5060208201518160010160006101000a81548173ffffffffffffffffffffffffffffffffffffffff021916908373ffffffffffffffffffffffffffffffffffffffff160217905550604082015181600201908051906020019061167a929190611bf4565b50905050846040518060400160405280600781526020017f70617469656e740000000000000000000000000000000000000000000000000081525092509250506117dd565b60018360ff1614156117dc5760405180604001604052808581526020013373ffffffffffffffffffffffffffffffffffffffff16815250600360003373ffffffffffffffffffffffffffffffffffffffff1673ffffffffffffffffffffffffffffffffffffffff1681526020019081526020016000206000820151816000019080519060200190611751929190611b74565b5060208201518160010160006101000a81548173ffffffffffffffffffffffffffffffffffffffff021916908373ffffffffffffffffffffffffffffffffffffffff160217905550905050836040518060400160405280600681526020017f646f63746f720000000000000000000000000000000000000000000000000000815250915091506117dd565b5b9250929050565b60015481565b6040518060a0016040528060025481526020018381526020018281526020013373ffffffffffffffffffffffffffffffffffffffff16815260200160006040519080825280602002602001820160405280156118555781602001602082028038833980820191505090505b508152506005826040518082805190602001908083835b6020831061188f578051825260208201915060208101905060208303925061186c565b6001836020036101000a03801982511681845116808217855250505050505090500191505090815260200160405180910390206000820151816000015560208201518160010190805190602001906118e8929190611b74565b506040820151816002019080519060200190611905929190611b74565b5060608201518160030160006101000a81548173ffffffffffffffffffffffffffffffffffffffff021916908373ffffffffffffffffffffffffffffffffffffffff1602179055506080820151816004019080519060200190611969929190611c54565b50905050600460003373ffffffffffffffffffffffffffffffffffffffff1673ffffffffffffffffffffffffffffffffffffffff1681526020019081526020016000206002018190806001815401808255809150509060018203906000526020600020016000909192909190915090805190602001906119ea929190611cde565b50506002600081548092919060010191905055505050565b6000809054906101000a900473ffffffffffffffffffffffffffffffffffffffff1681565b6060819050919050565b6003602052806000526040600020600091509050806000018054600181600116156101000203166002900480601f016020809104026020016040519081016040528092919081815260200182805460018160011615610100020316600290048015611add5780601f10611ab257610100808354040283529160200191611add565b820191906000526020600020905b815481529060010190602001808311611ac057829003601f168201915b5050505050908060010160009054906101000a900473ffffffffffffffffffffffffffffffffffffffff16905082565b604051806060016040528060608152602001600073ffffffffffffffffffffffffffffffffffffffff168152602001606081525090565b604051806040016040528060608152602001600073ffffffffffffffffffffffffffffffffffffffff1681525090565b828054600181600116156101000203166002900490600052602060002090601f016020900481019282601f10611bb557805160ff1916838001178555611be3565b82800160010185558215611be3579182015b82811115611be2578251825591602001919060010190611bc7565b5b509050611bf09190611d5e565b5090565b828054828255906000526020600020908101928215611c43579160200282015b82811115611c42578251829080519060200190611c32929190611b74565b5091602001919060010190611c14565b5b509050611c509190611d83565b5090565b828054828255906000526020600020908101928215611ccd579160200282015b82811115611ccc5782518260006101000a81548173ffffffffffffffffffffffffffffffffffffffff021916908373ffffffffffffffffffffffffffffffffffffffff16021790555091602001919060010190611c74565b5b509050611cda9190611daf565b5090565b828054600181600116156101000203166002900490600052602060002090601f016020900481019282601f10611d1f57805160ff1916838001178555611d4d565b82800160010185558215611d4d579182015b82811115611d4c578251825591602001919060010190611d31565b5b509050611d5a9190611d5e565b5090565b611d8091905b80821115611d7c576000816000905550600101611d64565b5090565b90565b611dac91905b80821115611da85760008181611d9f9190611df2565b50600101611d89565b5090565b90565b611def91905b80821115611deb57600081816101000a81549073ffffffffffffffffffffffffffffffffffffffff021916905550600101611db5565b5090565b90565b50805460018160011615610100020316600290046000825580601f10611e185750611e37565b601f016020900490600052602060002090810190611e369190611d5e565b5b5056fea265627a7a72315820c84f0616423d6167da2dd595d956e1bd9ff2847ab0e822fcc4f1cd148b373c4264736f6c63430005100032",
  "source": "pragma solidity ^0.5.16;\r\n\r\ncontract Healthblock {\r\n  address public owner;\r\n  uint public number=0;\r\n  uint report_count=0;\r\n  mapping (address => doctor)  public doctors;\r\n  mapping (address => patient) public patients;\r\n  mapping (string => report) public reports; \r\n  mapping (uint=>report) reportlist;\r\n  string public name = \"Healthblock\";\r\n  struct report {\r\n      uint id;\r\n      string name;\r\n      string report_hash;\r\n      address owner;\r\n      address[] doctors_assigned;\r\n    }\r\n  \r\n  struct patient {\r\n      string name;\r\n      address id;\r\n      string[] reports;\r\n  }\r\n  struct doctor {\r\n      string name;\r\n      address id;\r\n\r\n  }\r\n  constructor() public {\r\n    owner = msg.sender;\r\n  }\r\n  function add() public returns(uint){\r\n      number ++;\r\n      return(number);\r\n  }\r\n  function hello(string memory _test) public returns(string memory){\r\n      return (_test);   \r\n  }\r\n  function register(string memory _name, uint8 member) public returns(string memory,string memory){\r\n    if (member==0){\r\n        patient memory p = patients[msg.sender];\r\n        require(!(p.id > address(0x0)));\r\n        patients[msg.sender] = patient({name:_name,id:msg.sender,reports:new string[](0)});   \r\n        return (_name,\"patient\");\r\n        }\r\n    else if (member==1){\r\n      doctors[msg.sender] = doctor({name:_name,id:msg.sender});\r\n      return (_name,\"doctor\");\r\n        }\r\n    }\r\n  function getProfile(address _user) public  returns(string memory, string memory){\r\n      patient memory p = patients[_user];\r\n      doctor memory d = doctors[_user];\r\n      if(p.id > address(0x0))\r\n          return (p.name, 'patient');\r\n      else if(d.id > address(0x0))\r\n          return (d.name, 'doctor');\r\n      else\r\n          return (' ', '');\r\n  }\r\n  function uploadReport(string memory _name,string memory _reporthash) public {\r\n    reports[_reporthash ]=report({id:report_count,name:_name,report_hash:_reporthash,owner:msg.sender,doctors_assigned:new address[](0)});\r\n    patients[msg.sender].reports.push(_reporthash);\r\n    report_count++;\r\n  }\r\n  \r\n} ",
  "sourcePath": "C:/Users/kumar/major-project/healthblock/src/contracts/Healthblock.sol",
  "compiler": {
    "name": "solc",
    "version": "0.5.16+commit.9c3226ce.Emscripten.clang"
  },
  "schemaVersion": "3.3.3",
  "updatedAt": "2020-12-26T18:28:28.364Z",
  "devdoc": {
    "methods": {}
  },
  "userdoc": {
    "methods": {}
  }
}