{
  "contractName": "Healthblock",
  "abi": [
    {
      "inputs": [],
      "payable": false,
      "stateMutability": "nonpayable",
      "type": "constructor"
    },
    {
      "constant": true,
      "inputs": [
        {
          "internalType": "address",
          "name": "",
          "type": "address"
        }
      ],
      "name": "doctoReport",
      "outputs": [
        {
          "internalType": "uint256",
          "name": "id",
          "type": "uint256"
        },
        {
          "internalType": "string",
          "name": "name",
          "type": "string"
        },
        {
          "internalType": "string",
          "name": "report_hash",
          "type": "string"
        },
        {
          "internalType": "address",
          "name": "owner",
          "type": "address"
        }
      ],
      "payable": false,
      "stateMutability": "view",
      "type": "function"
    },
    {
      "constant": true,
      "inputs": [
        {
          "internalType": "address",
          "name": "",
          "type": "address"
        }
      ],
      "name": "doctors",
      "outputs": [
        {
          "internalType": "string",
          "name": "name",
          "type": "string"
        },
        {
          "internalType": "address",
          "name": "id",
          "type": "address"
        }
      ],
      "payable": false,
      "stateMutability": "view",
      "type": "function"
    },
    {
      "constant": true,
      "inputs": [],
      "name": "name",
      "outputs": [
        {
          "internalType": "string",
          "name": "",
          "type": "string"
        }
      ],
      "payable": false,
      "stateMutability": "view",
      "type": "function"
    },
    {
      "constant": true,
      "inputs": [],
      "name": "number",
      "outputs": [
        {
          "internalType": "uint256",
          "name": "",
          "type": "uint256"
        }
      ],
      "payable": false,
      "stateMutability": "view",
      "type": "function"
    },
    {
      "constant": true,
      "inputs": [],
      "name": "owner",
      "outputs": [
        {
          "internalType": "address",
          "name": "",
          "type": "address"
        }
      ],
      "payable": false,
      "stateMutability": "view",
      "type": "function"
    },
    {
      "constant": true,
      "inputs": [
        {
          "internalType": "address",
          "name": "",
          "type": "address"
        }
      ],
      "name": "patients",
      "outputs": [
        {
          "internalType": "string",
          "name": "name",
          "type": "string"
        },
        {
          "internalType": "address",
          "name": "id",
          "type": "address"
        }
      ],
      "payable": false,
      "stateMutability": "view",
      "type": "function"
    },
    {
      "constant": true,
      "inputs": [],
      "name": "report_count",
      "outputs": [
        {
          "internalType": "uint256",
          "name": "",
          "type": "uint256"
        }
      ],
      "payable": false,
      "stateMutability": "view",
      "type": "function"
    },
    {
      "constant": true,
      "inputs": [
        {
          "internalType": "uint256",
          "name": "",
          "type": "uint256"
        }
      ],
      "name": "reportlist",
      "outputs": [
        {
          "internalType": "uint256",
          "name": "id",
          "type": "uint256"
        },
        {
          "internalType": "string",
          "name": "name",
          "type": "string"
        },
        {
          "internalType": "string",
          "name": "report_hash",
          "type": "string"
        },
        {
          "internalType": "address",
          "name": "owner",
          "type": "address"
        }
      ],
      "payable": false,
      "stateMutability": "view",
      "type": "function"
    },
    {
      "constant": true,
      "inputs": [
        {
          "internalType": "string",
          "name": "",
          "type": "string"
        }
      ],
      "name": "reports",
      "outputs": [
        {
          "internalType": "uint256",
          "name": "id",
          "type": "uint256"
        },
        {
          "internalType": "string",
          "name": "name",
          "type": "string"
        },
        {
          "internalType": "string",
          "name": "report_hash",
          "type": "string"
        },
        {
          "internalType": "address",
          "name": "owner",
          "type": "address"
        }
      ],
      "payable": false,
      "stateMutability": "view",
      "type": "function"
    },
    {
      "constant": false,
      "inputs": [],
      "name": "add",
      "outputs": [
        {
          "internalType": "uint256",
          "name": "",
          "type": "uint256"
        }
      ],
      "payable": false,
      "stateMutability": "nonpayable",
      "type": "function"
    },
    {
      "constant": false,
      "inputs": [
        {
          "internalType": "string",
          "name": "_name",
          "type": "string"
        },
        {
          "internalType": "uint8",
          "name": "member",
          "type": "uint8"
        }
      ],
      "name": "register",
      "outputs": [
        {
          "internalType": "string",
          "name": "",
          "type": "string"
        },
        {
          "internalType": "string",
          "name": "",
          "type": "string"
        }
      ],
      "payable": false,
      "stateMutability": "nonpayable",
      "type": "function"
    },
    {
      "constant": true,
      "inputs": [
        {
          "internalType": "address",
          "name": "_user",
          "type": "address"
        }
      ],
      "name": "getProfile",
      "outputs": [
        {
          "internalType": "string",
          "name": "",
          "type": "string"
        },
        {
          "internalType": "string",
          "name": "",
          "type": "string"
        }
      ],
      "payable": false,
      "stateMutability": "view",
      "type": "function"
    },
    {
      "constant": false,
      "inputs": [
        {
          "internalType": "string",
          "name": "_name",
          "type": "string"
        },
        {
          "internalType": "string",
          "name": "_reporthash",
          "type": "string"
        }
      ],
      "name": "uploadReport",
      "outputs": [],
      "payable": false,
      "stateMutability": "nonpayable",
      "type": "function"
    },
    {
      "constant": true,
      "inputs": [],
      "name": "getReports",
      "outputs": [
        {
          "internalType": "string[]",
          "name": "",
          "type": "string[]"
        }
      ],
      "payable": false,
      "stateMutability": "view",
      "type": "function"
    },
    {
      "constant": false,
      "inputs": [
        {
          "internalType": "uint256",
          "name": "_id",
          "type": "uint256"
        },
        {
          "internalType": "address",
          "name": "_docAddress",
          "type": "address"
        }
      ],
      "name": "grantAccess",
      "outputs": [],
      "payable": false,
      "stateMutability": "nonpayable",
      "type": "function"
    }
  ],
  "bytecode": "0x6080604052600060015560006002556040518060400160405280600b81526020017f4865616c7468626c6f636b000000000000000000000000000000000000000000815250600890805190602001906200005b929190620000b0565b503480156200006957600080fd5b50336000806101000a81548173ffffffffffffffffffffffffffffffffffffffff021916908373ffffffffffffffffffffffffffffffffffffffff1602179055506200015f565b828054600181600116156101000203166002900490600052602060002090601f016020900481019282601f10620000f357805160ff191683800117855562000124565b8280016001018555821562000124579182015b828111156200012357825182559160200191906001019062000106565b5b50905062000133919062000137565b5090565b6200015c91905b80821115620001585760008160009055506001016200013e565b5090565b90565b612458806200016f6000396000f3fe608060405234801561001057600080fd5b50600436106100f55760003560e01c806365dd152c116100975780638cbe62d5116100665780638cbe62d5146102ba5780638da5cb5b146102d6578063a3c86daf146102f4578063a9583c2214610312576100f5565b806365dd152c1461021c57806374f6c0d214610238578063767b79ed1461026b5780638381f58a1461029c576100f5565b806325995280116100d3578063259952801461017a57806329aff520146101ad5780634f2be91f146101cb57806364cceaef146101e9576100f5565b806306fdde03146100fa5780630869cfbc146101185780630f53a47014610149575b600080fd5b610102610343565b60405161010f919061213c565b60405180910390f35b610132600480360361012d9190810190611dd6565b6103e1565b604051610140929190612195565b60405180910390f35b610163600480360361015e9190810190611dd6565b6104bd565b60405161017192919061215e565b60405180910390f35b610194600480360361018f9190810190611f00565b610997565b6040516101a494939291906121e0565b60405180910390f35b6101b5610b17565b6040516101c291906121c5565b60405180910390f35b6101d3610b1d565b6040516101e091906121c5565b60405180910390f35b61020360048036036101fe9190810190611dff565b610b39565b60405161021394939291906121e0565b60405180910390f35b61023660048036036102319190810190611f29565b610ccf565b005b610252600480360361024d9190810190611dd6565b610d4d565b60405161026294939291906121e0565b60405180910390f35b61028560048036036102809190810190611eac565b610ecd565b60405161029392919061215e565b60405180910390f35b6102a46113de565b6040516102b191906121c5565b60405180910390f35b6102d460048036036102cf9190810190611e40565b6113e4565b005b6102de6116bf565b6040516102eb91906120ff565b60405180910390f35b6102fc6116e4565b604051610309919061211a565b60405180910390f35b61032c60048036036103279190810190611dd6565b61180d565b60405161033a929190612195565b60405180910390f35b60088054600181600116156101000203166002900480601f0160208091040260200160405190810160405280929190818152602001828054600181600116156101000203166002900480156103d95780601f106103ae576101008083540402835291602001916103d9565b820191906000526020600020905b8154815290600101906020018083116103bc57829003601f168201915b505050505081565b6004602052806000526040600020600091509050806000018054600181600116156101000203166002900480601f01602080910402602001604051908101604052809291908181526020018280546001816001161561010002031660029004801561048d5780601f106104625761010080835404028352916020019161048d565b820191906000526020600020905b81548152906001019060200180831161047057829003601f168201915b5050505050908060010160009054906101000a900473ffffffffffffffffffffffffffffffffffffffff16905082565b6060806104c86118e9565b600460008573ffffffffffffffffffffffffffffffffffffffff1673ffffffffffffffffffffffffffffffffffffffff168152602001908152602001600020604051806060016040529081600082018054600181600116156101000203166002900480601f0160208091040260200160405190810160405280929190818152602001828054600181600116156101000203166002900480156105ab5780601f10610580576101008083540402835291602001916105ab565b820191906000526020600020905b81548152906001019060200180831161058e57829003601f168201915b505050505081526020016001820160009054906101000a900473ffffffffffffffffffffffffffffffffffffffff1673ffffffffffffffffffffffffffffffffffffffff1673ffffffffffffffffffffffffffffffffffffffff16815260200160028201805480602002602001604051908101604052809291908181526020016000905b828210156106eb578382906000526020600020018054600181600116156101000203166002900480601f0160208091040260200160405190810160405280929190818152602001828054600181600116156101000203166002900480156106d75780601f106106ac576101008083540402835291602001916106d7565b820191906000526020600020905b8154815290600101906020018083116106ba57829003601f168201915b50505050508152602001906001019061062f565b505050508152505090506106fd611920565b600360008673ffffffffffffffffffffffffffffffffffffffff1673ffffffffffffffffffffffffffffffffffffffff168152602001908152602001600020604051806040016040529081600082018054600181600116156101000203166002900480601f0160208091040260200160405190810160405280929190818152602001828054600181600116156101000203166002900480156107e05780601f106107b5576101008083540402835291602001916107e0565b820191906000526020600020905b8154815290600101906020018083116107c357829003601f168201915b505050505081526020016001820160009054906101000a900473ffffffffffffffffffffffffffffffffffffffff1673ffffffffffffffffffffffffffffffffffffffff1673ffffffffffffffffffffffffffffffffffffffff16815250509050600073ffffffffffffffffffffffffffffffffffffffff16826020015173ffffffffffffffffffffffffffffffffffffffff1611156108c35781600001518090506040518060400160405280600781526020017f70617469656e7400000000000000000000000000000000000000000000000000815250935093505050610992565b600073ffffffffffffffffffffffffffffffffffffffff16816020015173ffffffffffffffffffffffffffffffffffffffff1611156109455780600001518090506040518060400160405280600681526020017f646f63746f720000000000000000000000000000000000000000000000000000815250935093505050610992565b6040518060400160405280600181526020017f2000000000000000000000000000000000000000000000000000000000000000815250604051806020016040528060008152509350935050505b915091565b6006602052806000526040600020600091509050806000015490806001018054600181600116156101000203166002900480601f016020809104026020016040519081016040528092919081815260200182805460018160011615610100020316600290048015610a495780601f10610a1e57610100808354040283529160200191610a49565b820191906000526020600020905b815481529060010190602001808311610a2c57829003601f168201915b505050505090806002018054600181600116156101000203166002900480601f016020809104026020016040519081016040528092919081815260200182805460018160011615610100020316600290048015610ae75780601f10610abc57610100808354040283529160200191610ae7565b820191906000526020600020905b815481529060010190602001808311610aca57829003601f168201915b5050505050908060030160009054906101000a900473ffffffffffffffffffffffffffffffffffffffff16905084565b60025481565b6000600160008154809291906001019190505550600154905090565b600581805160208101820180518482526020830160208501208183528095505050505050600091509050806000015490806001018054600181600116156101000203166002900480601f016020809104026020016040519081016040528092919081815260200182805460018160011615610100020316600290048015610c015780601f10610bd657610100808354040283529160200191610c01565b820191906000526020600020905b815481529060010190602001808311610be457829003601f168201915b505050505090806002018054600181600116156101000203166002900480601f016020809104026020016040519081016040528092919081815260200182805460018160011615610100020316600290048015610c9f5780601f10610c7457610100808354040283529160200191610c9f565b820191906000526020600020905b815481529060010190602001808311610c8257829003601f168201915b5050505050908060030160009054906101000a900473ffffffffffffffffffffffffffffffffffffffff16905084565b600660008381526020019081526020016000206004018190806001815401808255809150509060018203906000526020600020016000909192909190916101000a81548173ffffffffffffffffffffffffffffffffffffffff021916908373ffffffffffffffffffffffffffffffffffffffff160217905550505050565b6007602052806000526040600020600091509050806000015490806001018054600181600116156101000203166002900480601f016020809104026020016040519081016040528092919081815260200182805460018160011615610100020316600290048015610dff5780601f10610dd457610100808354040283529160200191610dff565b820191906000526020600020905b815481529060010190602001808311610de257829003601f168201915b505050505090806002018054600181600116156101000203166002900480601f016020809104026020016040519081016040528092919081815260200182805460018160011615610100020316600290048015610e9d5780601f10610e7257610100808354040283529160200191610e9d565b820191906000526020600020905b815481529060010190602001808311610e8057829003601f168201915b5050505050908060030160009054906101000a900473ffffffffffffffffffffffffffffffffffffffff16905084565b60608060008360ff1614156112b957610ee46118e9565b600460003373ffffffffffffffffffffffffffffffffffffffff1673ffffffffffffffffffffffffffffffffffffffff168152602001908152602001600020604051806060016040529081600082018054600181600116156101000203166002900480601f016020809104026020016040519081016040528092919081815260200182805460018160011615610100020316600290048015610fc75780601f10610f9c57610100808354040283529160200191610fc7565b820191906000526020600020905b815481529060010190602001808311610faa57829003601f168201915b505050505081526020016001820160009054906101000a900473ffffffffffffffffffffffffffffffffffffffff1673ffffffffffffffffffffffffffffffffffffffff1673ffffffffffffffffffffffffffffffffffffffff16815260200160028201805480602002602001604051908101604052809291908181526020016000905b82821015611107578382906000526020600020018054600181600116156101000203166002900480601f0160208091040260200160405190810160405280929190818152602001828054600181600116156101000203166002900480156110f35780601f106110c8576101008083540402835291602001916110f3565b820191906000526020600020905b8154815290600101906020018083116110d657829003601f168201915b50505050508152602001906001019061104b565b50505050815250509050600073ffffffffffffffffffffffffffffffffffffffff16816020015173ffffffffffffffffffffffffffffffffffffffff16111561114f57600080fd5b60405180606001604052808681526020013373ffffffffffffffffffffffffffffffffffffffff16815260200160006040519080825280602002602001820160405280156111b157816020015b606081526020019060019003908161119c5790505b50815250600460003373ffffffffffffffffffffffffffffffffffffffff1673ffffffffffffffffffffffffffffffffffffffff1681526020019081526020016000206000820151816000019080519060200190611210929190611950565b5060208201518160010160006101000a81548173ffffffffffffffffffffffffffffffffffffffff021916908373ffffffffffffffffffffffffffffffffffffffff16021790555060408201518160020190805190602001906112749291906119d0565b50905050846040518060400160405280600781526020017f70617469656e740000000000000000000000000000000000000000000000000081525092509250506113d7565b60018360ff1614156113d65760405180604001604052808581526020013373ffffffffffffffffffffffffffffffffffffffff16815250600360003373ffffffffffffffffffffffffffffffffffffffff1673ffffffffffffffffffffffffffffffffffffffff168152602001908152602001600020600082015181600001908051906020019061134b929190611950565b5060208201518160010160006101000a81548173ffffffffffffffffffffffffffffffffffffffff021916908373ffffffffffffffffffffffffffffffffffffffff160217905550905050836040518060400160405280600681526020017f646f63746f720000000000000000000000000000000000000000000000000000815250915091506113d7565b5b9250929050565b60015481565b6040518060a0016040528060025481526020018381526020018281526020013373ffffffffffffffffffffffffffffffffffffffff168152602001600060405190808252806020026020018201604052801561144f5781602001602082028038833980820191505090505b5081525060058260405161146391906120e8565b9081526020016040518091039020600082015181600001556020820151816001019080519060200190611497929190611950565b5060408201518160020190805190602001906114b4929190611950565b5060608201518160030160006101000a81548173ffffffffffffffffffffffffffffffffffffffff021916908373ffffffffffffffffffffffffffffffffffffffff1602179055506080820151816004019080519060200190611518929190611a30565b50905050600460003373ffffffffffffffffffffffffffffffffffffffff1673ffffffffffffffffffffffffffffffffffffffff168152602001908152602001600020600201819080600181540180825580915050906001820390600052602060002001600090919290919091509080519060200190611599929190611aba565b50506005816040516115ab91906120e8565b908152602001604051809103902060066000600254815260200190815260200160002060008201548160000155600182018160010190805460018160011615610100020316600290046115ff929190611b3a565b5060028201816002019080546001816001161561010002031660029004611627929190611b3a565b506003820160009054906101000a900473ffffffffffffffffffffffffffffffffffffffff168160030160006101000a81548173ffffffffffffffffffffffffffffffffffffffff021916908373ffffffffffffffffffffffffffffffffffffffff16021790555060048201816004019080546116a5929190611bc1565b509050506002600081548092919060010191905055505050565b6000809054906101000a900473ffffffffffffffffffffffffffffffffffffffff1681565b6060600460003373ffffffffffffffffffffffffffffffffffffffff1673ffffffffffffffffffffffffffffffffffffffff168152602001908152602001600020600201805480602002602001604051908101604052809291908181526020016000905b82821015611804578382906000526020600020018054600181600116156101000203166002900480601f0160208091040260200160405190810160405280929190818152602001828054600181600116156101000203166002900480156117f05780601f106117c5576101008083540402835291602001916117f0565b820191906000526020600020905b8154815290600101906020018083116117d357829003601f168201915b505050505081526020019060010190611748565b50505050905090565b6003602052806000526040600020600091509050806000018054600181600116156101000203166002900480601f0160208091040260200160405190810160405280929190818152602001828054600181600116156101000203166002900480156118b95780601f1061188e576101008083540402835291602001916118b9565b820191906000526020600020905b81548152906001019060200180831161189c57829003601f168201915b5050505050908060010160009054906101000a900473ffffffffffffffffffffffffffffffffffffffff16905082565b604051806060016040528060608152602001600073ffffffffffffffffffffffffffffffffffffffff168152602001606081525090565b604051806040016040528060608152602001600073ffffffffffffffffffffffffffffffffffffffff1681525090565b828054600181600116156101000203166002900490600052602060002090601f016020900481019282601f1061199157805160ff19168380011785556119bf565b828001600101855582156119bf579182015b828111156119be5782518255916020019190600101906119a3565b5b5090506119cc9190611c13565b5090565b828054828255906000526020600020908101928215611a1f579160200282015b82811115611a1e578251829080519060200190611a0e929190611950565b50916020019190600101906119f0565b5b509050611a2c9190611c38565b5090565b828054828255906000526020600020908101928215611aa9579160200282015b82811115611aa85782518260006101000a81548173ffffffffffffffffffffffffffffffffffffffff021916908373ffffffffffffffffffffffffffffffffffffffff16021790555091602001919060010190611a50565b5b509050611ab69190611c64565b5090565b828054600181600116156101000203166002900490600052602060002090601f016020900481019282601f10611afb57805160ff1916838001178555611b29565b82800160010185558215611b29579182015b82811115611b28578251825591602001919060010190611b0d565b5b509050611b369190611c13565b5090565b828054600181600116156101000203166002900490600052602060002090601f016020900481019282601f10611b735780548555611bb0565b82800160010185558215611bb057600052602060002091601f016020900482015b82811115611baf578254825591600101919060010190611b94565b5b509050611bbd9190611c13565b5090565b828054828255906000526020600020908101928215611c025760005260206000209182015b82811115611c01578254825591600101919060010190611be6565b5b509050611c0f9190611c64565b5090565b611c3591905b80821115611c31576000816000905550600101611c19565b5090565b90565b611c6191905b80821115611c5d5760008181611c549190611ca7565b50600101611c3e565b5090565b90565b611ca491905b80821115611ca057600081816101000a81549073ffffffffffffffffffffffffffffffffffffffff021916905550600101611c6a565b5090565b90565b50805460018160011615610100020316600290046000825580601f10611ccd5750611cec565b601f016020900490600052602060002090810190611ceb9190611c13565b5b50565b600081359050611cfe816123d0565b92915050565b600082601f830112611d1557600080fd5b8135611d28611d2382612260565b612233565b91508082526020830160208301858383011115611d4457600080fd5b611d4f83828461237d565b50505092915050565b600082601f830112611d6957600080fd5b8135611d7c611d778261228c565b612233565b91508082526020830160208301858383011115611d9857600080fd5b611da383828461237d565b50505092915050565b600081359050611dbb816123e7565b92915050565b600081359050611dd0816123fe565b92915050565b600060208284031215611de857600080fd5b6000611df684828501611cef565b91505092915050565b600060208284031215611e1157600080fd5b600082013567ffffffffffffffff811115611e2b57600080fd5b611e3784828501611d04565b91505092915050565b60008060408385031215611e5357600080fd5b600083013567ffffffffffffffff811115611e6d57600080fd5b611e7985828601611d58565b925050602083013567ffffffffffffffff811115611e9657600080fd5b611ea285828601611d58565b9150509250929050565b60008060408385031215611ebf57600080fd5b600083013567ffffffffffffffff811115611ed957600080fd5b611ee585828601611d58565b9250506020611ef685828601611dc1565b9150509250929050565b600060208284031215611f1257600080fd5b6000611f2084828501611dac565b91505092915050565b60008060408385031215611f3c57600080fd5b6000611f4a85828601611dac565b9250506020611f5b85828601611cef565b9150509250929050565b6000611f718383612067565b905092915050565b611f8281612334565b82525050565b6000611f93826122c8565b611f9d81856122f6565b935083602082028501611faf856122b8565b8060005b85811015611feb5784840389528151611fcc8582611f65565b9450611fd7836122e9565b925060208a01995050600181019050611fb3565b50829750879550505050505092915050565b6000612008826122de565b6120128185612318565b935061202281856020860161238c565b61202b816123bf565b840191505092915050565b6000612041826122de565b61204b8185612329565b935061205b81856020860161238c565b80840191505092915050565b6000612072826122d3565b61207c8185612307565b935061208c81856020860161238c565b612095816123bf565b840191505092915050565b60006120ab826122d3565b6120b58185612318565b93506120c581856020860161238c565b6120ce816123bf565b840191505092915050565b6120e281612366565b82525050565b60006120f48284612036565b915081905092915050565b60006020820190506121146000830184611f79565b92915050565b600060208201905081810360008301526121348184611f88565b905092915050565b6000602082019050818103600083015261215681846120a0565b905092915050565b600060408201905081810360008301526121788185611ffd565b9050818103602083015261218c8184611ffd565b90509392505050565b600060408201905081810360008301526121af81856120a0565b90506121be6020830184611f79565b9392505050565b60006020820190506121da60008301846120d9565b92915050565b60006080820190506121f560008301876120d9565b818103602083015261220781866120a0565b9050818103604083015261221b81856120a0565b905061222a6060830184611f79565b95945050505050565b6000604051905081810181811067ffffffffffffffff8211171561225657600080fd5b8060405250919050565b600067ffffffffffffffff82111561227757600080fd5b601f19601f8301169050602081019050919050565b600067ffffffffffffffff8211156122a357600080fd5b601f19601f8301169050602081019050919050565b6000819050602082019050919050565b600081519050919050565b600081519050919050565b600081519050919050565b6000602082019050919050565b600082825260208201905092915050565b600082825260208201905092915050565b600082825260208201905092915050565b600081905092915050565b600061233f82612346565b9050919050565b600073ffffffffffffffffffffffffffffffffffffffff82169050919050565b6000819050919050565b600060ff82169050919050565b82818337600083830152505050565b60005b838110156123aa57808201518184015260208101905061238f565b838111156123b9576000848401525b50505050565b6000601f19601f8301169050919050565b6123d981612334565b81146123e457600080fd5b50565b6123f081612366565b81146123fb57600080fd5b50565b61240781612370565b811461241257600080fd5b5056fea365627a7a7231582049fc5d6efef54edd4957cf88f0d6262a1fec74014134f08fbc6603137ec3af096c6578706572696d656e74616cf564736f6c63430005100040",
  "source": "pragma solidity ^0.5.16;\r\npragma experimental ABIEncoderV2;\r\n\r\ncontract Healthblock {\r\n  address public owner;\r\n  uint public number=0;\r\n  uint public report_count=0;\r\n  mapping (address => doctor)  public doctors;\r\n  mapping (address => patient) public patients;\r\n  mapping (string => report) public reports; \r\n  mapping (uint=>report) public reportlist;\r\n  mapping (address =>report) public doctoReport;\r\n  string public name = \"Healthblock\";\r\n  struct report {\r\n      uint id;\r\n      string name;\r\n      string report_hash;\r\n      address owner;\r\n      address[] doctors_assigned;\r\n    }\r\n  \r\n  struct patient {\r\n      string name;\r\n      address id;\r\n      string[] reports;\r\n  }\r\n  struct doctor {\r\n      string name;\r\n      address id;\r\n  }\r\n  constructor() public {\r\n    owner = msg.sender;\r\n  }\r\n  function add() public returns(uint){\r\n      number ++;\r\n      return(number);\r\n  }\r\n  function register(string memory _name, uint8 member) public returns(string memory,string memory){\r\n    if (member==0){\r\n        patient memory p = patients[msg.sender];\r\n        require(!(p.id > address(0x0)));\r\n        patients[msg.sender] = patient({name:_name,id:msg.sender,reports:new string[](0)});   \r\n        return (_name,\"patient\");\r\n        }\r\n    else if (member==1){\r\n      doctors[msg.sender] = doctor({name:_name,id:msg.sender});\r\n      return (_name,\"doctor\");\r\n        }\r\n    }\r\n  function getProfile(address _user) public view  returns(string memory, string memory){\r\n      patient memory p = patients[_user];\r\n      doctor memory d = doctors[_user];\r\n      if(p.id > address(0x0))\r\n          return (p.name, 'patient');\r\n      else if(d.id > address(0x0))\r\n          return (d.name, 'doctor');\r\n      else\r\n          return (' ', '');\r\n  }\r\n  function uploadReport(string memory _name,string memory _reporthash) public {\r\n    reports[_reporthash ]=report({id:report_count,name:_name,report_hash:_reporthash,owner:msg.sender,doctors_assigned:new address[](0)});\r\n    patients[msg.sender].reports.push(_reporthash);\r\n    reportlist[report_count]=reports[_reporthash];\r\n    report_count++;\r\n  }\r\n  function getReports() public view returns (string [] memory){\r\n    return patients[msg.sender].reports;\r\n  }\r\n  function grantAccess(uint _id,address  _docAddress) public {\r\n    reportlist[_id].doctors_assigned.push(_docAddress);\r\n  }\r\n} ",
  "sourcePath": "C:/Users/kumar/major-project/healthblock/src/contracts/Healthblock.sol",
  "compiler": {
    "name": "solc",
    "version": "0.5.16+commit.9c3226ce.Emscripten.clang"
  },
  "schemaVersion": "3.3.3",
  "updatedAt": "2020-12-30T08:24:53.253Z",
  "networkType": "ethereum",
  "devdoc": {
    "methods": {}
  },
  "userdoc": {
    "methods": {}
  }
}