{
    "contractName": "Healthblock",
    "abi": [
        {
            "inputs": [],
            "payable": false,
            "stateMutability": "nonpayable",
            "type": "constructor"
        },
        {
            "constant": true,
            "inputs": [],
            "name": "name",
            "outputs": [
                {
                    "internalType": "string",
                    "name": "",
                    "type": "string"
                }
            ],
            "payable": false,
            "stateMutability": "view",
            "type": "function"
        },
        {
            "constant": false,
            "inputs": [
                {
                    "internalType": "string",
                    "name": "_test",
                    "type": "string"
                }
            ],
            "name": "hello",
            "outputs": [
                {
                    "internalType": "string",
                    "name": "",
                    "type": "string"
                }
            ],
            "payable": false,
            "stateMutability": "nonpayable",
            "type": "function"
        },
        {
            "constant": false,
            "inputs": [
                {
                    "internalType": "string",
                    "name": "_name",
                    "type": "string"
                },
                {
                    "internalType": "uint8",
                    "name": "_age",
                    "type": "uint8"
                }
            ],
            "name": "signupPatient",
            "outputs": [],
            "payable": false,
            "stateMutability": "nonpayable",
            "type": "function"
        },
        {
            "constant": false,
            "inputs": [
                {
                    "internalType": "string",
                    "name": "_name",
                    "type": "string"
                }
            ],
            "name": "signupDoctor",
            "outputs": [],
            "payable": false,
            "stateMutability": "nonpayable",
            "type": "function"
        },
        {
            "constant": false,
            "inputs": [
                {
                    "internalType": "address",
                    "name": "doctor_id",
                    "type": "address"
                }
            ],
            "name": "grantAccessToDoctor",
            "outputs": [],
            "payable": false,
            "stateMutability": "nonpayable",
            "type": "function"
        },
        {
            "constant": false,
            "inputs": [
                {
                    "internalType": "string",
                    "name": "_file_name",
                    "type": "string"
                },
                {
                    "internalType": "string",
                    "name": "_file_type",
                    "type": "string"
                },
                {
                    "internalType": "bytes32",
                    "name": "_fileHash",
                    "type": "bytes32"
                },
                {
                    "internalType": "string",
                    "name": "_file_secret",
                    "type": "string"
                }
            ],
            "name": "addFile",
            "outputs": [],
            "payable": false,
            "stateMutability": "nonpayable",
            "type": "function"
        },
        {
            "constant": true,
            "inputs": [],
            "name": "getPatientInfo",
            "outputs": [
                {
                    "internalType": "string",
                    "name": "",
                    "type": "string"
                },
                {
                    "internalType": "uint8",
                    "name": "",
                    "type": "uint8"
                },
                {
                    "internalType": "bytes32[]",
                    "name": "",
                    "type": "bytes32[]"
                },
                {
                    "internalType": "address[]",
                    "name": "",
                    "type": "address[]"
                }
            ],
            "payable": false,
            "stateMutability": "view",
            "type": "function"
        },
        {
            "constant": true,
            "inputs": [],
            "name": "getDoctorInfo",
            "outputs": [
                {
                    "internalType": "string",
                    "name": "",
                    "type": "string"
                },
                {
                    "internalType": "address[]",
                    "name": "",
                    "type": "address[]"
                }
            ],
            "payable": false,
            "stateMutability": "view",
            "type": "function"
        },
        {
            "constant": true,
            "inputs": [
                {
                    "internalType": "address",
                    "name": "_user",
                    "type": "address"
                }
            ],
            "name": "checkProfile",
            "outputs": [
                {
                    "internalType": "string",
                    "name": "",
                    "type": "string"
                },
                {
                    "internalType": "string",
                    "name": "",
                    "type": "string"
                }
            ],
            "payable": false,
            "stateMutability": "view",
            "type": "function"
        },
        {
            "constant": true,
            "inputs": [
                {
                    "internalType": "address",
                    "name": "pat",
                    "type": "address"
                }
            ],
            "name": "getPatientInfoForDoctor",
            "outputs": [
                {
                    "internalType": "string",
                    "name": "",
                    "type": "string"
                },
                {
                    "internalType": "uint8",
                    "name": "",
                    "type": "uint8"
                },
                {
                    "internalType": "address",
                    "name": "",
                    "type": "address"
                },
                {
                    "internalType": "bytes32[]",
                    "name": "",
                    "type": "bytes32[]"
                }
            ],
            "payable": false,
            "stateMutability": "view",
            "type": "function"
        },
        {
            "constant": true,
            "inputs": [
                {
                    "internalType": "bytes32",
                    "name": "fileHashId",
                    "type": "bytes32"
                },
                {
                    "internalType": "string",
                    "name": "role",
                    "type": "string"
                },
                {
                    "internalType": "address",
                    "name": "id",
                    "type": "address"
                },
                {
                    "internalType": "address",
                    "name": "pat",
                    "type": "address"
                }
            ],
            "name": "getFileSecret",
            "outputs": [
                {
                    "internalType": "string",
                    "name": "",
                    "type": "string"
                }
            ],
            "payable": false,
            "stateMutability": "view",
            "type": "function"
        },
        {
            "constant": true,
            "inputs": [
                {
                    "internalType": "address",
                    "name": "doc",
                    "type": "address"
                },
                {
                    "internalType": "address",
                    "name": "pat",
                    "type": "address"
                },
                {
                    "internalType": "bytes32",
                    "name": "fileHashId",
                    "type": "bytes32"
                }
            ],
            "name": "getFileInfoDoctor",
            "outputs": [
                {
                    "internalType": "string",
                    "name": "",
                    "type": "string"
                },
                {
                    "internalType": "string",
                    "name": "",
                    "type": "string"
                }
            ],
            "payable": false,
            "stateMutability": "view",
            "type": "function"
        },
        {
            "constant": true,
            "inputs": [
                {
                    "internalType": "address",
                    "name": "pat",
                    "type": "address"
                },
                {
                    "internalType": "bytes32",
                    "name": "fileHashId",
                    "type": "bytes32"
                }
            ],
            "name": "getFileInfoPatient",
            "outputs": [
                {
                    "internalType": "string",
                    "name": "",
                    "type": "string"
                },
                {
                    "internalType": "string",
                    "name": "",
                    "type": "string"
                }
            ],
            "payable": false,
            "stateMutability": "view",
            "type": "function"
        }
    ],
    "bytecode": "0x60806040526040518060400160405280600b81526020017f4865616c7468626c6f636b0000000000000000000000000000000000000000008152506008908051906020019062000051929190620000a6565b503480156200005f57600080fd5b50336000806101000a81548173ffffffffffffffffffffffffffffffffffffffff021916908373ffffffffffffffffffffffffffffffffffffffff16021790555062000155565b828054600181600116156101000203166002900490600052602060002090601f016020900481019282601f10620000e957805160ff19168380011785556200011a565b828001600101855582156200011a579182015b8281111562000119578251825591602001919060010190620000fc565b5b5090506200012991906200012d565b5090565b6200015291905b808211156200014e57600081600090555060010162000134565b5090565b90565b61513580620001656000396000f3fe608060405234801561001057600080fd5b50600436106100cf5760003560e01c80637f34cf941161008c578063b259832d11610066578063b259832d146109e1578063b380f5c614610b14578063cf954d4514610bdf578063fe59cc1a14610d5d576100cf565b80637f34cf94146105675780639f6a7a11146106ba578063a777d0dc146108ad576100cf565b806301d99258146100d457806306fdde03146101fd5780631c8e251c14610280578063326df664146102c45780636459d52f146103e45780637120203a1461049f575b600080fd5b610116600480360360208110156100ea57600080fd5b81019080803573ffffffffffffffffffffffffffffffffffffffff169060200190929190505050610ea2565b604051808060200180602001838103835285818151815260200191508051906020019080838360005b8381101561015a57808201518184015260208101905061013f565b50505050905090810190601f1680156101875780820380516001836020036101000a031916815260200191505b50838103825284818151815260200191508051906020019080838360005b838110156101c05780820151818401526020810190506101a5565b50505050905090810190601f1680156101ed5780820380516001836020036101000a031916815260200191505b5094505050505060405180910390f35b610205611457565b6040518080602001828103825283818151815260200191508051906020019080838360005b8381101561024557808201518184015260208101905061022a565b50505050905090810190601f1680156102725780820380516001836020036101000a031916815260200191505b509250505060405180910390f35b6102c26004803603602081101561029657600080fd5b81019080803573ffffffffffffffffffffffffffffffffffffffff1690602001909291905050506114f5565b005b6102cc611c0e565b60405180806020018560ff1660ff1681526020018060200180602001848103845288818151815260200191508051906020019080838360005b83811015610320578082015181840152602081019050610305565b50505050905090810190601f16801561034d5780820380516001836020036101000a031916815260200191505b50848103835286818151815260200191508051906020019060200280838360005b8381101561038957808201518184015260208101905061036e565b50505050905001848103825285818151815260200191508051906020019060200280838360005b838110156103cb5780820151818401526020810190506103b0565b5050505090500197505050505050505060405180910390f35b61049d600480360360208110156103fa57600080fd5b810190808035906020019064010000000081111561041757600080fd5b82018360208201111561042957600080fd5b8035906020019184600183028401116401000000008311171561044b57600080fd5b91908080601f016020809104026020016040519081016040528093929190818152602001838380828437600081840152601f19601f82011690508083019250505050505050919291929050505061211f565b005b610565600480360360408110156104b557600080fd5b81019080803590602001906401000000008111156104d257600080fd5b8201836020820111156104e457600080fd5b8035906020019184600183028401116401000000008311171561050657600080fd5b91908080601f016020809104026020016040519081016040528093929190818152602001838380828437600081840152601f19601f820116905080830192505050505050509192919290803560ff1690602001909291905050506124ed565b005b6105d36004803603606081101561057d57600080fd5b81019080803573ffffffffffffffffffffffffffffffffffffffff169060200190929190803573ffffffffffffffffffffffffffffffffffffffff169060200190929190803590602001909291905050506129cd565b604051808060200180602001838103835285818151815260200191508051906020019080838360005b838110156106175780820151818401526020810190506105fc565b50505050905090810190601f1680156106445780820380516001836020036101000a031916815260200191505b50838103825284818151815260200191508051906020019080838360005b8381101561067d578082015181840152602081019050610662565b50505050905090810190601f1680156106aa5780820380516001836020036101000a031916815260200191505b5094505050505060405180910390f35b6108ab600480360360808110156106d057600080fd5b81019080803590602001906401000000008111156106ed57600080fd5b8201836020820111156106ff57600080fd5b8035906020019184600183028401116401000000008311171561072157600080fd5b91908080601f016020809104026020016040519081016040528093929190818152602001838380828437600081840152601f19601f8201169050808301925050505050505091929192908035906020019064010000000081111561078457600080fd5b82018360208201111561079657600080fd5b803590602001918460018302840111640100000000831117156107b857600080fd5b91908080601f016020809104026020016040519081016040528093929190818152602001838380828437600081840152601f19601f820116905080830192505050505050509192919290803590602001909291908035906020019064010000000081111561082557600080fd5b82018360208201111561083757600080fd5b8035906020019184600183028401116401000000008311171561085957600080fd5b91908080601f016020809104026020016040519081016040528093929190818152602001838380828437600081840152601f19601f8201169050808301925050505050505091929192905050506131ee565b005b610966600480360360208110156108c357600080fd5b81019080803590602001906401000000008111156108e057600080fd5b8201836020820111156108f257600080fd5b8035906020019184600183028401116401000000008311171561091457600080fd5b91908080601f016020809104026020016040519081016040528093929190818152602001838380828437600081840152601f19601f820116905080830192505050505050509192919290505050613633565b6040518080602001828103825283818151815260200191508051906020019080838360005b838110156109a657808201518184015260208101905061098b565b50505050905090810190601f1680156109d35780820380516001836020036101000a031916815260200191505b509250505060405180910390f35b610a2d600480360360408110156109f757600080fd5b81019080803573ffffffffffffffffffffffffffffffffffffffff1690602001909291908035906020019092919050505061363d565b604051808060200180602001838103835285818151815260200191508051906020019080838360005b83811015610a71578082015181840152602081019050610a56565b50505050905090810190601f168015610a9e5780820380516001836020036101000a031916815260200191505b50838103825284818151815260200191508051906020019080838360005b83811015610ad7578082015181840152602081019050610abc565b50505050905090810190601f168015610b045780820380516001836020036101000a031916815260200191505b5094505050505060405180910390f35b610b1c613c43565b604051808060200180602001838103835285818151815260200191508051906020019080838360005b83811015610b60578082015181840152602081019050610b45565b50505050905090810190601f168015610b8d5780820380516001836020036101000a031916815260200191505b50838103825284818151815260200191508051906020019060200280838360005b83811015610bc9578082015181840152602081019050610bae565b5050505090500194505050505060405180910390f35b610ce260048036036080811015610bf557600080fd5b810190808035906020019092919080359060200190640100000000811115610c1c57600080fd5b820183602082011115610c2e57600080fd5b80359060200191846001830284011164010000000083111715610c5057600080fd5b91908080601f016020809104026020016040519081016040528093929190818152602001838380828437600081840152601f19601f820116905080830192505050505050509192919290803573ffffffffffffffffffffffffffffffffffffffff169060200190929190803573ffffffffffffffffffffffffffffffffffffffff169060200190929190505050614053565b6040518080602001828103825283818151815260200191508051906020019080838360005b83811015610d22578082015181840152602081019050610d07565b50505050905090810190601f168015610d4f5780820380516001836020036101000a031916815260200191505b509250505060405180910390f35b610d9f60048036036020811015610d7357600080fd5b81019080803573ffffffffffffffffffffffffffffffffffffffff1690602001909291905050506143f3565b60405180806020018560ff1660ff1681526020018473ffffffffffffffffffffffffffffffffffffffff1673ffffffffffffffffffffffffffffffffffffffff16815260200180602001838103835287818151815260200191508051906020019080838360005b83811015610e21578082015181840152602081019050610e06565b50505050905090810190601f168015610e4e5780820380516001836020036101000a031916815260200191505b50838103825284818151815260200191508051906020019060200280838360005b83811015610e8a578082015181840152602081019050610e6f565b50505050905001965050505050505060405180910390f35b6060806000809054906101000a900473ffffffffffffffffffffffffffffffffffffffff1673ffffffffffffffffffffffffffffffffffffffff163373ffffffffffffffffffffffffffffffffffffffff1614610efe57600080fd5b610f06614e7c565b600360008573ffffffffffffffffffffffffffffffffffffffff1673ffffffffffffffffffffffffffffffffffffffff1681526020019081526020016000206040518060a0016040529081600082018054600181600116156101000203166002900480601f016020809104026020016040519081016040528092919081815260200182805460018160011615610100020316600290048015610fe95780601f10610fbe57610100808354040283529160200191610fe9565b820191906000526020600020905b815481529060010190602001808311610fcc57829003601f168201915b505050505081526020016001820160009054906101000a900460ff1660ff1660ff1681526020016001820160019054906101000a900473ffffffffffffffffffffffffffffffffffffffff1673ffffffffffffffffffffffffffffffffffffffff1673ffffffffffffffffffffffffffffffffffffffff168152602001600282018054806020026020016040519081016040528092919081815260200182805480156110b457602002820191906000526020600020905b8154815260200190600101908083116110a0575b505050505081526020016003820180548060200260200160405190810160405280929190818152602001828054801561114257602002820191906000526020600020905b8160009054906101000a900473ffffffffffffffffffffffffffffffffffffffff1673ffffffffffffffffffffffffffffffffffffffff16815260200190600101908083116110f8575b5050505050815250509050611155614ec4565b600160008673ffffffffffffffffffffffffffffffffffffffff1673ffffffffffffffffffffffffffffffffffffffff168152602001908152602001600020604051806060016040529081600082018054600181600116156101000203166002900480601f0160208091040260200160405190810160405280929190818152602001828054600181600116156101000203166002900480156112385780601f1061120d57610100808354040283529160200191611238565b820191906000526020600020905b81548152906001019060200180831161121b57829003601f168201915b505050505081526020016001820160009054906101000a900473ffffffffffffffffffffffffffffffffffffffff1673ffffffffffffffffffffffffffffffffffffffff1673ffffffffffffffffffffffffffffffffffffffff1681526020016002820180548060200260200160405190810160405280929190818152602001828054801561131c57602002820191906000526020600020905b8160009054906101000a900473ffffffffffffffffffffffffffffffffffffffff1673ffffffffffffffffffffffffffffffffffffffff16815260200190600101908083116112d2575b5050505050815250509050600073ffffffffffffffffffffffffffffffffffffffff16826040015173ffffffffffffffffffffffffffffffffffffffff1611156113a95781600001518090506040518060400160405280600781526020017f70617469656e7400000000000000000000000000000000000000000000000000815250935093505050611452565b600073ffffffffffffffffffffffffffffffffffffffff16816020015173ffffffffffffffffffffffffffffffffffffffff16111561142b5780600001518090506040518060400160405280600681526020017f646f63746f720000000000000000000000000000000000000000000000000000815250935093505050611452565b60405180602001604052806000815250604051806020016040528060008152509350935050505b915091565b60088054600181600116156101000203166002900480601f0160208091040260200160405190810160405280929190818152602001828054600181600116156101000203166002900480156114ed5780601f106114c2576101008083540402835291602001916114ed565b820191906000526020600020905b8154815290600101906020018083116114d057829003601f168201915b505050505081565b336114fe614e7c565b600360008373ffffffffffffffffffffffffffffffffffffffff1673ffffffffffffffffffffffffffffffffffffffff1681526020019081526020016000206040518060a0016040529081600082018054600181600116156101000203166002900480601f0160208091040260200160405190810160405280929190818152602001828054600181600116156101000203166002900480156115e15780601f106115b6576101008083540402835291602001916115e1565b820191906000526020600020905b8154815290600101906020018083116115c457829003601f168201915b505050505081526020016001820160009054906101000a900460ff1660ff1660ff1681526020016001820160019054906101000a900473ffffffffffffffffffffffffffffffffffffffff1673ffffffffffffffffffffffffffffffffffffffff1673ffffffffffffffffffffffffffffffffffffffff168152602001600282018054806020026020016040519081016040528092919081815260200182805480156116ac57602002820191906000526020600020905b815481526020019060010190808311611698575b505050505081526020016003820180548060200260200160405190810160405280929190818152602001828054801561173a57602002820191906000526020600020905b8160009054906101000a900473ffffffffffffffffffffffffffffffffffffffff1673ffffffffffffffffffffffffffffffffffffffff16815260200190600101908083116116f0575b5050505050815250509050600073ffffffffffffffffffffffffffffffffffffffff16816040015173ffffffffffffffffffffffffffffffffffffffff161161178257600080fd5b8261178b614ec4565b600160008373ffffffffffffffffffffffffffffffffffffffff1673ffffffffffffffffffffffffffffffffffffffff168152602001908152602001600020604051806060016040529081600082018054600181600116156101000203166002900480601f01602080910402602001604051908101604052809291908181526020018280546001816001161561010002031660029004801561186e5780601f106118435761010080835404028352916020019161186e565b820191906000526020600020905b81548152906001019060200180831161185157829003601f168201915b505050505081526020016001820160009054906101000a900473ffffffffffffffffffffffffffffffffffffffff1673ffffffffffffffffffffffffffffffffffffffff1673ffffffffffffffffffffffffffffffffffffffff1681526020016002820180548060200260200160405190810160405280929190818152602001828054801561195257602002820191906000526020600020905b8160009054906101000a900473ffffffffffffffffffffffffffffffffffffffff1673ffffffffffffffffffffffffffffffffffffffff1681526020019060010190808311611908575b5050505050815250509050600073ffffffffffffffffffffffffffffffffffffffff16816020015173ffffffffffffffffffffffffffffffffffffffff161161199a57600080fd5b6000600360003373ffffffffffffffffffffffffffffffffffffffff1673ffffffffffffffffffffffffffffffffffffffff16815260200190815260200160002090506000600160008873ffffffffffffffffffffffffffffffffffffffff1673ffffffffffffffffffffffffffffffffffffffff16815260200190815260200160002090506001600460003373ffffffffffffffffffffffffffffffffffffffff1673ffffffffffffffffffffffffffffffffffffffff16815260200190815260200160002060008973ffffffffffffffffffffffffffffffffffffffff1673ffffffffffffffffffffffffffffffffffffffff1681526020019081526020016000205410611aa957600080fd5b6000826003018890806001815401808255809150509060018203906000526020600020016000909192909190916101000a81548173ffffffffffffffffffffffffffffffffffffffff021916908373ffffffffffffffffffffffffffffffffffffffff16021790555090508060078190555080600460003373ffffffffffffffffffffffffffffffffffffffff1673ffffffffffffffffffffffffffffffffffffffff16815260200190815260200160002060008a73ffffffffffffffffffffffffffffffffffffffff1673ffffffffffffffffffffffffffffffffffffffff16815260200190815260200160002081905550816002013390806001815401808255809150509060018203906000526020600020016000909192909190916101000a81548173ffffffffffffffffffffffffffffffffffffffff021916908373ffffffffffffffffffffffffffffffffffffffff160217905550505050505050505050565b6060600060608033611c1e614e7c565b600360008373ffffffffffffffffffffffffffffffffffffffff1673ffffffffffffffffffffffffffffffffffffffff1681526020019081526020016000206040518060a0016040529081600082018054600181600116156101000203166002900480601f016020809104026020016040519081016040528092919081815260200182805460018160011615610100020316600290048015611d015780601f10611cd657610100808354040283529160200191611d01565b820191906000526020600020905b815481529060010190602001808311611ce457829003601f168201915b505050505081526020016001820160009054906101000a900460ff1660ff1660ff1681526020016001820160019054906101000a900473ffffffffffffffffffffffffffffffffffffffff1673ffffffffffffffffffffffffffffffffffffffff1673ffffffffffffffffffffffffffffffffffffffff16815260200160028201805480602002602001604051908101604052809291908181526020018280548015611dcc57602002820191906000526020600020905b815481526020019060010190808311611db8575b5050505050815260200160038201805480602002602001604051908101604052809291908181526020018280548015611e5a57602002820191906000526020600020905b8160009054906101000a900473ffffffffffffffffffffffffffffffffffffffff1673ffffffffffffffffffffffffffffffffffffffff1681526020019060010190808311611e10575b5050505050815250509050600073ffffffffffffffffffffffffffffffffffffffff16816040015173ffffffffffffffffffffffffffffffffffffffff1611611ea257600080fd5b611eaa614e7c565b600360003373ffffffffffffffffffffffffffffffffffffffff1673ffffffffffffffffffffffffffffffffffffffff1681526020019081526020016000206040518060a0016040529081600082018054600181600116156101000203166002900480601f016020809104026020016040519081016040528092919081815260200182805460018160011615610100020316600290048015611f8d5780601f10611f6257610100808354040283529160200191611f8d565b820191906000526020600020905b815481529060010190602001808311611f7057829003601f168201915b505050505081526020016001820160009054906101000a900460ff1660ff1660ff1681526020016001820160019054906101000a900473ffffffffffffffffffffffffffffffffffffffff1673ffffffffffffffffffffffffffffffffffffffff1673ffffffffffffffffffffffffffffffffffffffff1681526020016002820180548060200260200160405190810160405280929190818152602001828054801561205857602002820191906000526020600020905b815481526020019060010190808311612044575b50505050508152602001600382018054806020026020016040519081016040528092919081815260200182805480156120e657602002820191906000526020600020905b8160009054906101000a900473ffffffffffffffffffffffffffffffffffffffff1673ffffffffffffffffffffffffffffffffffffffff168152602001906001019080831161209c575b50505050508152505090508060000151816020015182606001518360800151839350819150809050965096509650965050505090919293565b612127614ec4565b600160003373ffffffffffffffffffffffffffffffffffffffff1673ffffffffffffffffffffffffffffffffffffffff168152602001908152602001600020604051806060016040529081600082018054600181600116156101000203166002900480601f01602080910402602001604051908101604052809291908181526020018280546001816001161561010002031660029004801561220a5780601f106121df5761010080835404028352916020019161220a565b820191906000526020600020905b8154815290600101906020018083116121ed57829003601f168201915b505050505081526020016001820160009054906101000a900473ffffffffffffffffffffffffffffffffffffffff1673ffffffffffffffffffffffffffffffffffffffff1673ffffffffffffffffffffffffffffffffffffffff168152602001600282018054806020026020016040519081016040528092919081815260200182805480156122ee57602002820191906000526020600020905b8160009054906101000a900473ffffffffffffffffffffffffffffffffffffffff1673ffffffffffffffffffffffffffffffffffffffff16815260200190600101908083116122a4575b50505050508152505090506040518060000190506040518091039020826040516020018082805190602001908083835b60208310612341578051825260208201915060208101905060208303925061231e565b6001836020036101000a03801982511681845116808217855250505050505090500191505060405160208183030381529060405280519060200120141561238757600080fd5b600073ffffffffffffffffffffffffffffffffffffffff16816020015173ffffffffffffffffffffffffffffffffffffffff1611156123c557600080fd5b60405180606001604052808381526020013373ffffffffffffffffffffffffffffffffffffffff16815260200160006040519080825280602002602001820160405280156124225781602001602082028038833980820191505090505b50815250600160003373ffffffffffffffffffffffffffffffffffffffff1673ffffffffffffffffffffffffffffffffffffffff1681526020019081526020016000206000820151816000019080519060200190612481929190614efb565b5060208201518160010160006101000a81548173ffffffffffffffffffffffffffffffffffffffff021916908373ffffffffffffffffffffffffffffffffffffffff16021790555060408201518160020190805190602001906124e5929190614f7b565b509050505050565b6124f5614e7c565b600360003373ffffffffffffffffffffffffffffffffffffffff1673ffffffffffffffffffffffffffffffffffffffff1681526020019081526020016000206040518060a0016040529081600082018054600181600116156101000203166002900480601f0160208091040260200160405190810160405280929190818152602001828054600181600116156101000203166002900480156125d85780601f106125ad576101008083540402835291602001916125d8565b820191906000526020600020905b8154815290600101906020018083116125bb57829003601f168201915b505050505081526020016001820160009054906101000a900460ff1660ff1660ff1681526020016001820160019054906101000a900473ffffffffffffffffffffffffffffffffffffffff1673ffffffffffffffffffffffffffffffffffffffff1673ffffffffffffffffffffffffffffffffffffffff168152602001600282018054806020026020016040519081016040528092919081815260200182805480156126a357602002820191906000526020600020905b81548152602001906001019080831161268f575b505050505081526020016003820180548060200260200160405190810160405280929190818152602001828054801561273157602002820191906000526020600020905b8160009054906101000a900473ffffffffffffffffffffffffffffffffffffffff1673ffffffffffffffffffffffffffffffffffffffff16815260200190600101908083116126e7575b50505050508152505090506040518060000190506040518091039020836040516020018082805190602001908083835b602083106127845780518252602082019150602081019050602083039250612761565b6001836020036101000a0380198251168184511680821785525050505050509050019150506040516020818303038152906040528051906020012014156127ca57600080fd5b60008260ff161180156127e0575060648260ff16105b6127e957600080fd5b600073ffffffffffffffffffffffffffffffffffffffff16816040015173ffffffffffffffffffffffffffffffffffffffff16111561282757600080fd5b6040518060a001604052808481526020018360ff1681526020013373ffffffffffffffffffffffffffffffffffffffff168152602001600060405190808252806020026020018201604052801561288d5781602001602082028038833980820191505090505b50815260200160006040519080825280602002602001820160405280156128c35781602001602082028038833980820191505090505b50815250600360003373ffffffffffffffffffffffffffffffffffffffff1673ffffffffffffffffffffffffffffffffffffffff1681526020019081526020016000206000820151816000019080519060200190612922929190614efb565b5060208201518160010160006101000a81548160ff021916908360ff16021790555060408201518160010160016101000a81548173ffffffffffffffffffffffffffffffffffffffff021916908373ffffffffffffffffffffffffffffffffffffffff16021790555060608201518160020190805190602001906129a7929190615005565b5060808201518160030190805190602001906129c4929190614f7b565b50905050505050565b6060806000809054906101000a900473ffffffffffffffffffffffffffffffffffffffff1673ffffffffffffffffffffffffffffffffffffffff163373ffffffffffffffffffffffffffffffffffffffff1614612a2957600080fd5b83612a32614e7c565b600360008373ffffffffffffffffffffffffffffffffffffffff1673ffffffffffffffffffffffffffffffffffffffff1681526020019081526020016000206040518060a0016040529081600082018054600181600116156101000203166002900480601f016020809104026020016040519081016040528092919081815260200182805460018160011615610100020316600290048015612b155780601f10612aea57610100808354040283529160200191612b15565b820191906000526020600020905b815481529060010190602001808311612af857829003601f168201915b505050505081526020016001820160009054906101000a900460ff1660ff1660ff1681526020016001820160019054906101000a900473ffffffffffffffffffffffffffffffffffffffff1673ffffffffffffffffffffffffffffffffffffffff1673ffffffffffffffffffffffffffffffffffffffff16815260200160028201805480602002602001604051908101604052809291908181526020018280548015612be057602002820191906000526020600020905b815481526020019060010190808311612bcc575b5050505050815260200160038201805480602002602001604051908101604052809291908181526020018280548015612c6e57602002820191906000526020600020905b8160009054906101000a900473ffffffffffffffffffffffffffffffffffffffff1673ffffffffffffffffffffffffffffffffffffffff1681526020019060010190808311612c24575b5050505050815250509050600073ffffffffffffffffffffffffffffffffffffffff16816040015173ffffffffffffffffffffffffffffffffffffffff1611612cb657600080fd5b86612cbf614ec4565b600160008373ffffffffffffffffffffffffffffffffffffffff1673ffffffffffffffffffffffffffffffffffffffff168152602001908152602001600020604051806060016040529081600082018054600181600116156101000203166002900480601f016020809104026020016040519081016040528092919081815260200182805460018160011615610100020316600290048015612da25780601f10612d7757610100808354040283529160200191612da2565b820191906000526020600020905b815481529060010190602001808311612d8557829003601f168201915b505050505081526020016001820160009054906101000a900473ffffffffffffffffffffffffffffffffffffffff1673ffffffffffffffffffffffffffffffffffffffff1673ffffffffffffffffffffffffffffffffffffffff16815260200160028201805480602002602001604051908101604052809291908181526020018280548015612e8657602002820191906000526020600020905b8160009054906101000a900473ffffffffffffffffffffffffffffffffffffffff1673ffffffffffffffffffffffffffffffffffffffff1681526020019060010190808311612e3c575b5050505050815250509050600073ffffffffffffffffffffffffffffffffffffffff16816020015173ffffffffffffffffffffffffffffffffffffffff1611612ece57600080fd5b6040518060400160405280600681526020017f646f63746f72000000000000000000000000000000000000000000000000000081525089888a600060405180807f646f63746f72000000000000000000000000000000000000000000000000000081525060060190506040518091039020856040516020018082805190602001908083835b60208310612f765780518252602082019150602081019050602083039250612f53565b6001836020036101000a0380198251168184511680821785525050505050509050019150506040516020818303038152906040528051906020012014156130a5576000600460008473ffffffffffffffffffffffffffffffffffffffff1673ffffffffffffffffffffffffffffffffffffffff16815260200190815260200160002060008673ffffffffffffffffffffffffffffffffffffffff1673ffffffffffffffffffffffffffffffffffffffff168152602001908152602001600020541161304057600080fd5b600660008373ffffffffffffffffffffffffffffffffffffffff1673ffffffffffffffffffffffffffffffffffffffff1681526020019081526020016000206000848152602001908152602001600020549050600081116130a057600080fd5b6131b5565b60405180807f70617469656e740000000000000000000000000000000000000000000000000081525060070190506040518091039020856040516020018082805190602001908083835b6020831061311257805182526020820191506020810190506020830392506130ef565b6001836020036101000a0380198251168184511680821785525050505050509050019150506040516020818303038152906040528051906020012014156131b457600660008573ffffffffffffffffffffffffffffffffffffffff1673ffffffffffffffffffffffffffffffffffffffff1681526020019081526020016000206000848152602001908152602001600020549050600081116131b357600080fd5b5b5b6131bd615052565b6131c68d614ba5565b9050806000015181602001518191508090509b509b5050505050505050505050935093915050565b336131f7614e7c565b600360008373ffffffffffffffffffffffffffffffffffffffff1673ffffffffffffffffffffffffffffffffffffffff1681526020019081526020016000206040518060a0016040529081600082018054600181600116156101000203166002900480601f0160208091040260200160405190810160405280929190818152602001828054600181600116156101000203166002900480156132da5780601f106132af576101008083540402835291602001916132da565b820191906000526020600020905b8154815290600101906020018083116132bd57829003601f168201915b505050505081526020016001820160009054906101000a900460ff1660ff1660ff1681526020016001820160019054906101000a900473ffffffffffffffffffffffffffffffffffffffff1673ffffffffffffffffffffffffffffffffffffffff1673ffffffffffffffffffffffffffffffffffffffff168152602001600282018054806020026020016040519081016040528092919081815260200182805480156133a557602002820191906000526020600020905b815481526020019060010190808311613391575b505050505081526020016003820180548060200260200160405190810160405280929190818152602001828054801561343357602002820191906000526020600020905b8160009054906101000a900473ffffffffffffffffffffffffffffffffffffffff1673ffffffffffffffffffffffffffffffffffffffff16815260200190600101908083116133e9575b5050505050815250509050600073ffffffffffffffffffffffffffffffffffffffff16816040015173ffffffffffffffffffffffffffffffffffffffff161161347b57600080fd5b6000600360003373ffffffffffffffffffffffffffffffffffffffff1673ffffffffffffffffffffffffffffffffffffffff16815260200190815260200160002090506001600660003373ffffffffffffffffffffffffffffffffffffffff1673ffffffffffffffffffffffffffffffffffffffff1681526020019081526020016000206000878152602001908152602001600020541061351b57600080fd5b604051806060016040528088815260200187815260200185815250600560008781526020019081526020016000206000820151816000019080519060200190613565929190614efb565b506020820151816001019080519060200190613582929190614efb565b50604082015181600201908051906020019061359f929190614efb565b509050506000816002018690806001815401808255809150509060018203906000526020600020016000909192909190915055905080600660003373ffffffffffffffffffffffffffffffffffffffff1673ffffffffffffffffffffffffffffffffffffffff1681526020019081526020016000206000888152602001908152602001600020819055505050505050505050565b6060819050919050565b6060806000809054906101000a900473ffffffffffffffffffffffffffffffffffffffff1673ffffffffffffffffffffffffffffffffffffffff163373ffffffffffffffffffffffffffffffffffffffff161461369957600080fd5b836136a2614e7c565b600360008373ffffffffffffffffffffffffffffffffffffffff1673ffffffffffffffffffffffffffffffffffffffff1681526020019081526020016000206040518060a0016040529081600082018054600181600116156101000203166002900480601f0160208091040260200160405190810160405280929190818152602001828054600181600116156101000203166002900480156137855780601f1061375a57610100808354040283529160200191613785565b820191906000526020600020905b81548152906001019060200180831161376857829003601f168201915b505050505081526020016001820160009054906101000a900460ff1660ff1660ff1681526020016001820160019054906101000a900473ffffffffffffffffffffffffffffffffffffffff1673ffffffffffffffffffffffffffffffffffffffff1673ffffffffffffffffffffffffffffffffffffffff1681526020016002820180548060200260200160405190810160405280929190818152602001828054801561385057602002820191906000526020600020905b81548152602001906001019080831161383c575b50505050508152602001600382018054806020026020016040519081016040528092919081815260200182805480156138de57602002820191906000526020600020905b8160009054906101000a900473ffffffffffffffffffffffffffffffffffffffff1673ffffffffffffffffffffffffffffffffffffffff1681526020019060010190808311613894575b5050505050815250509050600073ffffffffffffffffffffffffffffffffffffffff16816040015173ffffffffffffffffffffffffffffffffffffffff161161392657600080fd5b6040518060400160405280600781526020017f70617469656e7400000000000000000000000000000000000000000000000000815250868688600060405180807f646f63746f72000000000000000000000000000000000000000000000000000081525060060190506040518091039020856040516020018082805190602001908083835b602083106139ce57805182526020820191506020810190506020830392506139ab565b6001836020036101000a038019825116818451168082178552505050505050905001915050604051602081830303815290604052805190602001201415613afd576000600460008473ffffffffffffffffffffffffffffffffffffffff1673ffffffffffffffffffffffffffffffffffffffff16815260200190815260200160002060008673ffffffffffffffffffffffffffffffffffffffff1673ffffffffffffffffffffffffffffffffffffffff1681526020019081526020016000205411613a9857600080fd5b600660008373ffffffffffffffffffffffffffffffffffffffff1673ffffffffffffffffffffffffffffffffffffffff168152602001908152602001600020600084815260200190815260200160002054905060008111613af857600080fd5b613c0d565b60405180807f70617469656e740000000000000000000000000000000000000000000000000081525060070190506040518091039020856040516020018082805190602001908083835b60208310613b6a5780518252602082019150602081019050602083039250613b47565b6001836020036101000a038019825116818451168082178552505050505050905001915050604051602081830303815290604052805190602001201415613c0c57600660008573ffffffffffffffffffffffffffffffffffffffff1673ffffffffffffffffffffffffffffffffffffffff168152602001908152602001600020600084815260200190815260200160002054905060008111613c0b57600080fd5b5b5b613c15615052565b613c1e8b614ba5565b9050806000015181602001518191508090509950995050505050505050509250929050565b60608033613c4f614ec4565b600160008373ffffffffffffffffffffffffffffffffffffffff1673ffffffffffffffffffffffffffffffffffffffff168152602001908152602001600020604051806060016040529081600082018054600181600116156101000203166002900480601f016020809104026020016040519081016040528092919081815260200182805460018160011615610100020316600290048015613d325780601f10613d0757610100808354040283529160200191613d32565b820191906000526020600020905b815481529060010190602001808311613d1557829003601f168201915b505050505081526020016001820160009054906101000a900473ffffffffffffffffffffffffffffffffffffffff1673ffffffffffffffffffffffffffffffffffffffff1673ffffffffffffffffffffffffffffffffffffffff16815260200160028201805480602002602001604051908101604052809291908181526020018280548015613e1657602002820191906000526020600020905b8160009054906101000a900473ffffffffffffffffffffffffffffffffffffffff1673ffffffffffffffffffffffffffffffffffffffff1681526020019060010190808311613dcc575b5050505050815250509050600073ffffffffffffffffffffffffffffffffffffffff16816020015173ffffffffffffffffffffffffffffffffffffffff1611613e5e57600080fd5b613e66614ec4565b600160003373ffffffffffffffffffffffffffffffffffffffff1673ffffffffffffffffffffffffffffffffffffffff168152602001908152602001600020604051806060016040529081600082018054600181600116156101000203166002900480601f016020809104026020016040519081016040528092919081815260200182805460018160011615610100020316600290048015613f495780601f10613f1e57610100808354040283529160200191613f49565b820191906000526020600020905b815481529060010190602001808311613f2c57829003601f168201915b505050505081526020016001820160009054906101000a900473ffffffffffffffffffffffffffffffffffffffff1673ffffffffffffffffffffffffffffffffffffffff1673ffffffffffffffffffffffffffffffffffffffff1681526020016002820180548060200260200160405190810160405280929190818152602001828054801561402d57602002820191906000526020600020905b8160009054906101000a900473ffffffffffffffffffffffffffffffffffffffff1673ffffffffffffffffffffffffffffffffffffffff1681526020019060010190808311613fe3575b505050505081525050905080600001518160400151819150809050945094505050509091565b6060846060600560008381526020019081526020016000206000018054600181600116156101000203166002900480601f0160208091040260200160405190810160405280929190818152602001828054600181600116156101000203166002900480156141025780601f106140d757610100808354040283529160200191614102565b820191906000526020600020905b8154815290600101906020018083116140e557829003601f168201915b50505050509050600081511161411757600080fd5b85858886600060405180807f646f63746f72000000000000000000000000000000000000000000000000000081525060060190506040518091039020856040516020018082805190602001908083835b6020831061418a5780518252602082019150602081019050602083039250614167565b6001836020036101000a0380198251168184511680821785525050505050509050019150506040516020818303038152906040528051906020012014156142b9576000600460008473ffffffffffffffffffffffffffffffffffffffff1673ffffffffffffffffffffffffffffffffffffffff16815260200190815260200160002060008673ffffffffffffffffffffffffffffffffffffffff1673ffffffffffffffffffffffffffffffffffffffff168152602001908152602001600020541161425457600080fd5b600660008373ffffffffffffffffffffffffffffffffffffffff1673ffffffffffffffffffffffffffffffffffffffff1681526020019081526020016000206000848152602001908152602001600020549050600081116142b457600080fd5b6143c9565b60405180807f70617469656e740000000000000000000000000000000000000000000000000081525060070190506040518091039020856040516020018082805190602001908083835b602083106143265780518252602082019150602081019050602083039250614303565b6001836020036101000a0380198251168184511680821785525050505050509050019150506040516020818303038152906040528051906020012014156143c857600660008573ffffffffffffffffffffffffffffffffffffffff1673ffffffffffffffffffffffffffffffffffffffff1681526020019081526020016000206000848152602001908152602001600020549050600081116143c757600080fd5b5b5b6143d1615052565b6143da8d614ba5565b9050806040015198505050505050505050949350505050565b6060600080606084614403614e7c565b600360008373ffffffffffffffffffffffffffffffffffffffff1673ffffffffffffffffffffffffffffffffffffffff1681526020019081526020016000206040518060a0016040529081600082018054600181600116156101000203166002900480601f0160208091040260200160405190810160405280929190818152602001828054600181600116156101000203166002900480156144e65780601f106144bb576101008083540402835291602001916144e6565b820191906000526020600020905b8154815290600101906020018083116144c957829003601f168201915b505050505081526020016001820160009054906101000a900460ff1660ff1660ff1681526020016001820160019054906101000a900473ffffffffffffffffffffffffffffffffffffffff1673ffffffffffffffffffffffffffffffffffffffff1673ffffffffffffffffffffffffffffffffffffffff168152602001600282018054806020026020016040519081016040528092919081815260200182805480156145b157602002820191906000526020600020905b81548152602001906001019080831161459d575b505050505081526020016003820180548060200260200160405190810160405280929190818152602001828054801561463f57602002820191906000526020600020905b8160009054906101000a900473ffffffffffffffffffffffffffffffffffffffff1673ffffffffffffffffffffffffffffffffffffffff16815260200190600101908083116145f5575b5050505050815250509050600073ffffffffffffffffffffffffffffffffffffffff16816040015173ffffffffffffffffffffffffffffffffffffffff161161468757600080fd5b33614690614ec4565b600160008373ffffffffffffffffffffffffffffffffffffffff1673ffffffffffffffffffffffffffffffffffffffff168152602001908152602001600020604051806060016040529081600082018054600181600116156101000203166002900480601f0160208091040260200160405190810160405280929190818152602001828054600181600116156101000203166002900480156147735780601f1061474857610100808354040283529160200191614773565b820191906000526020600020905b81548152906001019060200180831161475657829003601f168201915b505050505081526020016001820160009054906101000a900473ffffffffffffffffffffffffffffffffffffffff1673ffffffffffffffffffffffffffffffffffffffff1673ffffffffffffffffffffffffffffffffffffffff1681526020016002820180548060200260200160405190810160405280929190818152602001828054801561485757602002820191906000526020600020905b8160009054906101000a900473ffffffffffffffffffffffffffffffffffffffff1673ffffffffffffffffffffffffffffffffffffffff168152602001906001019080831161480d575b5050505050815250509050600073ffffffffffffffffffffffffffffffffffffffff16816020015173ffffffffffffffffffffffffffffffffffffffff161161489f57600080fd5b6148a7614e7c565b600360008b73ffffffffffffffffffffffffffffffffffffffff1673ffffffffffffffffffffffffffffffffffffffff1681526020019081526020016000206040518060a0016040529081600082018054600181600116156101000203166002900480601f01602080910402602001604051908101604052809291908181526020018280546001816001161561010002031660029004801561498a5780601f1061495f5761010080835404028352916020019161498a565b820191906000526020600020905b81548152906001019060200180831161496d57829003601f168201915b505050505081526020016001820160009054906101000a900460ff1660ff1660ff1681526020016001820160019054906101000a900473ffffffffffffffffffffffffffffffffffffffff1673ffffffffffffffffffffffffffffffffffffffff1673ffffffffffffffffffffffffffffffffffffffff16815260200160028201805480602002602001604051908101604052809291908181526020018280548015614a5557602002820191906000526020600020905b815481526020019060010190808311614a41575b5050505050815260200160038201805480602002602001604051908101604052809291908181526020018280548015614ae357602002820191906000526020600020905b8160009054906101000a900473ffffffffffffffffffffffffffffffffffffffff1673ffffffffffffffffffffffffffffffffffffffff1681526020019060010190808311614a99575b50505050508152505090506000600460008c73ffffffffffffffffffffffffffffffffffffffff1673ffffffffffffffffffffffffffffffffffffffff16815260200190815260200160002060003373ffffffffffffffffffffffffffffffffffffffff1673ffffffffffffffffffffffffffffffffffffffff1681526020019081526020016000205411614b7757600080fd5b8060000151816020015182604001518360600151839350809050985098509850985050505050509193509193565b614bad615052565b816060600560008381526020019081526020016000206000018054600181600116156101000203166002900480601f016020809104026020016040519081016040528092919081815260200182805460018160011615610100020316600290048015614c5a5780601f10614c2f57610100808354040283529160200191614c5a565b820191906000526020600020905b815481529060010190602001808311614c3d57829003601f168201915b505050505090506000815111614c6f57600080fd5b60056000858152602001908152602001600020604051806060016040529081600082018054600181600116156101000203166002900480601f016020809104026020016040519081016040528092919081815260200182805460018160011615610100020316600290048015614d265780601f10614cfb57610100808354040283529160200191614d26565b820191906000526020600020905b815481529060010190602001808311614d0957829003601f168201915b50505050508152602001600182018054600181600116156101000203166002900480601f016020809104026020016040519081016040528092919081815260200182805460018160011615610100020316600290048015614dc85780601f10614d9d57610100808354040283529160200191614dc8565b820191906000526020600020905b815481529060010190602001808311614dab57829003601f168201915b50505050508152602001600282018054600181600116156101000203166002900480601f016020809104026020016040519081016040528092919081815260200182805460018160011615610100020316600290048015614e6a5780601f10614e3f57610100808354040283529160200191614e6a565b820191906000526020600020905b815481529060010190602001808311614e4d57829003601f168201915b50505050508152505092505050919050565b6040518060a0016040528060608152602001600060ff168152602001600073ffffffffffffffffffffffffffffffffffffffff16815260200160608152602001606081525090565b604051806060016040528060608152602001600073ffffffffffffffffffffffffffffffffffffffff168152602001606081525090565b828054600181600116156101000203166002900490600052602060002090601f016020900481019282601f10614f3c57805160ff1916838001178555614f6a565b82800160010185558215614f6a579182015b82811115614f69578251825591602001919060010190614f4e565b5b509050614f779190615073565b5090565b828054828255906000526020600020908101928215614ff4579160200282015b82811115614ff35782518260006101000a81548173ffffffffffffffffffffffffffffffffffffffff021916908373ffffffffffffffffffffffffffffffffffffffff16021790555091602001919060010190614f9b565b5b5090506150019190615098565b5090565b828054828255906000526020600020908101928215615041579160200282015b82811115615040578251825591602001919060010190615025565b5b50905061504e91906150db565b5090565b60405180606001604052806060815260200160608152602001606081525090565b61509591905b80821115615091576000816000905550600101615079565b5090565b90565b6150d891905b808211156150d457600081816101000a81549073ffffffffffffffffffffffffffffffffffffffff02191690555060010161509e565b5090565b90565b6150fd91905b808211156150f95760008160009055506001016150e1565b5090565b9056fea265627a7a72315820739202d472f31573d346176c3986bf34500f15865894dbcc5db0c0946fc8db3364736f6c63430005100032",
    "source": "pragma solidity ^0.5.16;\r\n\r\ncontract Healthblock {\r\n  address private owner;\r\n  mapping (address => doctor) private doctors;// doctor and list of patient profile he can access\r\n  mapping (address => mapping(address => uint)) private doctorToPatient;\r\n  mapping (address => patient) private patients;\r\n  mapping (address => mapping (address => uint)) private patientToDoctor;\r\n  mapping (bytes32 => filesInfo) private hashToFile; //filehash to file info\r\n  mapping (address => mapping (bytes32 => uint)) private patientToFile;\r\n  uint private gpos;\r\n    string public name = \"Healthblock\";\r\n\r\n  struct filesInfo {\r\n      string file_name;\r\n      string file_type;\r\n      string file_secret;\r\n  }\r\n  \r\n  struct patient {\r\n      string name;\r\n      uint8 age;\r\n      address id;\r\n      bytes32[] files;// hashes of file that belong to this user for display purpose\r\n      address[] doctor_list;\r\n  }\r\n  \r\n  struct doctor {\r\n      string name;\r\n      address id;\r\n      address[] patient_list;\r\n  }\r\n  \r\n  constructor() public {\r\n    owner = msg.sender;\r\n  }\r\n  \r\n  modifier checkDoctor(address id) {\r\n    doctor memory d = doctors[id];\r\n    require(d.id > address(0x0));//check if doctor exist\r\n    _;\r\n  }\r\n  \r\n  modifier checkPatient(address id) {\r\n    patient memory p = patients[id];\r\n    require(p.id > address(0x0));//check if patient exist\r\n    _;\r\n  }\r\n  \r\n  modifier onlyOwner() {\r\n    require(msg.sender == owner);\r\n    _;\r\n  }\r\n  \r\n  modifier checkFileAccess(string memory role, address id, bytes32 fileHashId, address pat) {\r\n    uint pos;\r\n    if(keccak256(abi.encodePacked(role)) == keccak256(\"doctor\")) {\r\n        require(patientToDoctor[pat][id] > 0);\r\n        pos = patientToFile[pat][fileHashId];\r\n        require(pos > 0);   \r\n    }\r\n    else if(keccak256(abi.encodePacked(role)) == keccak256(\"patient\")) {\r\n        pos = patientToFile[id][fileHashId];\r\n        require(pos > 0);\r\n    }\r\n    _; \r\n  }\r\n  \r\n  modifier checkFile(bytes32 fileHashId) {\r\n    bytes memory tempString = bytes(hashToFile[fileHashId].file_name);\r\n    require(tempString.length > 0);//check if file exist\r\n    _;\r\n  }\r\n  function hello(string memory _test) public returns(string memory){\r\n      return (_test);\r\n      \r\n  }\r\n  function signupPatient(string memory _name, uint8 _age) public {\r\n     patient memory p = patients[msg.sender];\r\n     require(keccak256(abi.encodePacked(_name)) != keccak256(\"\"));\r\n     require((_age > 0) && (_age < 100));\r\n     require(!(p.id > address(0x0)));\r\n     patients[msg.sender] = patient({name:_name,age:_age,id:msg.sender,files:new bytes32[](0),doctor_list:new address[](0)});\r\n  }\r\n  \r\n  function signupDoctor(string memory _name) public {\r\n      doctor memory d = doctors[msg.sender];\r\n      require(keccak256(abi.encodePacked(_name)) != keccak256(\"\"));\r\n      require(!(d.id > address(0x0)));\r\n\r\n      doctors[msg.sender] = doctor({name:_name,id:msg.sender,patient_list:new address[](0)});\r\n  }\r\n  \r\n  function grantAccessToDoctor(address doctor_id) public checkPatient(msg.sender) checkDoctor(doctor_id) {\r\n      patient storage p = patients[msg.sender];\r\n      doctor storage d = doctors[doctor_id];\r\n      require(patientToDoctor[msg.sender][doctor_id] < 1);// this means doctor already been access\r\n      \r\n      uint pos = p.doctor_list.push(doctor_id);// new length of array\r\n      gpos = pos;\r\n      patientToDoctor[msg.sender][doctor_id] = pos;\r\n      d.patient_list.push(msg.sender);\r\n  }\r\n  \r\n  function addFile(string memory _file_name, string memory _file_type, bytes32 _fileHash, string memory _file_secret) public checkPatient(msg.sender) {\r\n      patient storage p = patients[msg.sender];\r\n\r\n      require(patientToFile[msg.sender][_fileHash] < 1);\r\n      \r\n      hashToFile[_fileHash] = filesInfo({file_name:_file_name, file_type:_file_type,file_secret:_file_secret});\r\n      uint pos = p.files.push(_fileHash);\r\n      patientToFile[msg.sender][_fileHash] = pos;\r\n  }\r\n  \r\n  function getPatientInfo() public view checkPatient(msg.sender) returns(string memory, uint8, bytes32[] memory , address[] memory) {\r\n      patient memory p = patients[msg.sender];\r\n      return (p.name, p.age, p.files, p.doctor_list);\r\n  }\r\n  \r\n  function getDoctorInfo() public view checkDoctor(msg.sender) returns(string memory, address[] memory){\r\n      doctor memory d = doctors[msg.sender];\r\n      return (d.name, d.patient_list);\r\n  }\r\n  \r\n  function checkProfile(address _user) public view onlyOwner returns(string memory, string memory){\r\n      patient memory p = patients[_user];\r\n      doctor memory d = doctors[_user];\r\n      \r\n      if(p.id > address(0x0))\r\n          return (p.name, 'patient');\r\n      else if(d.id > address(0x0))\r\n          return (d.name, 'doctor');\r\n      else\r\n          return ('', '');\r\n  }\r\n  \r\n  function getPatientInfoForDoctor(address pat) public view checkPatient(pat) checkDoctor(msg.sender) returns(string memory, uint8, address, bytes32[] memory){\r\n      patient memory p = patients[pat];\r\n\r\n      require(patientToDoctor[pat][msg.sender] > 0);\r\n\r\n      return (p.name, p.age, p.id, p.files);\r\n  }\r\n  \r\n  function getFileInfo(bytes32 fileHashId) private view checkFile(fileHashId) returns(filesInfo memory) {\r\n      return hashToFile[fileHashId];\r\n  }\r\n  \r\n  function getFileSecret(bytes32 fileHashId, string memory role, address id, address pat) public view \r\n  checkFile(fileHashId) checkFileAccess(role, id, fileHashId, pat)\r\n  returns(string memory) {\r\n      filesInfo memory f = getFileInfo(fileHashId);\r\n      return (f.file_secret);\r\n  }\r\n\r\n  function getFileInfoDoctor(address doc, address pat, bytes32 fileHashId) public view \r\n  onlyOwner checkPatient(pat) checkDoctor(doc) checkFileAccess(\"doctor\", doc, fileHashId, pat)\r\n  returns(string memory, string memory) {\r\n      filesInfo memory f = getFileInfo(fileHashId);\r\n      return (f.file_name, f.file_type);\r\n  }\r\n  \r\n  function getFileInfoPatient(address pat, bytes32 fileHashId) public view \r\n  onlyOwner checkPatient(pat) checkFileAccess(\"patient\", pat, fileHashId, pat) returns(string memory, string memory) {\r\n      filesInfo memory f = getFileInfo(fileHashId);\r\n      return (f.file_name, f.file_type);\r\n  }\r\n  \r\n}",
    "sourcePath": "C:/Users/kumar/major-project/healthblock/src/contracts/Healthblock.sol",
    "compiler": {
        "name": "solc",
        "version": "0.5.16+commit.9c3226ce.Emscripten.clang"
    },
    "schemaVersion": "3.3.3",
    "updatedAt": "2020-12-21T08:25:29.431Z",
    "networkType": "ethereum",
    "devdoc": {
        "methods": {}
    },
    "userdoc": {
        "methods": {}
    }
}